:020000041000EA
:10000000002008205D0100101B0100101D010010E0
:100010001101001011010010110100101101001058
:100020001901001019010010190100101F01001022
:10003000110100101901001021010010230100100E
:100040001101001011010010110100101101001028
:100050001101001011010010110100101101001018
:100060001101001011010010110100101101001008
:1000700011010010110100101101001011010010F8
:1000800011010010110100101101001011010010E8
:1000900011010010110100101101001011010010D8
:1000A00011010010110100101101001011010010C8
:1000B00011010010110100101101001011010010B8
:1000C00011010010110100101101001011010010A8
:1000D0001101001011010010110100101101001098
:1000E0001101001011010010110100101101001088
:1000F0001101001011010010110100101101001078
:100100001101001011010010110100101101001067
:10011000EFF30580103800BE00BE00BE00BE00BE7A
:1001200000BE00BEF2EB8871202A00104C2A00109D
:10013000A001001090A31AE7D3DEFFFF42012110B7
:10014000FF01000088310000793512AB4FF000004C
:100150001E49086006C881F3088810474FF05040D8
:10016000006810B14FF00000F2E70DA40ECC00299A
:1001700002D000F012F8F9E71549164A002000E015
:1001800001C19142FCD11449884714498847144958
:10019000884700BEFDE701C901C29A42FBD3704700
:1001A0004C2A00101001002084090020C0320010E9
:1001B0000000082000000820C032001000100820B5
:1001C00000100820000000007047000008ED00E06B
:1001D00084090020680D0020BD1E0010750200106B
:1001E000B51E0010F8B500BF0348044B834202D08F
:1001F000034B03B11847704784090020840900208D
:1002000000000000064B0749C91A891048BF013198
:10021000491003D0044B0BB101481847704700BF89
:1002200084090020840900200000000010B5064C5D
:10023000237843B9FFF7D8FF044B13B10448AFF359
:1002400000800123237010BD080B00200000000077
:10025000E028001008B5044B1BB104490448AFF373
:100260000080BDE80840CDE7000000000C0B002036
:10027000E028001008B500F039F80021172000F040
:100280006FF90021192000F06BF90021182000F00F
:1002900067F90121172000F063F940F6B83001F04A
:1002A0001BFA0121182000F05BF94FF47A7001F07D
:1002B00013FA0021182000F053F90021172000F054
:1002C0004FF90121192000F04BF940F6B83001F048
:1002D00003FA0021192000F043F90121182000F051
:1002E0003FF94FF47A7001F0F7F9C6E780B582B0B4
:1002F00000AF01F0DBFE192000F0C2FC0121192043
:1003000000F086F9182000F0BBFC0121182000F055
:100310007FF9172000F0B4FC0121172000F078F9D4
:10032000162000F0ADFC0021162000F071F9162017
:1003300000F072F90F2000F0A3FC00210F2000F064
:1003400067F90F2000F068F9102000F099FC0021F7
:10035000102000F05DF9102000F05EF9112000F08F
:100360008FFC0021112000F053F9112000F054F906
:100370001A2000F085FC00211A2000F049F91A200B
:1003800000F04AF91B2000F07BFC00211B2000F04C
:100390003FF91B2000F040F91C2000F071FC002107
:1003A0001C2000F035F91C2000F036F91D2000F06B
:1003B00067FC00211D2000F02BF91D2000F02CF916
:1003C000022000F05DFC0021022000F021F9022053
:1003D00000F022F9032000F053FC0021032000F07C
:1003E00017F9032000F018F90D2000F049FC002156
:1003F0000D2000F00DF90D2000F00EF90E2000F098
:100400003FFC00210E2000F003F90E2000F004F95B
:100410003549364801F0AAFF01210B2000F0FEFB10
:1004200001210A2000F0FAFB092000F029FC01213B
:10043000092000F0EDF80421092000F0EFFB09206D
:1004400000F09EF878606421786800F0A3F800213D
:10045000092000F0A9F80121786800F0C5F80C2007
:1004600000F00EFC01210C2000F0D2F80021092040
:1004700000F0CAF81E4B00221A601D4800F046F832
:100480001C491D4802F0C4F80321142000F0C6FBEB
:100490000321152000F0C2FB142000F0BDF8152048
:1004A00000F0BAF800F0D2F8144800F001FB03465F
:1004B000002B02D0124B01221A704FF4E131114887
:1004C00001F046FA0221042000F0A8FB02210520D9
:1004D00000F0A4FB082000F09FFB03460A4A1360CB
:1004E00000BF0837BD4680BD40420F000080084075
:1004F000580D0020A08601006C090020D80C0020B7
:10050000650D002000800740500D002080B582B0AE
:1005100000AF78607B6802331B781A467B68013332
:100520001B781B021A437B681B781B0413431A4673
:10053000094B1A6003220849084802F0A5F9012175
:100540000C2000F061F800210C2000F05DF800BFE5
:100550000837BD4680BD00BF580D00200080084010
:1005600080B582B000AF78600B46FB70FB7819460F
:10057000786800F049F800BF0837BD4680BD00BF6D
:1005800043081F2892BF03F0070003F00300083060
:10059000704700BF00EB8000800000F1804000F554
:1005A00028200161704700BF43081F288ABF03F05D
:1005B000030303F007030833094A03EB83039B009B
:1005C0001A44C30758BF4FF6FF70136844BF05486D
:1005D00009044B4002F5805203401360704700BF8E
:1005E0000C800A400000FFFF00EB8000800000F15B
:1005F000804000F528231B6800F52920594001F0B0
:1006000001010160704700BF41EC4000704700BF2E
:1006100041EC4400704700BF0022012100F01CBBE8
:1006200080B584B002AF03460A46FB711346BB7126
:10063000FA1DB979002300930123034802F00EF854
:1006400000BF0837BD4680BD6C09002080B500AFF3
:1006500070212120FFF7E4FF7021A020FFF7E0FFC9
:1006600070218120FFF7DCFF00F024F800BF80BD7F
:1006700080B586B002AF78600B467B807B68DBB2CA
:100680005B00DBB23B737B88DBB27B737B881B0A2E
:100690009BB2DBB2BB7307F10C0200230093032370
:1006A0007021034801F0DAFF00BF1037BD4680BD5E
:1006B0006C09002080B500AF00210020FFF7D8FFB3
:1006C00000210120FFF7D4FF00210220FFF7D0FF17
:1006D00000210320FFF7CCFF00BF80BD2DE9F041D2
:1006E000012504460B23002684B0009503AA8DF84B
:1006F0000C300F462B4621783D4801F0AFFF0096A5
:100700002B463B4821780DF10B0201F0AFFF9DF81D
:100710000B309B0721D04FF02A0800952B462178FB
:1007200003AA33488DF80C8001F098FF00962B4601
:1007300021780DF10B022E4801F098FF9DF80B3047
:10074000009623F001038DF80D302178022328480C
:1007500003AA8DF80C8001F081FF012500264FF0DF
:100760000E0821782B4603AA009521488DF80C80AD
:1007700001F074FF00962B4621780DF10B021C4806
:1007800001F074FF9DF80B30009603F0FC0343EA80
:1007900097012A278DF80D1003AA21780223144807
:1007A0008DF80C8001F05AFF00952B46217803AAA2
:1007B0000F488DF80C7001F051FF00962B46217800
:1007C0000DF10B020A4801F051FF9DF80B50009605
:1007D0000223217845F0010503AA05488DF80C7025
:1007E0008DF80D5001F03AFF04B0BDE8F08100BF74
:1007F0006C0900202DE9F041012504460B23002659
:1008000084B0009503AA8DF80C3088462B462178D9
:100810003B4801F023FF00962B46394821780DF123
:100820000B0201F023FF9DF80B309B0720D02A27F5
:1008300000952B46217803AA31488DF80C7001F001
:100840000DFF00962B4621780DF10B022C4801F08C
:100850000DFF9DF80B30009623F001038DF80D304D
:1008600021780223264803AA8DF80C7001F0F6FEC9
:1008700001252A26002721782B4603AA0095204827
:100880008DF80C6001F0EAFE00972B4621780DF1FF
:100890000B021B4801F0EAFE9DF80B20009702F0C6
:1008A000C70242EAC8018DF80D1003AA217802237D
:1008B00013488DF80C6001F0D1FE00952B4621788D
:1008C00003AA0F488DF80C6001F0C8FE00972B4674
:1008D00021780DF10B020A4801F0C8FE9DF80B507B
:1008E00000970223217845F0010503AA04488DF8FA
:1008F0000C608DF80D5001F0B1FE04B0BDE8F08140
:100900006C0900202DE9F047012504464FF00B0C3F
:100910004FF0000984B000951746884603AA217855
:100920001E4662482B468DF80CC001F097FECDF8AC
:1009300000902B4621785D480DF10B0201F096FEE8
:100940009DF80B30990723D04FF02A0A00952B46CB
:10095000217803AA55488DF80CA001F07FFECDF850
:1009600000902B4621780DF10B02504801F07EFEDD
:100970009DF80B30CDF8009023F001038DF80D3079
:1009800021780223494803AA8DF80CA001F066FEE5
:1009900018F0800F79D04FF00C0800253A060DD4DE
:1009A00000230093242321788DF80C303F48022344
:1009B00003AA8DF80D70454601F050FE33060FD4A2
:1009C00000232522009345F030058DF80C200223EA
:1009D0002178364803AA8DF80D60EDB201F03EFE95
:1009E00045F040058DF80D5000252126217803AAF9
:1009F000009502232D488DF80C6001F02FFE43F284
:100A0000260200952178ADF80C20022303AA27487E
:100A100001F024FE4AF2270200952178ADF80C205F
:100A2000022303AA214801F019FE4FF6287201267D
:100A30002A2700952178ADF80C20022303AA1B4831
:100A400001F00CFE00963346217803AA17488DF872
:100A50000C7001F003FE0095334621780DF10B0276
:100A6000124801F003FE9DF80B200095022342EA94
:100A70000605217803AA0D488DF80C708DF80D50ED
:100A800001F0ECFD04B0BDE8F087002300932323C0
:100A900021788DF80C300548022303AA8DF80D80CB
:100AA000032501F0DBFD4FF00F0877E76C0900200C
:100AB0002DE9F0410178044684B011B91C23194690
:100AC000037001260D23002503AA8DF80C30514830
:100AD0003346009601F0C2FD009533464D4821781B
:100AE0000DF10B0201F0C2FD9DF80B702A2F03D00F
:100AF000284604B0BDE8F0814FF002082046414688
:100B0000A4F80180FFF7EAFD2046A178FFF772FE06
:100B10000B23009621788DF80C3003AA33463D480C
:100B200001F09CFD009533463A4821780DF10B0207
:100B300001F09CFD9DF80B309B071FD000963346BB
:100B4000217803AA33488DF80C7001F087FD0095D9
:100B5000334621780DF10B022E4801F087FD9DF8F8
:100B60000B20009522F001028DF80D2043462178DC
:100B7000284803AA8DF80C7001F070FD01252A2683
:100B8000002721782B4603AA009522488DF80C6097
:100B900001F064FD00972B4621780DF10B021D48F2
:100BA00001F064FD9DF80B2000972A4321788DF811
:100BB0000D20022303AA17488DF80C6001F04EFDAA
:100BC0008022204611460823FFF79CFE00952B4605
:100BD000217803AA0F488DF80C6001F03FFD0097C3
:100BE0002B4621780DF10B020A4801F03FFD0097DA
:100BF00021789DF80B40022303AA2C4305488DF869
:100C00000C608DF80D4001F029FD284604B0BDE8C8
:100C1000F08100BF6C09002001F03ABE10B44FF41F
:100C200080740C4B53F8202003EB8003C00082F04B
:100C3000400200F1804003F5805C02F0C00200F544
:100C4000203003F54053CCF8002041601C605DF873
:100C5000044B70470480034010B4084CC90041EABB
:100C6000820154F8202004EB8003514003F58053A7
:100C700001F00C015DF8044B1960704704800340DB
:100C800030B44FF0000343EC440043EC4000052532
:100C90004FF480740B4BC20053F8201003EB80001C
:100CA00081F0400102F1804303F5203301F0C002DE
:100CB00000F5805100F540500A605D60046030BC72
:100CC000704700BF048003400FB400B583B0049C9C
:100CD000074801F033FA3CB105A92046019101F023
:100CE000CFF8044801F02AFA012001F0E1F800BF32
:100CF000E0280010F028001070B58646EFF310854C
:100D000072B6124CD4E8CF6F0120002EFAD1C4E89D
:100D1000460F002EF6D1BFF35F8F4FF0010CC808CD
:100D200001F007030CFA03F31EF800C01CEA0306E7
:100D300008D14CEA030C0EF800C0C4E88F6F85F3AD
:100D4000108870BD1046FFF7BFFF00BFC30C002026
:100D5000044A1078431CDBB2182B28BF10231370F1
:100D6000704700BFF00800204FF0E022936843F086
:100D700000539360704700BF0021044B03F1200231
:100D8000C3E88F1F01339342FAD17047B80C00209B
:100D90004FF0E0234FF08032C3F80024C3F804245E
:100DA000C3F80824C3F80C24C3F81024C3F814248F
:100DB000C3F81824C3F81C24C3F82024C3F824243F
:100DC000C3F82824C3F82C24C3F8302462B6704733
:100DD000012300F01F029340400941B1800000F15F
:100DE000604000F56140C0F8803103607047024AFE
:100DF000203042F82030704700E100E0F8B50D46A1
:100E0000EFF3108772B6124ED6E8CF2F0123002AD7
:100E1000FAD1C6E8423F002AF6D1BFF35F8F0D4BEF
:100E200000F110049B680C4A53F82430934203D01D
:100E3000994201D000F00CFF064B9B6843F8245008
:100E4000BFF35F8F0023C6E88F3F87F31088F8BD9C
:100E5000C10C002000ED00E0110100102DE9F04F61
:100E600083B0EFF3108A72B6714ED6E8CF2F01230C
:100E7000002AFAD1C6E8423F002AF6D1BFF35F8FBD
:100E80006C4B00F110089B686B4A53F82850954250
:100E900045D08D420C4650D0684FEB1B2F2B3ED8CF
:100EA00001214FEA50194FEA890909F1604909F512
:100EB000614900F01F0301FA03F0D9F80030C9F8C6
:100EC000800000EA030BBFF35F8FEFF30581C9B227
:100ED000002934D0884505D0CDE9001000F0B8FED7
:100EE000DDE9001025F0010EDEF808C0644505D1EB
:100EF00089E0D3F808C0644531D09E469EF90620AB
:100F000002EB4203002A07EB8303F2DA644561D067
:100F1000BBF1000F20D0C9F88001C9F80000454B93
:100F20009B6843F82850BFF35F8F0023C6E88F3FCC
:100F30008AF3108803B0BDE8F08F1546EFE725F07F
:100F4000010EDEF808C06445D8D19EF9064073460C
:100F5000002C08DA154646E0C9F88000DFE793F96F
:100F60000640002C37DB04EB440C07EB8C0C9CF8A0
:100F70000710DCF80820D9719A609CF906206100FE
:100F8000002A9A713DDBBCF804E05FEA4E5E05D5AD
:100F90000EF5FF1E0EF5FF5E0EF11F0E6FF0070C33
:100FA0000A194FEA6E5E920002EB4E0208323A4492
:100FB000ACEB030C6244C2F34A026FEAC2426FEA2E
:100FC000D2429A801E4B21441A7807EB81011C7093
:100FD0008A719DE77346D9B9FF228EF806204BF639
:100FE0000152AEF80420164C4AF6AA2294F800C02A
:100FF0001946C91B49414A43120D83F806C02270A5
:1010000086E7104ADDE79EF906407346002CAADA0F
:101010000D4A0E4CD21A083AC2F30A316FEA015156
:101020006FEA115144EA5202DA80998070E700BFFA
:10103000C10C002000ED00E011010010F4080020B8
:10104000640D002001BDFFFF2E09002000F8FFFF06
:10105000F0B5EFF30585EDB2EFF3108C72B62649CB
:10106000D1E8CF2F0123002AFAD1C1E8423F002A5C
:10107000F6D1BFF35F8F214E40F0010EB4684AF6FF
:10108000AA2354F825701E4A0446A41A64416343F7
:101090001B0D77455BB21BD092F906409C421CD0D9
:1010A00092F912409C4223D092F91E409C4221D0DA
:1010B00092F92A409C4208BF03240FD0114A002411
:1010C000157813708571C1E88F4F8CF31088F0BDCF
:1010D000B2680D4C42F82540F0E7002404EB4404CC
:1010E00002EB8402FF2494714BF601549480E5E7EF
:1010F0000124F3E70224F1E7C10C002000ED00E039
:10110000F4080020640D002011010010014B0B4475
:1011100003607047B80C002070B5104C104DAC4205
:101120000ED2FF26236863B1FFF712FE0146204668
:10113000FFF7ECFFA680BFF35F8F0834AC42F1D31A
:1011400070BDFFF705FE01462046FFF7DFFF267161
:10115000BFF35F8F0834AC42E4D370BD7409002044
:10116000840900200D4B1A68EFF3108172B6D2E8A3
:10117000CFCF0120BCF1000FF9D1C2E84C0FBCF178
:10118000000FF4D1BFF35F8F00221B68C3E88F2FDD
:1011900081F3108840BF002000217047540D0020CB
:1011A0002DE9F04F2DED028B85B0EFF30583DBB217
:1011B000103B9A0818BF01224FF0010103F0030B06
:1011C00018BFAF4DAF4B08BFAF4D0BEB820253F8CA
:1011D000226001FA0BF205F541539FEDA78B0192B6
:1011E0005A602FE0B3881C0440F19380B379002B40
:1011F00040F0DD80B6F90820002AC0F21E81736934
:1012000002EB420203EBC203D3E90247B7F1FF3F0F
:1012100008BFB4F1FF3F0ED005EB8B01AB6A0A6942
:10122000D21AE31A934205D301232A6A03FA0BF375
:10123000134200D10C61284600F038FBA042B941AE
:10124000C0F2FB80B6F90830019A002B0093EA63E4
:10125000C8DBD6F8148003EB4309284608EBC9071E
:10126000D7E9024A00F022FBA04271EB0A01B9DB88
:10127000BAF1000FC0F2C380D7E90431834A934228
:1012800000F0ED807A88B6F9080092B242EA004098
:10129000984702460B4652EA030100F0B080002B4B
:1012A00080F2D180B4EB020E6AEB030A38F93930D0
:1012B000C7E902EA002B95DB716903EB430201EBFE
:1012C000C202D2E90270BE457AEB000C4FEA43023B
:1012D00088DBB4462CF8083F06E003EB430001EB43
:1012E000C0005A00D0E90270BE451A447AEB0000F3
:1012F00001EBC20404DB31F93230A446002BECDAF6
:1013000028F83930009BACF80030B3881C043FF556
:101310006DAF3369EFF3108272B6D3E8CF0F0121BE
:101320000028FAD1C3E8401F0028F6D1BFF35F8F31
:101330004FF6FF74B0880023316900B2B480C1E871
:101340008F3F82F310889842FFF650AF0746A946B8
:10135000746906F1080807EB470E04EBCE03D3E9E6
:101360000250B6F90830C446002B13DBB246009792
:1013700004E034F936309446002B09DB03EB4306D6
:1013800004EBC602D2E90271BD4270EB0101F0DA52
:101390005646009FACF8007034F93E7024F83E3099
:1013A000002FD8DAB3794D46002B3FF423AF00234A
:1013B000B371B6F9083006F10808581C3DD01A463A
:1013C000776903E08046591C3FF416AF03EB4301F5
:1013D00007EBC100B0F802C01C461CF4004F9E464B
:1013E00037F93130EED0944280ED028B05D0A8F869
:1013F0000030328927F8312034817246E3E738F82B
:10140000393033813369EFF3108272B6D3E8CF0FEE
:1014100001210028FAD1C3E8401F0028F6D1BFF30C
:101420005F8F7388316928F83930009B73800023FF
:10143000C1E88F3F82F31088D4E640BF05B0BDEC11
:10144000028BBDE8F08F2846CDE9022300F02EFA8A
:10145000029A039B10EB020E43EB010A26E70846B3
:101460000B69029198470028C9D00299D1E900235D
:1014700011E700BFAFF30080FFFFFFFFFFFFFFFF9B
:1014800000800B40300D002000000B40A111001027
:101490002DE9F84F364C25692DB1BDE8F84F0A21EA
:1014A0003448FFF733BEDFF8E4800321404600F004
:1014B000EBF90326C4F80C80FFF74AFC4FF0504CC0
:1014C0002D4B267003442361DCF800300F2163703C
:1014D000636961801D834FF00405A3F878504FF0D5
:1014E0000505A3F890504FF00605A3F8A8504FF05B
:1014F00007050E214FF6FF7208274FF00A0EA3F8DA
:10150000C0504FF001094FF00C0C4FF0020B4FF0A0
:10151000090A0D204FF00B05A3F868111749A280A6
:10152000A3F808E1A160A3F848B0A3F8F0A0A3F8DD
:101530002051A3F838C1A3F85001A3F83090A3F8C4
:101540006060A3F8D8701A800D4B3046C8F8207040
:101550000C49DC60FFF752FC49463046FFF738FC87
:10156000094B0A211F640348BDE8F84FFFF7CEBDC1
:101570003C090020540D0020B80C0020FFFF100093
:10158000300D0020A111001000200B4000000B4086
:101590000146F0B50069EFF3108772B6D0E8CF5F6F
:1015A0000124002DFAD1C0E8454F002DF6D1BFF33C
:1015B0005F8FB1F902E04C690EEB4E0CBEF1000FEB
:1015C0004FEACC05086904EBCC0C3CDB665B4E8033
:1015D0000026C0E88F6F87F31088BCF80200CCE9C2
:1015E00002230130C0F30E00012838BF0120059B03
:1015F000ACF80200CCF81030069B40EA0E40CCF864
:1016000014300B69EFF3108272B6D3E8CFCF012705
:10161000BCF1000FF9D1C3E84C7FBCF1000FF4D14D
:10162000BFF35F8F8B886353A1F804E00B69C3E8B5
:101630008F6F82F310880122CB68097803F501537C
:101640008A405A60F0BD0023C0E88F3F87F31088BE
:101650004FF0FF30F0BD00BF03464089B0EB214F93
:1016600037DD58690A1402EB420210B500EBC200E4
:101670001C69EFF3108C72B6D4E8CFEF0122BEF1F3
:10168000000FF9D1C4E84E2FBEF1000FF4D1BFF323
:101690005F8F428889B292B28A4207D000221B69CA
:1016A000C3E88F2F8CF31088002010BD42F4004255
:1016B00042800121002218699971C0E88F2F8CF3B4
:1016C00010881C78DA68084602F50153A140596079
:1016D00010BD0020704700BF2DE9F04182B00646E2
:1016E00000F0ECF84FF47A7304464FF0FF306FF0DF
:1016F0000042E6FB0341A04272EB01033ABF0446FD
:1017000015460D46A61F45F1FF37B44275EB07039A
:101710003CBF0026374600F0D1F8301A67EB0101D4
:10172000012871F1000106DA2046294602B0BDE821
:10173000F04100F0FBB800F0C1F8864267EB010110
:1017400000290ADB0021174B3246009316483B461E
:101750000191FFF71DFF0130E6D04FF0000C134A56
:101760001349536A9F4204D8906AB042DCD29F4228
:10177000DAD10B68EFF3108072B6D3E8CF8F5FF049
:10178000010EB8F1000FF8D1C3E848EFB8F1000F2F
:10179000F3D1BFF35F8F0B68C3E88FCF80F310885E
:1017A00020BFDEE7651100103C09002000000B405F
:1017B000540D00202DE9F04306460D4683B0EFF3AB
:1017C0000584E4B23CB12D4B5A6AAA421CD20020D7
:1017D00003B0BDE8F0832A4FD7F80C9097F800804B
:1017E000484600F063F808F1040859F828301B1A3D
:1017F000301A65EB0101984271F1000110DB20BF46
:101800001E4B5A6AAA42E2D314BF012400249B6AE9
:10181000B34234BF204644F0010003B0BDE8F0837A
:1018200000F04CF8864265EB0101002914DB154BF2
:101830003846CDE9003432462B46FFF7A9FE011E9B
:101840000ADD0E4B5A6AAA4216D39B6AB34211D3E1
:101850000B48FFF701FFB6E7084B5C6AAC42B6D312
:10186000641B18BF01249B6AB34234BF204644F076
:101870000100ADE7AA42EBD120BFE9E700000B4031
:101880003C0900206511001010B4054B054C064AB8
:10189000A04214BF1846581C5DF8044BFFF72CBA41
:1018A000F80C002000800B40F42800100346416A29
:1018B0000A46986A596A8A42FAD17047034B596AB4
:1018C0000A46986A596A9142FAD1704700000B4063
:1018D00030B4154A536A9C46946A536A6345FAD1F8
:1018E000021959414FF0000528BF01250E4B5B6AD4
:1018F000B5B15A1C08BF1A4608D04FF0FF310A464E
:101900000948436A8B42FCD38B4207D1064902E067
:10191000486A984202D1886A9042F9D330BC704735
:101920009942EDD8F0E700BF00000B40074A536A28
:101930009942FCD8994207D1044B02E05A6A91427D
:1019400002D19A6A9042F9D8704700BF00000B405C
:10195000F8B5054606200E4600F0E4F8002842D00F
:10196000354A3648954214BF4FF080624FF000620E
:10197000334B344902601A608C6832EA0404FBD1AC
:101980002D4B4FF48071EB1AB3FA83F32E4A5B09A7
:10199000062022F8131000F0C5F8C300B3FBF6F3DD
:1019A0000133DA0920D1402601216962AA622F6B36
:1019B000FB0722D42B46002253F82C1F062003F5E8
:1019C000805422602F6300F0ADF840F20131032211
:1019D0008000B0FBF6F0EB6A83F0700303F07E0347
:1019E00023602963AA64F8BD4FF6FE718A421BD9B1
:1019F00022464FF6FF71154ED7E740F2013205F54A
:101A000040531A636B6AAC6A062004EB831400F03F
:101A100089F80F4BA402A3FB0023DB0A0021B4FBCF
:101A2000F3F0FFF755FFC5E7C3F34503114603EB9A
:101A300082161A46B9E700BF008007400020024026
:101A400000300240000002405C0D0020C0FF3F005B
:101A5000757B2B8F00EB400C4FEA8C0C0CF1804C0B
:101A60000CF5803CF0B51646DCF80420051FB2F5F5
:101A7000803F38BF4FF48032EDB238BFCCF804203D
:101A8000012D2AD94FF40067254C0CF54052176000
:101A900054F82020B2B9DCF80020012D82EA461269
:101AA00002F0E0020CF5805632602AD94FF4006152
:101AB00044F820304FF480330CF500521160CCF81C
:101AC0000430F0BD6769B7FBF2FE0EF1010E0EEBBC
:101AD0004E0EBEF1030EFCD2DDE70129D2D1032464
:101AE0000CF540521460DCF80820D207FBD5DCF876
:101AF00000200B4C82EA461202F0E0020CF5805600
:101B000032600122DCF800504D4005F003053560DD
:101B100002FA01F1DCF808200A42FBD0C6E700BF58
:101B2000FC0C0020014B53F820007047FC0C0020F7
:101B300070B4039D04682D0345EA03451B4B002C3C
:101B4000B3FBF1F3B2FBF3F61FDB194A194B9042DA
:101B500014BF4FF480424FF40042174C1A6003F553
:101B600080531A60A36832EA0303FBD1212200F5F7
:101B700040530433016086601A600268002AFCDA70
:101B80000822C5601A6070BC7047036803F03F0309
:101B90008B42DAD18368C3F30B03B342D5D1C36858
:101BA00003F4EE23AB42D0D1EDE700BF001BB7003A
:101BB000008005400020024000000240012300EBAD
:101BC0004000800000F1804000F584104160036017
:101BD000704700BF0023DB8A002242E800F2520275
:101BE00001D4102118470421184700BF034AD2F836
:101BF0002838002BFBD0BFF35F8F704700000E40EA
:101C00000021044B044ABFF35F8F43F8041B934247
:101C1000F9D170470C080E402C080E4010B44FF458
:101C20008D704FF42A64064A064B07491460D06051
:101C300019605368002BFCDA5DF8044B704700BF55
:101C40000080044000A0044000B0FA00704700BFCC
:101C500008B50148FFF738F81829001038B5054CC9
:101C6000054DAC4204D254F8043B9847AC42FAD339
:101C700038BD00BF98280010D828001010B40748BD
:101C8000074C084B084A094904601A608B6832EA1D
:101C90000303FBD15DF8044B704700BF00200240F6
:101CA0007F3BEFEF00300240F6FFF30300000240FD
:101CB000044BDB6CB3F5004F03D14FF48022024B91
:101CC000DA64704700001150002011504FF0E022FC
:101CD000044BD2F8881D0B43C2F8883D10EE300447
:101CE000704700BF030330006FF06041044B054AAA
:101CF00019609368DB4333F06043FAD1704700BF4B
:101D0000003002400000024010B545F25320FFF7BA
:101D100061FFBDE8104003460420184710B545F2A6
:101D20005320FFF757FFBDE8104003460120184736
:101D3000FFF722B81449154B70B55C1AA610442E53
:101D4000324628BF4422124D9200284600F0DEFCA5
:101D5000B4F5867F13D80F4AC6F1440012D02B1970
:101D6000410803EBC101C3E9002208338B42FAD1D9
:101D7000C30704D520F00100304445F82020064B6D
:101D80009D6070BD4320F8E70000001010010010B6
:101D9000000000201101001000ED00E0002370B5EC
:101DA0002B4C82B0C4F88430FFF738FF0122294B56
:101DB000DA63636C012BFCD10321264A244B1163A7
:101DC0009C6B012CFCD10226052521460523224AC5
:101DD00022480096FFF7ACFE21462B46204A2148B8
:101DE0000095FFF7A5FE0022042031461E4BFFF7A9
:101DF00031FE2146284600221C4BFFF72BFE002215
:101E0000082011461A4BFFF725FE00220920114633
:101E1000174BFFF71FFE002206201146134BFFF75A
:101E200019FE0022114B07201146FFF713FE042074
:101E3000FFF778FE00240F4BA3FB0035AD0CE0B29A
:101E400029460134FFF7BAFE062CF8D102B070BD66
:101E50000000014000300140002F6859000005409B
:101E6000008C864700800540001BB70080D1F00839
:101E7000006CDC0283DE1B4300B9704700F01CB924
:101E800010B5094B84B01C684CB1034600914FF06B
:101E9000FF3203A90548A047012004B010BD00F09F
:101EA0004DF9204604B010BD2C0D0020791E001005
:101EB00000BEFDE708B5FFF7FBFF00BF38B5064CD5
:101EC000064DFFF7CBFEAC4204D254F8043B9847D2
:101ED000AC42FAD338BD00BFD8280010E02800106B
:101EE00003680846114618472DE9F0411546427D22
:101EF00007468846002A46D0002D1DDD0B780A2BA8
:101F000023D0012D4FF0000C18D04646012416F8BE
:101F1000012F21460A2A04F1010422D0A542F6D15C
:101F200065450BDC08EB050313F8013CA3F10D0339
:101F3000B3FA83F35B093B75BDE8F0813B68A5EB21
:101F40000C0108EB0C009847ECE7037D002BD8D17F
:101F5000036802210F489847012DE3D04FF0010C90
:101F6000D3E716F8013C0D2BD8D08C4508EB0C00BC
:101F7000A1EB0C0101DA3B689847022105483B6858
:101F80009847A446CAE7294640463B68BDE8F04169
:101F9000184700BFF82900102DE9F04782B00D4620
:101FA00091461C460646FFF789FC4FF0FF3C6FF058
:101FB00000472E4A821841F10003944577EB030154
:101FC0003CBF62463B462A4800F05AFC6B1C8046E8
:101FD00040D00CB3274F284B1C68B4B1B9F1000FA7
:101FE0001CD1DFF89C9001E0246974B12368002BB8
:101FF000FAD0D9F800300BB19C42F5D120462A46E0
:102000003146B8472469002CF0D1B8F1000F26D131
:10201000284602B0BDE8F087184FDCE74FF00A0A07
:10202000DFF85C9002E02469002CEED02368002BDE
:10203000F9D0D9F800300BB1A342F4D12A46314689
:102040002046B847012220460DF107018DF807A070
:10205000B847E8E7304600F011FB0546B9E7044809
:1020600000F00AFC284602B0BDE8F08740420F00AD
:102070007C090020E91E0010240D0020E11E001044
:10208000280D0020084A136823B90AE003F1100262
:102090001B6933B18342F9D129B9186910601961FC
:1020A000704701B110607047240D002008B500F0A2
:1020B00033F9012008BD00BFF0B583B006468DF8A6
:1020C0000700FFF7FBFB4FF0FF356FF00044174AA6
:1020D000821841F10003954274EB03013CBF234693
:1020E0002A46134800F0CCFB124B07461C689CB1F3
:1020F000114D01E024697CB12368002BFAD02B68D4
:102100000BB19C42F6D1204601220DF10701FFF7E9
:10211000EBFE2469002CEFD117B9304603B0F0BDB7
:10212000034800F0A9FB304603B0F0BD40420F0069
:102130007C090020240D0020280D002038B504461D
:1021400000F09CFA012305461A4620462946FFF76F
:1021500023FF084B1C682CB163682BB19847246996
:10216000002CF9D1284638BD2469002CF4D128462A
:1021700038BD00BF240D0020B1F1000C1DDD0F4A59
:102180000F4B126830B5D31AB3FA83F30D240D4DFB
:102190005B09411E35F913E08C4411F8010F8645A7
:1021A00006D093699B06FCD461451060F5D130BD23
:1021B00093699D06FCD41460F3E77047600D00201E
:1021C000008007405C0D0020224BB1F1000C10B4E0
:1021D0001C682EDD034600201F4A591E12689369B1
:1021E000DB0617D401309369DB06FCD41368844501
:1021F00001F8013FF3D14CB150211346916353F8DC
:10220000342F02F0380203F580531A6060465DF8FF
:10221000044B70474CB150211346916353F8342F4F
:1022200002F0380203F580531A6078B15DF8044B70
:1022300070475CB1084B50211A681346916353F8FC
:10224000342F02F0380203F580531A606FF0020059
:10225000DDE700BFF00C0020600D0020054B1B687F
:1022600033B10021044A0548126800689163184799
:10227000704700BFF00C0020600D0020F40C00201F
:10228000024B1A6893691B07FCD47047600D00204D
:10229000F8B51C4F1C4D3A681C4EAA4214BF2125AC
:1022A00022250446D6F800C018B1BCF1000F10D0AA
:1022B000F8BDBCF1000FFBD0014690632846FEF745
:1022C00087FD28461249FEF7C9FD124B34601C6099
:1022D000F8BD0B460F4A0E49306028461360FEF7E2
:1022E0008DFD01212846FEF773FD3A685021134603
:1022F000916353F8342F02F0380203F580531A60CB
:10230000F8BD00BF600D002000800740F00C0020E9
:102310005D220010F40C002010B50E490E4C0F4841
:102320000F4A104B007821600020022112781B78A0
:10233000FEF774FC02210120FEF770FC4FF4E1313E
:102340002068FFF705FBBDE8104001210648FFF7B4
:1023500099BE00BF00000740600D0020482A001011
:10236000442A0010402A001054090020384B2DE95F
:10237000F047984214BF4FF400234FF480230746E0
:102380000E46344D344C354A2B602360956833EA51
:102390000505FBD10620FFF7C5FB39464FF0020AC1
:1023A00051F804EF4FEAD6594FEA462C01F5405850
:1023B00063464A4654460EEA0A0EC8F800A008E0F2
:1023C00013EB0C0304F1020442EB0902B4F5807F25
:1023D00003D0984275EB020AF2D24FF48073C4EB3B
:1023E000042201E0012B30D0B0FBF2FC6645994697
:1023F000A2EB040203F1FF33F4D209FB04F91D023E
:102400003C6102243B4603263A6801F500516A40CC
:1024100007F5805C02F47F42CCF80020C1F800E0B0
:102420007D68C8F8004053F8242B254082F007024D
:1024300002F0CF0203F50053CCF80020B0FBF9F016
:102440000D601E600C60BDE8F087A146D8E700BFB4
:10245000000008400020024000300240000002401E
:1024600070B5002501260468002BE566844661608E
:1024700028469DF810E0E66616DD5D1E616F1029A6
:10248000FCD000B30021A84204BF8EF0010641EA4F
:10249000462141F480712161D4F88010616B4906B6
:1024A00005D54FF0FF30636D8CF804E070BDA16F6F
:1024B0000029F1D021690130834202F8011BF3D0D9
:1024C000DCF80040DAE79CF804108902DBE700BF83
:1024D0002DE9F04100270124944602680546D7669D
:1024E0005160D4661C1E38469DF818601EDD29799F
:1024F00086F0010789027F0204F1FF3E70450CBFA0
:10250000B8464FF000081CF8013B0B4343EA0803B0
:102510001361536BD906FCD5D2F8801049B97045C8
:102520001CD0013084424FF00001E7D12E71BDE88C
:10253000F0814FF00108536D536B9B05FCD5136E72
:10254000B8F1000FEDD069B1CB070BD411F0080F33
:1025500008BF4FF0FF302E71BDE8F081002EE0D1B2
:10256000B046E9E74FF0FF30E0E700BFF8B50446BA
:1025700005200F46FFF7D6FA00EB570CBCFBF7FC23
:10258000204D0CEB4C02A5FB02651F49AE088F42A3
:1025900000EB4003ACEB95052ED801F1D64101F5D7
:1025A000A10101F62C01A1FB03139B0D01330021B6
:1025B0004F2A98BF01222468B0FBFCF0E166216835
:1025C00004F5805781F0040101F00601396088BFED
:1025D0000C49E56184BFA1FB021292092662C4F88E
:1025E000A0202246012152F87C5F6B409BB202F58D
:1025F00080521360E166F8BD0449A1FB0313DB0DB3
:102600000133D4E7CDCCCCCC3F420F00893BE6551B
:102610000E4A30B4904214BF202210220C4D0D4BB4
:102620000D4C2A601A60A36832EA0303FBD140F222
:102630006515032402680371D3661560D363936341
:10264000C2F8884030BCFFF791BF00BF6C09002082
:1026500000200240003002400000024010B49DF80B
:10266000044001945DF8044BFFF732BF10B49DF8AD
:10267000044001945DF8044BFFF7F2BE20F0030123
:1026800010F00300C0F1000051F8043B00F1040C0D
:102690004FEACC0C6FF000021CBF22FA0CF213437D
:1026A0004FF0010C4CEA0C2C4CEA0C4CA3EB0C0246
:1026B00022EA030212EACC1204BF51F8043B0430B0
:1026C000F4D0C2F1000102EA0102B2FA82F2C2F1D0
:1026D0001F0200EBD200704738B5074D074C2C1B8A
:1026E000A41005D0013C55F8043D9847002CF9D1C1
:1026F000BDE8384000F0BCB8E0280010E028001029
:10270000002301461A46184600F076B8844641EA8E
:10271000000313F0030349D1403A23D30B6803604D
:102720004B6843608B688360CB68C3600B6903614F
:102730004B6943618B698361CB69C3610B6A036237
:102740004B6A43628B6A8362CB6AC3620B6B03631F
:102750004B6B43638B6B8363CB6BC3634030403104
:10276000403ADBD230320BD30B6803604B684360D6
:102770008B688360CB68C36010301031103AF3D29D
:102780000C3205D351F8043B40F8043B043AF9D22B
:10279000043208D0D2071CBF11F8013B00F8013BFE
:1027A00001D30B8803806046704700BF082A13D30B
:1027B0008B07B1D010F00303AED0C3F10403D21ADB
:1027C000DB071CBF11F8013B00F8013BA4D331F833
:1027D000023B20F8023B9FE7043AD9D3013A11F8B3
:1027E000013B00F8013BF9D20B7803704B78437042
:1027F0008B7883706046704770B4164D2C681CB39C
:1028000065681F2D23DC38B96B1C0020023563601E
:1028100044F8251070BC704704EB850C0228CCF8F6
:1028200088204FF00102D4F8886102FA05F246EAE6
:102830000206C4F88861CCF80831E5D1D4F88C31AF
:102840001343C4F88C31DFE7034C2C60D8E74FF01A
:10285000FF30DFE7B40C0020240B0020024B13B143
:102860000248FFF74DBF704700000000D926001056
:10287000F8B500BF000000005FF800F01D04002064
:102880005FF800F0B50300205FF800F05904002065
:102890005FF800F065020020091D00107D1C00108B
:1028A000B11C00109D1D0010E91C0010011C00103F
:1028B000311D0010ED1B001019110010351D001006
:1028C000911400104D1C00101D1D0010CD1C001097
:1028D000690D0010910D00105D28001055020010C8
:1028E0000A2A2A2A2050414E4943202A2A2A0A002D
:1028F0000A000000486172647761726520616C6152
:10290000726D20256420616C726561647920636C4E
:1029100061696D65640000004861726420617373D1
:102920006572740052656C6561736500626F6F74E7
:10293000325F77323571303830000000302E310090
:10294000322E322E300000007069636F32000000BA
:10295000747261666669635F6C6967687400000021
:102960005365702032382032303235005541525490
:1029700020737464696E000055415254207374646E
:102980006F7574005541525420737464696E202F22
:10299000207374646F75740006005250D3F0754252
:1029A0002429001006005250E182887F2C29001053
:1029B000060052503ABCA9113C29001006005250A2
:1029C000ABB360534029001006005250BBFF3CB629
:1029D0004829001006005250861C0302502900109E
:1029E000060052505422A29D60290010050052504A
:1029F000DE65F468D43200100D0A00000600525063
:102A000053B4F4A1842900100800525012000000B1
:082A1000080052509210000072
:082A1800F4FCFF7F0100000047
:102A200098290010A4290010B0290010BC2900101A
:102A3000C8290010D4290010E0290010EC2900104A
:0C2A4000102A0010082A0010FC290010C9
:102A4C0000B5EFF3108E72B62B4A2C4B1360136843
:102A5C009907FCD411682A4841F00801264B1160F3
:102A6C005060196811F00201FBD18C469F229868C6
:102A7C00186820F008001860186840F0080018600A
:102A8C001D4B5A601A681205FCD5186810F002002C
:102A9C00FBD1052905D0062907D09A68FF22013100
:102AAC00EFE79A685FFA82FCF8E799681A68BCF15C
:102ABC005D0F22F009021A6003D08EF310885DF8C6
:102ACC0004FBCBB2262BC1F342110FD002290DD03F
:102ADC0049B101290CBF4FF480004FF480108EF3E4
:102AEC0010885DF804FB4FF40010E6E74FF400008B
:102AFC008EF310885DF804FB00000D400100800788
:102B0C00F5000A000000000010B5052082B000F0AE
:102B1C0083FB1B4B1B490344A1FB03135B0E0246B7
:102B2C008DF80530EFF3108472B6002312A1D1E9B1
:102B3C00000100F071F9144B144A0344B2FBF0F29B
:102B4C00B3FBF0F3D2B2DBB28DF806208DF8073070
:102B5C009DF806209DF807300D491B0343EA4243BC
:102B6C009DF80520134343F0C34343F480730B6279
:102B7C0084F3108802B010BD0080C6A47E8D0300C3
:102B8C003F357F067986CE4E7FF0FA0240597307A7
:102B9C0000000D4070B5092100F03AFBFFF750FF23
:102BAC00044600285DD0EFF3108072B62E4A2F4BEE
:102BBC00136013689E07FCD4662513682A4943F0FA
:102BCC000803136055600B689D07FCD414230A6836
:102BDC0022F008020A6000BF013BFCD19921224A75
:102BEC009368136843F008031360516013689907E6
:102BFC00FCD41423116821F00801116000BF013BC3
:102C0C00FCD13521184A9368136843F0080313600C
:102C1C00516013689B07FCD41423116821F0080140
:102C2C00116000BF013BFCD10F4DAB682B6823F04A
:102C3C0009032B6080F31088FFF766FFEFF3108118
:102C4C0072B60B4BEB266B6241F2AA203823094A71
:102C5C00AE62E8622B63136843F40063136081F384
:102C6C001088204670BD00BF00000D400100800799
:102C7C00AA12060000800C404FF050412DE9F041A3
:102C8C000027044616461D46D1F8008008E0C1E82E
:102C9C008F7F8CF310883046294600F0B5FAE8B9DE
:102CAC002168EFF3108C72B6D1E8CF2F0123002AE4
:102CBC00FAD1C1E8423F002AF6D1BFF35F8F94F9F5
:102CCC0004302168002BE2DA002384F80480C1E888
:102CDC008F3F8CF310880120BDE8F0810020BDE807
:102CEC00F08100BF30B50468EFF3108C72B6D4E8F5
:102CFC00CFEF0125BEF1000FF9D1C4E84E5FBEF154
:102D0C00000FF4D1BFF35F8F90F904400568002CDD
:102D1C0010DB0021C5E88F1F8CF310884FF0504555
:102D2C0095F90050A54201D1084630BDBDE83040B0
:102D3C00FFF7A2BF4FF05042126800230271C5E8A2
:102D4C008F3F8CF31088012030BD00BF0368EFF378
:102D5C00108272B6D3E8CFCF0121BCF1000FF9D1AC
:102D6C00C3E84C1FBCF1000FF4D1BFF35F8F4FF0E1
:102D7C00FF0C0023016880F804C0C1E88F3F82F388
:102D8C00108840BF704700BF844610466AB30139B3
:102D9C0000B501EB020EDCF80C309B07FBD511F8EB
:102DAC00013F7145CCF80830F5D1DCF80C305907EF
:102DBC0005D5DCF80830DCF80C305907F9D4DCF810
:102DCC000C30DA0606D5DCF80C30DA06F7D401E064
:102DDC00DCF80830DCF80C305B07F9D40123CCF8B4
:102DEC0020305DF804FBDCF80830DCF80C305907B7
:102DFC00F9D4DCF80C30DA0606D5DCF80C30DA063F
:102E0C00F7D401E0DCF80830DCF80C305B07F9D4BF
:102E1C000123CCF8203070477BB972B90029BEBFB2
:102E2C0000204FF0004106E008BF00281CBF6FF0E7
:102E3C0000414FF0FF3000F0E5B9ADF1080C6DE941
:102E4C0004CE002909DB002B1ADB00F035F8DDF885
:102E5C0004E0DDE9022304B07047404261EB41011C
:102E6C00002B1BDB00F028F8DDF804E0DDE9022381
:102E7C0004B0404261EB4101524263EB43037047A3
:102E8C00524263EB430300F017F8DDF804E0DDE990
:102E9C00022304B0404261EB41017047524263EBA4
:102EAC00430300F009F8DDF804E0DDE9022304B087
:102EBC00524263EB430370472DE9F04F8C46099E59
:102ECC0004460F46002B48D18A4215465ED9B2FA09
:102EDC0082F33BB1C3F120029F409D409C4020FAFD
:102EEC0002F217434FEA154E1FFA85FC220CB7FB72
:102EFC00FEF10EFB117701FB0CF042EA0742904207
:102F0C0007D9AA1801F1FF3702D2904200F258817A
:102F1C003946121AA4B2B2FBFEF00EFB102200FBD3
:102F2C000CFC44EA0244A4450BD92C1900F1FF32E5
:102F3C002CBF01270027A44502D9002F00F04381A4
:102F4C00104640EA0140A4EB0C0400211EB1DC4009
:102F5C000023C6E90043BDE8F08F8B4206D90EB1C1
:102F6C00C6E9000100210846BDE8F08FB3FA83F1F1
:102F7C00002951D16345C0F01681824240F2138181
:102F8C000846002EE7D0C6E90047E4E7002A00F027
:102F9C00AF80B2FA82F3002B40F0C2808A1A4FEA5B
:102FAC00154EAFB20121200CB2FBFEFC0EFB1C2215
:102FBC0040EA024207FB0CF090420ED9AA180CF121
:102FCC00FF382CBF4FF001094FF00009904203D994
:102FDC00B9F1000F00F0F080C446121AA4B2B2FB93
:102FEC00FEF00EFB102200FB07F744EA0244A74256
:102FFC000ED92C1900F1FF322CBF4FF0010E4FF0FF
:10300C00000EA74203D9BEF1000F00F0D28010468B
:10301C00E41B40EA0C4099E7C1F120058B400CFA07
:10302C0001F400FA01F922FA05F72CFA05FC8A40A2
:10303C001F4320FA05F3380C23431FFA87FE1C0CA0
:10304C00BCFBF0F800FB18CC44EA0C4408FB0EFC6B
:10305C00A4450ED93C1908F1FF3A2CBF4FF0010BD7
:10306C004FF0000BA44503D9BBF1000F00F0B88062
:10307C00D046A4EB0C041FFA83FCB4FBF0F300FB6A
:10308C00134403FB0EFE4CEA0444A6450ED93C192E
:10309C0003F1FF302CBF4FF0010C4FF0000CA64594
:1030AC0003D9BCF1000F00F09F80034643EA0840AF
:1030BC00A4EB0E04A0FB02EC64457346E04602D37D
:1030CC0007D1F14505D2BEEB02036CEB070C0138BE
:1030DC00E0465EB1B9EB030264EB080404FA05F5B3
:1030EC0022FA01F3CC401D43C6E90054002132E71B
:1030FC0042082F464B08AC4642EAC172AE46C407A2
:10310C00110C92B241EA034142EA0142B1FBF5F1E2
:10311C00B3FBF5F01F23A2EB0C0241EA004142E79E
:10312C009D40C3F1200299409C402CFA02FC4FEACE
:10313C00154E20FA02F2AFB2BCFBFEF80A430EFBAE
:10314C0018CC110C41EA0C4108FB07FC8C4550D9FA
:10315C00691808F1FF302CBF4FF001094FF000093E
:10316C008C4502D9B9F1000F30D0A1EB0C01B1FBA9
:10317C00FEF808FB07FC0EFB181192B242EA014262
:10318C00624534D2AA1808F1FF312CBF4FF0010967
:10319C004FF000096245BED2B9F1000FBBD1A8F1C6
:1031AC0002012A44B7E7841A6CEB0302012017468C
:1031BC00E7E62C4402382BE7ACF1020C2A440CE76E
:1031CC0002392A44A5E62C440238BAE6A5EB0C0CCD
:1031DC00A8F102006144B1FBFEF808FB07FCCAE74A
:1031EC00A8F102083C4444E7023B3C445EE74146FC
:1031FC0091E7A1EB0C014046B1FBFEF808FB07FC84
:10320C00B9E700BF704700BF5FF800F0B5170010BA
:10321C005FF800F01D0C00105FF800F0251B00108B
:10322C001000000000000000000001000000000081
:10323C000000000000000200000000000000000080
:10324C000000030000000000000000000000FF0070
:10325C000000000001B5486801318E4600477046F9
:10326C0009380149884701BD5110001000000000C9
:10327C000000000000000000000000000000000042
:10328C00880900207921001081220010C92100102A
:10329C009122001000000000000100000000094015
:1032AC000000000000000000000000000000000012
:0432BC00000000000E
:1032C000D3DEFFFFFE010000FF01000078CEFFFF0C
:0432D000793512AB8F
:040000051000014D99
:00000001FF
