:020000041000EA
:10000000002008205D0100101B0100101D010010E0
:100010001101001011010010110100101101001058
:100020001901001019010010190100101F01001022
:10003000110100101901001021010010230100100E
:100040001101001011010010110100101101001028
:100050001101001011010010110100101101001018
:100060001101001011010010110100101101001008
:1000700011010010110100101101001011010010F8
:1000800011010010110100101101001011010010E8
:1000900011010010110100101101001011010010D8
:1000A00011010010110100101101001011010010C8
:1000B00011010010110100101101001011010010B8
:1000C00011010010110100101101001011010010A8
:1000D0001101001011010010110100101101001098
:1000E0001101001011010010110100101101001088
:1000F0001101001011010010110100101101001078
:100100001101001011010010110100101101001067
:10011000EFF30580103800BE00BE00BE00BE00BE7A
:1001200000BE00BEF2EB8871F46100102062001086
:10013000A001001090A31AE7D3DEFFFF42012110B7
:10014000FF01000040690000793512AB4FF000005C
:100150001E49086006C881F3088810474FF05040D8
:10016000006810B14FF00000F2E70DA40ECC00299A
:1001700002D000F012F8F9E71549164A002000E015
:1001800001C19142FCD11449884714498847144958
:10019000884700BEFDE701C901C29A42FBD3704700
:1001A000206200101001002068090020786A001009
:1001B0000000082000000820786A001000100820C5
:1001C00000100820000000007047000008ED00E06B
:1001D00068090020BC330220F51F00101D03001029
:1001E000ED1F0010F8B500BF0348044B834202D056
:1001F000034B03B1184770476809002068090020C5
:1002000000000000064B0749C91A891048BF013198
:10021000491003D0044B0BB101481847704700BF89
:1002200068090020680900200000000010B5064C95
:10023000237843B9FFF7D8FF044B13B10448AFF359
:1002400000800123237010BD280B00200000000057
:100250005C60001008B5044B1BB104490448AFF3BF
:100260000080BDE80840CDE7000000002C0B002016
:100270005C600010002400B5124D85B0039401218C
:10028000192000F0B1F94FF4FA6103A804F092FFCD
:100290000021192000F0A8F94FF47A6103A804F0B6
:1002A00089FF0121192000F09FF94FF47A6103A81A
:1002B00004F080FF002328681A461946009405F0D0
:1002C000F7F9DCE724100020002300B585B0029385
:1002D0000121172000F088F94FF47A6102A804F098
:1002E00069FF0021172000F07FF94FF47A6102A81E
:1002F00004F060FF0121172000F076F94FF4FA6155
:1003000002A804F057FF4FF0FF34002203AB114660
:100310001046009405F016F9DAE700BF022400B594
:100320000E4D83B000F026F8CDE900450C4D0023BA
:100330004FF400720B490C4804F07AFD00234FF48F
:1003400000720A49CDE90045094804F071FD04F046
:10035000A3FD4FF47A7001F04DFAFAE72010002067
:10036000241000205C60001075020010686000100E
:10037000C902001080B582B000AF01F033FF192030
:1003800000F0C2FC0121192000F086F9182000F0CD
:10039000BBFC0121182000F07FF9172000F0B4FC0D
:1003A0000121172000F078F9162000F0ADFC0021A3
:1003B000162000F071F9162000F072F90F2000F0FD
:1003C000A3FC00210F2000F067F90F2000F068F96E
:1003D000102000F099FC0021102000F05DF91020A1
:1003E00000F05EF9112000F08FFC0021112000F0D8
:1003F00053F9112000F054F91A2000F085FC002177
:100400001A2000F049F91A2000F04AF91B2000F0E8
:100410007BFC00211B2000F03FF91B2000F040F97D
:100420001C2000F071FC00211C2000F035F91C207C
:1004300000F036F91D2000F067FC00211D2000F0BF
:100440002BF91D2000F02CF9022000F05DFC0021AA
:10045000022000F021F9022000F022F9032000F030
:1004600053FC0021032000F017F9032000F018F9D5
:100470000D2000F049FC00210D2000F00DF90D20A9
:1004800000F00EF90E2000F03FFC00210E2000F0DD
:1004900003F90E2000F004F93549364802F0EEF871
:1004A00001210B2000F0FEFB01210A2000F0FAFBE5
:1004B000092000F029FC0121092000F0EDF80421B9
:1004C000092000F0EFFB092000F09EF8786064211D
:1004D000786800F0A3F80021092000F0A9F80121B4
:1004E000786800F0C5F80C2000F00EFC01210C200B
:1004F00000F0D2F80021092000F0CAF81E4B0022BB
:100500001A601D4800F046F81C491D4802F008FA20
:100510000321142000F0C6FB0321152000F0C2FBCC
:10052000142000F0BDF8152000F0BAF800F0D2F861
:10053000144800F001FB0346002B02D0124B0122AD
:100540001A704FF4E131114801F08EFA02210420B3
:1005500000F0A8FB0221052000F0A4FB082000F019
:100560009FFB03460A4A136000BF0837BD4680BDA3
:1005700040420F00008008401C100020A0860100AF
:100580004C090020F80C0020B933022000800740FD
:10059000780D002080B582B000AF78607B680233B0
:1005A0001B781A467B6801331B781B021A437B6851
:1005B0001B781B0413431A46094B1A60032208498F
:1005C000084805F021FD01210C2000F061F8002110
:1005D0000C2000F05DF800BF0837BD4680BD00BFAD
:1005E0001C1000200080084080B582B000AF786009
:1005F0000B46FB70FB781946786800F049F800BF9D
:100600000837BD4680BD00BF43081F2892BF03F0D6
:10061000070003F003000830704700BF00EB8000C4
:10062000800000F1804000F528200161704700BF84
:1006300043081F288ABF03F0030303F007030833AE
:10064000094A03EB83039B001A44C30758BF4FF6C4
:10065000FF70136844BF054809044B4002F58052FF
:1006600003401360704700BF0C800A400000FFFF8A
:1006700000EB8000800000F1804000F528231B681B
:1006800000F52920594001F001010160704700BFC9
:1006900041EC4000704700BF41EC4400704700BF90
:1006A0000022012100F01CBB80B584B002AF0346DC
:1006B0000A46FB711346BB71FA1DB97900230093FA
:1006C0000123034802F052F900BF0837BD4680BD40
:1006D0004C09002080B500AF70212120FFF7E4FF16
:1006E0007021A020FFF7E0FF70218120FFF7DCFFE1
:1006F00000F024F800BF80BD80B586B002AF7860FE
:100700000B467B807B68DBB25B00DBB23B737B8894
:10071000DBB27B737B881B0A9BB2DBB2BB7307F136
:100720000C020023009303237021034802F01EF9FA
:1007300000BF1037BD4680BD4C09002080B500AF1A
:1007400000210020FFF7D8FF00210120FFF7D4FF90
:1007500000210220FFF7D0FF00210320FFF7CCFF8C
:1007600000BF80BD2DE9F041012504460B23002682
:1007700084B0009503AA8DF80C300F462B462178E3
:100780003D4802F0F3F800962B463B4821780DF1E6
:100790000B0202F0F3F89DF80B309B0721D04FF0CD
:1007A0002A0800952B46217803AA33488DF80C803F
:1007B00002F0DCF800962B4621780DF10B022E4852
:1007C00002F0DCF89DF80B30009623F001038DF861
:1007D0000D3021780223284803AA8DF80C8002F0FE
:1007E000C5F8012500264FF00E0821782B4603AAF4
:1007F000009521488DF80C8002F0B8F800962B4641
:1008000021780DF10B021C4802F0B8F89DF80B306E
:10081000009603F0FC0343EA97012A278DF80D1098
:1008200003AA2178022314488DF80C8002F09EF868
:1008300000952B46217803AA0F488DF80C7002F022
:1008400095F800962B4621780DF10B020A4802F02C
:1008500095F89DF80B5000960223217845F001058C
:1008600003AA05488DF80C708DF80D5002F07EF843
:1008700004B0BDE8F08100BF4C0900202DE9F04133
:10088000012504460B23002684B0009503AA8DF8A9
:100890000C3088462B4621783B4802F067F80096DA
:1008A0002B46394821780DF10B0202F067F89DF8CC
:1008B0000B309B0720D02A2700952B46217803AACE
:1008C00031488DF80C7002F051F800962B462178D3
:1008D0000DF10B022C4802F051F89DF80B300096F8
:1008E00023F001038DF80D3021780223264803AA56
:1008F0008DF80C7002F03AF801252A26002721789D
:100900002B4603AA009520488DF80C6002F02EF8C3
:1009100000972B4621780DF10B021B4802F02EF8B0
:100920009DF80B20009702F0C70242EAC8018DF83B
:100930000D1003AA2178022313488DF80C6002F0F1
:1009400015F800952B46217803AA0F488DF80C6006
:1009500002F00CF800972B4621780DF10B020A48A3
:1009600002F00CF89DF80B5000970223217845F017
:10097000010503AA04488DF80C608DF80D5001F0B4
:10098000F5FF04B0BDE8F0814C0900202DE9F047E7
:10099000012504464FF00B0C4FF0000984B0009580
:1009A0001746884603AA21781E4662482B468DF8D2
:1009B0000CC001F0DBFFCDF800902B4621785D489C
:1009C0000DF10B0201F0DAFF9DF80B30990723D0EF
:1009D0004FF02A0A00952B46217803AA55488DF836
:1009E0000CA001F0C3FFCDF800902B4621780DF14B
:1009F0000B02504801F0C2FF9DF80B30CDF800907B
:100A000023F001038DF80D3021780223494803AA11
:100A10008DF80CA001F0AAFF18F0800F79D04FF0EC
:100A20000C0800253A060DD40023009324232178D6
:100A30008DF80C303F48022303AA8DF80D7045460F
:100A400001F094FF33060FD400232522009345F0D4
:100A500030058DF80C2002232178364803AA8DF842
:100A60000D60EDB201F082FF45F040058DF80D50AC
:100A700000252126217803AA009502232D488DF810
:100A80000C6001F073FF43F2260200952178ADF867
:100A90000C20022303AA274801F068FF4AF227022C
:100AA00000952178ADF80C20022303AA214801F01B
:100AB0005DFF4FF6287201262A2700952178ADF8B0
:100AC0000C20022303AA1B4801F050FF0096334676
:100AD000217803AA17488DF80C7001F047FF0095A4
:100AE000334621780DF10B02124801F047FF9DF8C3
:100AF0000B200095022342EA0605217803AA0D483F
:100B00008DF80C708DF80D5001F030FF04B0BDE889
:100B1000F08700230093232321788DF80C300548BB
:100B2000022303AA8DF80D80032501F01FFF4FF06B
:100B30000F0877E74C0900202DE9F04101780446C1
:100B400084B011B91C231946037001260D2300251A
:100B500003AA8DF80C3051483346009601F006FF89
:100B6000009533464D4821780DF10B0201F006FF48
:100B70009DF80B702A2F03D0284604B0BDE8F08101
:100B80004FF0020820464146A4F80180FFF7EAFD35
:100B90002046A178FFF772FE0B23009621788DF88E
:100BA0000C3003AA33463D4801F0E0FE0095334681
:100BB0003A4821780DF10B0201F0E0FE9DF80B3070
:100BC0009B071FD000963346217803AA33488DF83F
:100BD0000C7001F0CBFE0095334621780DF10B022D
:100BE0002E4801F0CBFE9DF80B20009522F001026B
:100BF0008DF80D2043462178284803AA8DF80C7003
:100C000001F0B4FE01252A26002721782B4603AAED
:100C1000009522488DF80C6001F0A8FE00972B4645
:100C200021780DF10B021D4801F0A8FE9DF80B2064
:100C300000972A4321788DF80D20022303AA174834
:100C40008DF80C6001F092FE8022204611460823A8
:100C5000FFF79CFE00952B46217803AA0F488DF8DC
:100C60000C6001F083FE00972B4621780DF10B02FA
:100C70000A4801F083FE009721789DF80B4002237B
:100C800003AA2C4305488DF80C608DF80D4001F047
:100C90006DFE284604B0BDE8F08100BF4C0900207D
:100CA00005F0A2B910B44FF480740C4B53F8202017
:100CB00003EB8003C00082F0400200F1804003F5A6
:100CC000805C02F0C00200F5203003F54053CCF800
:100CD000002041601C605DF8044B704704800340B5
:100CE00010B4084CC90041EA820154F8202004EBFA
:100CF0008003514003F5805301F00C015DF8044B73
:100D0000196070470480034030B44FF0000343EC97
:100D1000440043EC400005254FF480740B4BC200A7
:100D200053F8201003EB800081F0400102F1804372
:100D300003F5203301F0C00200F5805100F540506A
:100D40000A605D60046030BC704700BF04800340EF
:100D50000FB400B583B0049C074801F08BFA3CB196
:100D600005A92046019101F027F9044801F082FA13
:100D7000012001F039F900BF7060001080600010A0
:100D8000EFF3108072B6064BD3E8CF1F0122002983
:100D9000FAD1C3E8412F0029F6D1BFF35F8F704726
:100DA000E30C00200023034AC2E88F3F80F3108841
:100DB000704700BFE30C002070B58646EFF3108546
:100DC00072B6124CD4E8CF6F0120002EFAD1C4E8DD
:100DD000460F002EF6D1BFF35F8F4FF0010CC8080D
:100DE00001F007030CFA03F31EF800C01CEA030627
:100DF00008D14CEA030C0EF800C0C4E88F6F85F3ED
:100E0000108870BD1046FFF7A3FF00BFE30C002061
:100E1000044A1078431CDBB2182B28BF1023137030
:100E2000704700BFD00800200146024A0248FFF781
:100E3000C3BF00BF84600010180D00204FF0E022F7
:100E4000936843F000539360704700BF0021044B48
:100E500003F12002C3E88F1F01339342FAD1704798
:100E6000D80C00204FF0E0234FF08032C3F800246C
:100E7000C3F80424C3F80824C3F80C24C3F81024CE
:100E8000C3F81424C3F81824C3F81C24C3F820247E
:100E9000C3F82424C3F82824C3F82C24C3F830242E
:100EA00062B67047012300F01F029340400941B130
:100EB000800000F1604000F56140C0F880310360BF
:100EC0007047024A203042F82030704700E100E0CD
:100ED0000123064A410952F8212000F01F0003FABD
:100EE00000F01040003818BF0120704700E100E01A
:100EF000F8B50D46EFF3108772B6124ED6E8CF2F35
:100F00000123002AFAD1C6E8423F002AF6D1BFF3F6
:100F10005F8F0D4B00F110049B680C4A53F824308E
:100F2000934203D0994201D000F01EFF064B9B680C
:100F300043F82450BFF35F8F0023C6E88F3F87F349
:100F40001088F8BDE10C002000ED00E01101001058
:100F50002DE9F04F83B0EFF3108A72B6714ED6E8E8
:100F6000CF2F0123002AFAD1C6E8423F002AF6D14A
:100F7000BFF35F8F6C4B00F110089B686B4A53F80E
:100F80002850954245D08D420C4650D0684FEB1BFF
:100F90002F2B3ED801214FEA50194FEA890909F158
:100FA000604909F5614900F01F0301FA03F0D9F81F
:100FB0000030C9F8800000EA030BBFF35F8FEFF346
:100FC0000581C9B2002934D0884505D0CDE900108B
:100FD00000F0CAFEDDE9001025F0010EDEF808C0C1
:100FE000644505D189E0D3F808C0644531D09E46F8
:100FF0009EF9062002EB4203002A07EB8303F2DA94
:10100000644561D0BBF1000F20D0C9F88001C9F858
:101010000000454B9B6843F82850BFF35F8F0023C7
:10102000C6E88F3F8AF3108803B0BDE8F08F1546FD
:10103000EFE725F0010EDEF808C06445D8D19EF92F
:1010400006407346002C08DA154646E0C9F88000D1
:10105000DFE793F90640002C37DB04EB440C07EB89
:101060008C0C9CF80710DCF80820D9719A609CF968
:1010700006206100002A9A713DDBBCF804E05FEABB
:101080004E5E05D50EF5FF1E0EF5FF5E0EF11F0E2E
:101090006FF0070C0A194FEA6E5E920002EB4E02E7
:1010A00008323A44ACEB030C6244C2F34A026FEAE2
:1010B000C2426FEAD2429A801E4B21441A7807EB53
:1010C00081011C708A719DE77346D9B9FF228EF8A1
:1010D00006204BF60152AEF80420164C4AF6AA221E
:1010E00094F800C01946C91B49414A43120D83F8C0
:1010F00006C0227086E7104ADDE79EF90640734677
:10110000002CAADA0D4A0E4CD21A083AC2F30A3160
:101110006FEA01516FEA115144EA5202DA80998074
:1011200070E700BFE10C002000ED00E011010010AD
:10113000D4080020B833022001BDFFFF0E090020B3
:1011400000F8FFFF4FF0FF0C20F0030303F16043B2
:1011500003F5644300F003001A68C0000CFA00FCB9
:1011600022EA0C0281400A431A607047F0B5EFF39F
:101170000585EDB2EFF3108C72B62649D1E8CF2F7A
:101180000123002AFAD1C1E8423F002AF6D1BFF379
:101190005F8F214E40F0010EB4684AF6AA2354F83E
:1011A00025701E4A0446A41A644163431B0D77450B
:1011B0005BB21BD092F906409C421CD092F91240BF
:1011C0009C4223D092F91E409C4221D092F92A40A1
:1011D0009C4208BF03240FD0114A002415781370D5
:1011E0008571C1E88F4F8CF31088F0BDB2680D4C4B
:1011F00042F82540F0E7002404EB440402EB8402AB
:10120000FF2494714BF601549480E5E70124F3E741
:101210000224F1E7E10C002000ED00E0D4080020FA
:10122000B833022011010010014B0B4403607047DA
:10123000D80C0020F8B5124C124DAC4211D24FF030
:10124000FF36002723686BB1FFF7E2FD0146204619
:10125000FFF7EAFF66602772BFF35F8F0C34AC4282
:10126000F0D3F8BDFFF7D4FD01462046FFF7DCFFC1
:101270006660BFF35F8F0834AC42E3D3F8BD00BFB4
:1012800058090020680900202DE9F04F2DED028B50
:1012900085B0EFF30583DBB2103B9A0818BF01223B
:1012A0004FF0010103F0030B18BFAF4DAF4B08BF68
:1012B000AF4D0BEB820253F8226001FA0BF205F5F9
:1012C00041539FEDA78B01925A602FE0B3881C0415
:1012D00040F19380B379002B40F0DD80B6F908200F
:1012E000002AC0F21E81736902EB420203EBC203C3
:1012F000D3E90247B7F1FF3F08BFB4F1FF3F0ED07B
:1013000005EB8B01AB6A0A69D21AE31A934205D343
:1013100001232A6A03FA0BF3134200D10C61284619
:1013200000F050FBA042B941C0F2FB80B6F9083092
:10133000019A002B0093EA63C8DBD6F8148003EB14
:101340004309284608EBC907D7E9024A00F03AFBEF
:10135000A04271EB0A01B9DBBAF1000FC0F2C38001
:10136000D7E90431834A934200F0ED807A88B6F9D8
:10137000080092B242EA0040984702460B4652EA01
:10138000030100F0B080002B80F2D180B4EB020E9C
:101390006AEB030A38F93930C7E902EA002B95DB1A
:1013A000716903EB430201EBC202D2E90270BE4550
:1013B0007AEB000C4FEA430288DBB4462CF8083F76
:1013C00006E003EB430001EBC0005A00D0E90270D5
:1013D000BE451A447AEB000001EBC20404DB31F98C
:1013E0003230A446002BECDA28F83930009BACF8F8
:1013F0000030B3881C043FF56DAF3369EFF3108202
:1014000072B6D3E8CF0F01210028FAD1C3E8401FFC
:101410000028F6D1BFF35F8F4FF6FF74B08800232A
:10142000316900B2B480C1E88F3F82F310889842DE
:10143000FFF650AF0746A946746906F1080807EBA6
:10144000470E04EBCE03D3E90250B6F90830C44688
:10145000002B13DBB246009704E034F93630944693
:10146000002B09DB03EB430604EBC602D2E9027151
:10147000BD4270EB0101F0DA5646009FACF80070F7
:1014800034F93E7024F83E30002FD8DAB3794D4657
:10149000002B3FF423AF0023B371B6F9083006F1F7
:1014A0000808581C3DD01A46776903E08046591C4D
:1014B0003FF416AF03EB430107EBC100B0F802C0E5
:1014C0001C461CF4004F9E4637F93130EED0944252
:1014D00080ED028B05D0A8F80030328927F8312042
:1014E00034817246E3E738F8393033813369EFF3FA
:1014F000108272B6D3E8CF0F01210028FAD1C3E8D9
:10150000401F0028F6D1BFF35F8F7388316928F838
:101510003930009B73800023C1E88F3F82F310882D
:10152000D4E640BF05B0BDEC028BBDE8F08F284685
:10153000CDE9022300F046FA029A039B10EB020E5B
:1015400043EB010A26E708460B69029198470028F9
:10155000C9D00299D1E9002311E700BFAFF30080A1
:10156000FFFFFFFFFFFFFFFF00800B40580D002033
:1015700000000B40891200100B4808B50368EFF318
:10158000108172B6D3E8CFCF0122BCF1000FF9D1A0
:10159000C3E84C2FBCF1000FF4D1BFF35F8F01F013
:1015A00083FC0020002108BD181000202DE9F84F11
:1015B000364C25692DB1BDE8F84F0A213448FFF7B4
:1015C00033BEDFF8E4800321404600F0E9F903264A
:1015D000C4F80C80FFF71CFC4FF0504C2D4B2670CC
:1015E00003442361DCF800300F216370636961807C
:1015F0001D834FF00405A3F878504FF00505A3F8BC
:1016000090504FF00605A3F8A8504FF007050E21A3
:101610004FF6FF7208274FF00A0EA3F8C0504FF0A4
:1016200001094FF00C0C4FF0020B4FF0090A0D208E
:101630004FF00B05A3F868111749A280A3F808E141
:10164000A160A3F848B0A3F8F0A0A3F82051A3F834
:1016500038C1A3F85001A3F83090A3F86060A3F854
:10166000D8701A800D4B3046C8F820700C49DC60E9
:10167000FFF73EFC49463046FFF714FC094B0A21B0
:101680001F640348BDE8F84FFFF7CEBD1C090020DA
:1016900018100020D80C0020FFFF1000580D00206B
:1016A0008912001000200B4000000B400146F0B5ED
:1016B0000069EFF3108772B6D0E8CF5F0124002DE8
:1016C000FAD1C0E8454F002DF6D1BFF35F8FB1F9D5
:1016D00002E04C690EEB4E0CBEF1000F4FEACC0558
:1016E000086904EBCC0C3CDB665B4E800026C0E84E
:1016F0008F6F87F31088BCF80200CCE90223013019
:10170000C0F30E00012838BF0120059BACF8020091
:10171000CCF81030069B40EA0E40CCF814300B6930
:10172000EFF3108272B6D3E8CFCF0127BCF1000FE0
:10173000F9D1C3E84C7FBCF1000FF4D1BFF35F8F48
:101740008B886353A1F804E00B69C3E88F6F82F3C1
:1017500010880122CB68097803F501538A405A604A
:10176000F0BD0023C0E88F3F87F310884FF0FF30B3
:10177000F0BD00BF03464089B0EB214F37DD58690B
:101780000A1402EB420210B500EBC2001C69EFF331
:10179000108C72B6D4E8CFEF0122BEF1000FF9D160
:1017A000C4E84E2FBEF1000FF4D1BFF35F8F428823
:1017B00089B292B28A4207D000221B69C3E88F2FF8
:1017C0008CF31088002010BD42F4004242800121B9
:1017D000002218699971C0E88F2F8CF310881C784B
:1017E000DA68084602F50153A140596010BD002097
:1017F000704700BF2DE9F04383B0064600F0EAF8D9
:101800004FF47A7304464FF0FF306FF00042E6FB6E
:101810000341A04272EB01033ABF044615460D4650
:10182000B4F1960645F1FF37B44275EB07033CBFB0
:101830000026374600F0CEF8301A67EB0101012888
:1018400071F1000106DA2046294603B0BDE8F043F5
:1018500000F0F8B800F0BEF8864267EB01010029FD
:101860000ADB0021154B3246009315483B46019197
:10187000FFF71CFF0130E6D0DFF84C80DFF8449022
:10188000D8F824309F4205D8D8F82820B242DAD2BE
:101890009F42D8D1D9F80030EFF3108172B6D3E867
:1018A000CF0F01220028FAD1C3E8402F0028F6D13B
:1018B000BFF35F8F034801F0C5FAE1E77915001027
:1018C0001C0900201810002000000B402DE9F043F7
:1018D00006460D4683B0EFF30584E4B23CB12D4BD0
:1018E0005A6AAA421CD2002003B0BDE8F0832A4FF6
:1018F000D7F80C9097F80080484600F063F808F19C
:10190000040859F828301B1A301A65EB0101984277
:1019100071F1000110DB20BF1E4B5A6AAA42E2D3CC
:1019200014BF012400249B6AB34234BF204644F014
:10193000010003B0BDE8F08300F04CF8864265EB8F
:101940000101002914DB154B3846CDE9003432463D
:101950002B46FFF7ABFE011E0ADD0E4B5A6AAA4268
:1019600016D39B6AB34211D30B48FFF703FFB6E7C8
:10197000084B5C6AAC42B6D3641B18BF01249B6A57
:10198000B34234BF204644F00100ADE7AA42EBD198
:1019900020BFE9E700000B401C090020791500106A
:1019A00010B4054B054C064AA04214BF1846581CFB
:1019B0005DF8044BFFF700BA1C0D002000800B40BF
:1019C000A46000100346416A0A46986A596A8A422E
:1019D000FAD17047034B596A0A46986A596A91428C
:1019E000FAD1704700000B4030B4154A536A9C4648
:1019F000946A536A6345FAD1021959414FF00005C0
:101A000028BF01250E4B5B6AB5B15A1C08BF1A46A8
:101A100008D04FF0FF310A460948436A8B42FCD395
:101A20008B4207D1064902E0486A984202D1886A8F
:101A30009042F9D330BC70479942EDD8F0E700BF2F
:101A400000000B40074A536A9942FCD8994207D1DB
:101A5000044B02E05A6A914202D19A6A9042F9D844
:101A6000704700BF00000B40F8B5054606200E4643
:101A700000F0E4F8002842D0354A3648954214BFB9
:101A80004FF080624FF00062334B344902601A60BD
:101A90008C6832EA0404FBD12D4B4FF48071EB1AB1
:101AA000B3FA83F32E4A5B09062022F8131000F0E4
:101AB000C5F8C300B3FBF6F30133DA0920D14026A1
:101AC00001216962AA622F6BFB0722D42B460022F8
:101AD00053F82C1F062003F5805422602F6300F07A
:101AE000ADF840F2013103228000B0FBF6F0EB6A62
:101AF00083F0700303F07E0323602963AA64F8BDBA
:101B00004FF6FE718A421BD922464FF6FF71154EE1
:101B1000D7E740F2013205F540531A636B6AAC6AAD
:101B2000062004EB831400F089F80F4BA402A3FBFA
:101B30000023DB0A0021B4FBF3F0FFF755FFC5E7F4
:101B4000C3F34503114603EB82161A46B9E700BFFB
:101B500000800740002002400030024000000240A8
:101B600028100020C0FF3F00757B2B8F00EB400C3E
:101B70004FEA8C0C0CF1804C0CF5803CF0B516460D
:101B8000DCF80420051FB2F5803F38BF4FF48032E7
:101B9000EDB238BFCCF80420012D2AD94FF40067EC
:101BA000254C0CF54052176054F82020B2B9DCF8EF
:101BB0000020012D82EA461202F0E0020CF5805668
:101BC00032602AD94FF4006144F820304FF480335A
:101BD0000CF500521160CCF80430F0BD6769B7FB1A
:101BE000F2FE0EF1010E0EEB4E0EBEF1030EFCD214
:101BF000DDE70129D2D103240CF540521460DCF852
:101C00000820D207FBD5DCF800200B4C82EA4612F4
:101C100002F0E0020CF5805632600122DCF8005040
:101C20004D4005F00305356002FA01F1DCF80820AB
:101C30000A42FBD0C6E700BF200D0020014B53F83D
:101C400020007047200D002070B4039D04682D0310
:101C500045EA03451B4B002CB3FBF1F3B2FBF3F653
:101C60001FDB194A194B904214BF4FF480424FF4C6
:101C70000042174C1A6003F580531A60A36832EAD9
:101C80000303FBD1212200F5405304330160866039
:101C90001A600268002AFCDA0822C5601A6070BC6B
:101CA0007047036803F03F038B42DAD18368C3F3C4
:101CB0000B03B342D5D1C36803F4EE23AB42D0D1BA
:101CC000EDE700BF001BB700008005400020024088
:101CD00000000240012300EB4000800000F1804042
:101CE00000F5841041600360704700BF0023DB8A69
:101CF000002242E800F2520201D4102118470421C8
:101D0000184700BF034AD2F82838002BFBD0BFF396
:101D10005F8F704700000E400021044B044ABFF360
:101D20005F8F43F8041B9342F9D170470C080E40B3
:101D30002C080E4010B44FF48D704FF42A64064AFC
:101D4000064B07491460D06019605368002BFCDA19
:101D50005DF8044B704700BF0080044000A00440C1
:101D600000B0FA00704700BF08B50148FEF7F0FF69
:101D7000C860001038B5054C054DAC4204D254F88B
:101D8000043B9847AC42FAD338BD00BF1060001046
:101D90005060001038B5054C054DAC4204D254F8E3
:101DA000043B9847AC42FAD338BD00BF3C600010FA
:101DB0005060001010B40748074C084B084A094906
:101DC00004601A608B6832EA0303FBD15DF8044BB0
:101DD000704700BF002002407F3BEFEF0030024021
:101DE000F6FFF30300000240044BDB6CB3F5004F39
:101DF00003D14FF48022024BDA6470470000115087
:101E0000002011504FF0E022044BD2F8881D0B4304
:101E1000C2F8883D10EE3004704700BF0303300065
:101E20006FF06041044B054A19609368DB4333F05F
:101E30006043FAD1704700BF00300240000002400A
:101E400010B545F25320FFF751FFBDE8104003469F
:101E50000420184710B545F25320FFF747FFBDE8AF
:101E60001040034601201847FEF7F0BF1449154BF8
:101E700070B55C1AA610442E324628BF4422124D7B
:101E80009200284603F0FAFFB4F5867F13D80F4A74
:101E9000C6F1440012D02B19410803EBC101C3E97C
:101EA000002208338B42FAD1C30704D520F0010089
:101EB000304445F82020064B9D6070BD4320F8E774
:101EC000000000101001001000000020110100109F
:101ED00000ED00E0002370B52B4C82B0C4F88430D4
:101EE000FFF728FF0122294BDA63636C012BFCD139
:101EF0000321264A244B11639C6B012CFCD1022642
:101F0000052521460523224A22480096FFF79CFE1C
:101F100021462B46204A21480095FFF795FE0022D6
:101F2000042031461E4BFFF721FE214628460022A1
:101F30001C4BFFF71BFE0022082011461A4BFFF72F
:101F400015FE002209201146174BFFF70FFE002255
:101F500006201146134BFFF709FE0022114B072004
:101F60001146FFF703FE0420FFF768FE00240F4B25
:101F7000A3FB0035AD0CE0B229460134FFF7AAFE01
:101F8000062CF8D102B070BD0000014000300140C5
:101F9000002F685900000540008C864700800540EE
:101FA000001BB70080D1F008006CDC0283DE1B430D
:101FB00000B9704700F01CB910B5094B84B01C681B
:101FC0004CB1034600914FF0FF3203A90548A047EA
:101FD000012004B010BD00F04DF9204604B010BD42
:101FE000540D0020B11F001000BEFDE708B5FFF73B
:101FF000FBFF00BF38B5064C064DFFF7BBFEAC42F9
:1020000004D254F8043B9847AC42FAD338BD00BF21
:10201000506000105C6000100368084611461847C5
:102020002DE9F0411546427D07468846002A46D0F4
:10203000002D1DDD0B780A2B23D0012D4FF0000C55
:1020400018D04646012416F8012F21460A2A04F129
:10205000010422D0A542F6D165450BDC08EB05034F
:1020600013F8013CA3F10D03B3FA83F35B093B754D
:10207000BDE8F0813B68A5EB0C0108EB0C0098472C
:10208000ECE7037D002BD8D1036802210F48984765
:10209000012DE3D04FF0010CD3E716F8013C0D2BD6
:1020A000D8D08C4508EB0C00A1EB0C0101DA3B68A1
:1020B0009847022105483B689847A446CAE7294645
:1020C00040463B68BDE8F041184700BFC8610010BA
:1020D0002DE9F04782B00D4691461C460646FFF7B3
:1020E00079FC4FF0FF3C6FF000472E4A821841F117
:1020F0000003944577EB03013CBF62463B462A4808
:1021000003F07EFF6B1C804640D00CB3274F284B5A
:102110001C68B4B1B9F1000F1CD1DFF89C9001E04C
:10212000246974B12368002BFAD0D9F800300BB1C0
:102130009C42F5D120462A463146B8472469002CF6
:10214000F0D1B8F1000F26D1284602B0BDE8F087E3
:10215000184FDCE74FF00A0ADFF85C9002E02469D0
:10216000002CEED02368002BF9D0D9F800300BB149
:10217000A342F4D12A4631462046B84701222046E0
:102180000DF107018DF807A0B847E8E7304603F0E6
:10219000DBFD0546B9E7044803F02AFF284602B0F4
:1021A000BDE8F08740420F006009002021200010A8
:1021B0004C0D002019200010500D0020084A136813
:1021C00023B90AE003F110021B6933B18342F9D14C
:1021D00029B9186910601961704701B11060704722
:1021E0004C0D002008B500F033F9012008BD00BFF8
:1021F000F0B583B006468DF80700FFF7EBFB4FF014
:10220000FF356FF00044174A821841F100039542F0
:1022100074EB03013CBF23462A46134803F0F0FE4B
:10222000124B07461C689CB1114D01E024697CB13A
:102230002368002BFAD02B680BB19C42F6D12046C4
:1022400001220DF10701FFF7EBFE2469002CEFD10D
:1022500017B9304603B0F0BD034803F0C9FE30465D
:1022600003B0F0BD40420F00600900204C0D00207B
:10227000500D002038B5044603F066FD01230546E5
:102280001A4620462946FFF723FF084B1C682CB14D
:1022900063682BB198472469002CF9D1284638BDD2
:1022A0002469002CF4D1284638BD00BF4C0D002015
:1022B000B1F1000C1DDD0F4A0F4B126830B5D31A77
:1022C000B3FA83F30D240D4D5B09411E35F913E07C
:1022D0008C4411F8010F864506D093699B06FCD407
:1022E00061451060F5D130BD93699D06FCD4146042
:1022F000F3E770472C1000200080074028100020D2
:10230000224BB1F1000C10B41C682EDD03460020F6
:102310001F4A591E12689369DB0617D4013093696E
:10232000DB06FCD41368844501F8013FF3D14CB1BE
:1023300050211346916353F8342F02F0380203F50D
:1023400080531A6060465DF8044B70474CB15021D1
:102350001346916353F8342F02F0380203F580538B
:102360001A6078B15DF8044B70475CB1084B50219E
:102370001A681346916353F8342F02F0380203F5BC
:1023800080531A606FF00200DDE700BF100D0020DF
:102390002C100020054B1B6833B10021044A05486E
:1023A0001268006891631847704700BF100D002045
:1023B0002C100020140D0020024B1A6893691B0793
:1023C000FCD470472C100020F8B51C4F1C4D3A6807
:1023D0001C4EAA4214BF212522250446D6F800C06F
:1023E00018B1BCF1000F10D0F8BDBCF1000FFBD04C
:1023F000014690632846FEF755FD28461249FEF730
:10240000A7FD124B34601C60F8BD0B460F4A0E4905
:10241000306028461360FEF76BFD01212846FEF769
:1024200041FD3A6850211346916353F8342F02F06E
:10243000380203F580531A60F8BD00BF2C1000204D
:1024400000800740100D002095230010140D00207F
:1024500010B50E490E4C0F480F4A104B0078216002
:102460000020022112781B78FEF71CFC02210120BB
:10247000FEF718FC4FF4E1312068FFF7F5FABDE8EC
:10248000104001210648FFF799BE00BF0000074039
:102490002C1000201C620010186200101462001042
:1024A0003409002003BD00BF10B50446FFF772FCDD
:1024B0002346BDE810401847F0B5054687B01920FF
:1024C00017460E46FEF704FD002104461920FEF7CC
:1024D000E9FC0021CDE904650397002600270122CD
:1024E0004FF050438C46CDE900670292A9B11A6DB6
:1024F0009507FCD5596540BF1A6DD00703D420BF9E
:102500001A6DD207FBD59A6D8A420BD04FF0000CA2
:102510000DEB8C021168E9E79A6D1A6DD607FBD4B2
:1025200040BFE4E70CF1010CBCF1060FF0D12146ED
:10253000192007B0BDE8F040FEF7B4BC0C4B0D4AC3
:1025400093420ED39C4603F2F4710B4A9268CCF886
:10255000F4070A48CCF8F837CCF8FC070848FFF72E
:10256000ABBF4FF0FF3340F2F3719C46EDE700BF85
:10257000000808200000082000ED00E0A924001059
:10258000A5240010F8B504463A4E0F46FEF7F8FBB6
:10259000B17896F9003001F00101DB0F43EA410305
:1025A0002342327856D096F90130C2F38011DB0F06
:1025B00041EA4301214273784FD0C3F38015C2F33F
:1025C000401141EA450121424AD0C3F34015C2F30C
:1025D000001141EA4501214245D0C3F30015C2F381
:1025E000C00141EA4501214240D0C3F3C005C2F316
:1025F000800141EA4501214212D0C3F38005C2F3B4
:10260000400141EA4501214219D003F0020502F0E0
:1026100001031D43254015D0B7B11748FEF798FBBD
:1026200002250423E10744BF1A433270A20702D5F2
:10263000727813437370FEF7B5FB2846F8BD012589
:102640000223EFE70123EDE76FF00805FEF7AAFB91
:102650002846F8BD07258023E4E706254023E1E767
:1026600005252023DEE704251023DBE703250823C7
:10267000D8E700BF480D002044610010384B2DE919
:10268000F047984214BF4FF400234FF480230746CD
:102690000E46344D344C354A2B602360956833EA3E
:1026A0000505FBD10620FFF7C9FA39464FF0020AAB
:1026B00051F804EF4FEAD6594FEA462C01F540583D
:1026C00063464A4654460EEA0A0EC8F800A008E0DF
:1026D00013EB0C0304F1020442EB0902B4F5807F12
:1026E00003D0984275EB020AF2D24FF48073C4EB28
:1026F000042201E0012B30D0B0FBF2FC6645994684
:10270000A2EB040203F1FF33F4D209FB04F91D022A
:102710003C6102243B4603263A6801F500516A40B9
:1027200007F5805C02F47F42CCF80020C1F800E09D
:102730007D68C8F8004053F8242B254082F007023A
:1027400002F0CF0203F50053CCF80020B0FBF9F003
:102750000D601E600C60BDE8F087A146D8E700BFA1
:10276000000008400020024000300240000002400B
:1027700070B5002501260468002BE566844661607B
:1027800028469DF810E0E66616DD5D1E616F102993
:10279000FCD000B30021A84204BF8EF0010641EA3C
:1027A000462141F480712161D4F88010616B4906A3
:1027B00005D54FF0FF30636D8CF804E070BDA16F5C
:1027C0000029F1D021690130834202F8011BF3D0C6
:1027D000DCF80040DAE79CF804108902DBE700BF70
:1027E0002DE9F04100270124944602680546D7668A
:1027F0005160D4661C1E38469DF818601EDD29798C
:1028000086F0010789027F0204F1FF3E70450CBF8C
:10281000B8464FF000081CF8013B0B4343EA08039D
:102820001361536BD906FCD5D2F8801049B97045B5
:102830001CD0013084424FF00001E7D12E71BDE879
:10284000F0814FF00108536D536B9B05FCD5136E5F
:10285000B8F1000FEDD069B1CB070BD411F0080F20
:1028600008BF4FF0FF302E71BDE8F081002EE0D19F
:10287000B046E9E74FF0FF30E0E700BFF8B50446A7
:1028800005200F46FFF7DAF900EB570CBCFBF7FC0D
:10289000204D0CEB4C02A5FB02651F49AE088F4290
:1028A00000EB4003ACEB95052ED801F1D64101F5C4
:1028B000A10101F62C01A1FB03139B0D01330021A3
:1028C0004F2A98BF01222468B0FBFCF0E166216822
:1028D00004F5805781F0040101F00601396088BFDA
:1028E0000C49E56184BFA1FB021292092662C4F87B
:1028F000A0202246012152F87C5F6B409BB202F57A
:1029000080521360E166F8BD0449A1FB0313DB0D9F
:102910000133D4E7CDCCCCCC3F420F00893BE65508
:102920000E4A30B4904214BF202210220C4D0D4BA1
:102930000D4C2A601A60A36832EA0303FBD140F20F
:102940006515032402680371D3661560D36393632E
:10295000C2F8884030BCFFF791BF00BF4C0900208F
:1029600000200240003002400000024010B49DF8F8
:10297000044001945DF8044BFFF732BF10B49DF89A
:10298000044001945DF8044BFFF7F2BEF8B5431E16
:102990000A3311D810F0070300F1080467D0A3F13F
:1029A0000902A24208D31030C41A01F02BFC3549A9
:1029B00022460D681DBB0AE001F024FC31490A687B
:1029C00022B1002502F0EEFB2846F8BD14462E4B3E
:1029D0002E4D58071CBF073323F007031E46002067
:1029E00025F007050D602A49EB1AC1E90060294965
:1029F000C5E900000B60C6E9005327490B60002AB7
:102A0000DFDD254F3E68A642DBD3214B18461B680D
:102A100003E01A6822B1184613465968A142F8D358
:102A2000AB42CED01D46A1EB040C55F8082BBCF1EF
:102A3000100F026007D9214603EB040ECEF804C044
:102A40001A51C0F800E00024124A761A106841F0CA
:102A500000418642114838BF166002685960013251
:102A60001C603E60026002F09DFB2846F8BD01F04C
:102A7000C9FB044922460D68002DA8D0002CC0DAFD
:102A80009FE700BF8C0D002030100020281002208E
:102A900084320220543202204C3102206032022063
:102AA00090B338B550F8043C0446002B00DB38BD29
:102AB00050F8082C002AFAD123F0004340F8043CD7
:102AC000A0F1080501F09EFB1A4854F8041C0268A6
:102AD000194B0A4402601A461B689D42FBD8506895
:102AE00002EB000C654510D0681883421DD044F8F5
:102AF000083CAA4218BF1560104A136801331360DE
:102B0000BDE8384002F04EBB704701445018834284
:102B10005160F1D10A4800689842EDD01546D3E9DA
:102B200000400144C5E90041E3E7054800688342ED
:102B3000F5D1DCE74C3102208432022064320220DD
:102B40008C0D00200A4B93F90020002A0FDB4FF078
:102B500050410123D1F888019340184207D04FF02B
:102B6000E0224FF08050C1F88C31C2F8040D70475C
:102B700054090020002300B583B0019300F094FABB
:102B8000019B002BFCD003B05DF804FB10B502F0F4
:102B9000EFFB044601F04AFB28B14FF0E0234FF071
:102BA0008052C3F8042D2046BDE8104002F076BCE8
:102BB00010B504224FF0E024002322610520A36118
:102BC000FFF73CF80721044BA3FB00239B09013BC3
:102BD0006361216110BD00BFD34D62104FF0E0234F
:102BE0004FF07F42002130B585B00391C3F81C2D12
:102BF000D3F81C3D1B0E8DF807309DF807309DF86B
:102C000007301A060CD5039B013303939DF8073058
:102C10005B00DBB28DF807309DF807301B06F2D45D
:102C2000039B082B40D0039BC3F107031B0203F453
:102C3000E0634FF050412548254A036012780B6845
:102C40009A4233D04FF0E02300244FF05045D3F8A0
:102C5000202D204942F47F02C3F8202D0E20C3F816
:102C60001C4D03F04BF81C490B2003F047F81B4B9D
:102C70002A68FF211A2043F82240FEF763FA1A203F
:102C80001749FEF735F901211A20FEF70BF900F07C
:102C900003FA286801F0E4FB029400F005FA029BB5
:102CA000002BFCD005B030BD0023C2E7FFF780FF4A
:102CB0004FF0E022D2F8203D0A4943F07F43C2F8AA
:102CC000203D0F2003F01AF8BCE700BFE0100220FF
:102CD00055090020D130001069310010D8100220B1
:102CE000452B00108D2B001008B500F0DDF9BDE874
:102CF0000840FFF773BF00BF4FF0E0234FF0805252
:102D0000C3F8042DBFF34F8FBFF36F8F704700BF21
:102D1000836913F8023C662B00D070474FF0E02324
:102D2000D3F8882D42F47002C3F8882DD3F8342FDD
:102D300042F04042C3F8342F00F092B92DE9F04F31
:102D40004FF0113E4FF0807440E909E34FF0073334
:102D500040F8044C164C40F8343C40E903424FF034
:102D600005334FF006324FF0123B40E90F324FF07F
:102D7000033A4FF002394FF001384FF010374FF05F
:102D800009364FF008354FF004346FF0020340E984
:102D900005AB40E9078940E90B6740F8305C40F833
:102DA000404C40F8443C40F8481DBDE8F08F00BF5F
:102DB000752B001070B50E20FEF736F80F20FEF7C9
:102DC00033F801210320FFF7DDFB024601234FF01A
:102DD0005041002452B2084E9340084D32700848CA
:102DE000C1F88C31C1F884312C70FFF7A7FBFFF7D5
:102DF000F5FE204670BD00BF540900205509002093
:102E0000E92C0010EFF305830F2B84BF014A9B5C74
:102E1000704700BFF0E300E0094B1B78FF2B0BD09D
:102E2000EFF30583DBB22BB14FF05042106800EB9B
:102E30004300704701F0CCBD4FF050431868704715
:102E400055090020144B02681B78FF2B06D1002384
:102E5000C2E88F3F81F3108820BF704710B5002370
:102E600082B0C2E88F3F81F310884FF0FF34012217
:102E700001680A480094091A0948A0FB01C000092A
:102E800000EB4000A1EBC001064802FA01F1006826
:102E900000F0B8F902B010BD55090020D80C002090
:102EA000ABAAAAAA4831022010B51F4B8E461B7848
:102EB00082B0FF2B2ED04FF0010C02681B4BD21AB0
:102EC0001B4BA3FB02131B0903EB4303A2EBC3023F
:102ED0000CFA02F140BF00240368C3E88F4F8EF361
:102EE0001088EFF30583134ADBB2106823B902B0F0
:102EF000BDE8104000F0DEB901AA019400F00EFA1E
:102F0000019B2BB14FF0E0234FF08052C3F8042D0A
:102F100002B010BD40BF00230268C2E88F3F81F3BA
:102F2000108802B010BD00BF55090020D80C002049
:102F3000ABAAAAAA483102202DE9F041364C064638
:102F400094F800C00F46BCF1FF0F14461D4682B036
:102F500050D0FEF73FFD40F2E733B4EB000C65EBD9
:102F600001011CEB030041F10001B0F57A7F71F122
:102F70000003D6F800801DDA0023C8E88F3F87F3EE
:102F80001088264B5A6A95420DD94FF0E0234FF036
:102F90008052C3F8042DBFF34F8FBFF36F8F002013
:102FA00002B0BDE8F0819B6AA34230D3012002B099
:102FB000BDE8F0814FF47A72002303F01DF8002879
:102FC000DAD00023C8E88F3F87F3108801220090F1
:102FD00031681348091A1348A0FB0160000900EB8F
:102FE0004000A1EBC001104802FA01F1006800F0B6
:102FF00009F9C6E700230268C2E88F3F81F3108811
:103000002046294602B0BDE8F041FEF75FBC95427C
:10301000BBD00120CBE700BF5509002000000B40CA
:10302000D80C0020ABAAAAAA4831022008B5034850
:1030300000F0D8F8024B186008BD00BF8C320220A7
:103040004831022001234FF05042034991F900100A
:103050008B40C2F880317047540900200000000006
:103060000BA10CC9126853F82210086806C881F336
:103070000B88022181F31488203080F30988BFF384
:103080006F8F4FF0000080F311881047AFF300807E
:10309000000000D07C0D002062B661B6BFF34F8FF8
:1030A000BFF36F8F66DF00BFEFF311804FF01001A9
:1030B00081F31188BFF34F8FBFF36F8F704700BF4D
:1030C00080F31188BFF34F8FBFF36F8F704700BF3E
:1030D000EFF309811EF0100F08BF21ED108AEFF306
:1030E0000B82734621E9FC0F55FC084457FC096428
:1030F00059FC0A8401E9F00319A00CC8106853F8C0
:10310000203019604FF0100181F31188BFF34F8F09
:10311000BFF36F8F01F0A4F94FF0000080F3118826
:103120000FA10CC9126853F8221008681838B0E8CB
:10313000F00345EC004447EC016449EC0284B0E83C
:10314000FC0F13F0100F08BFB0EC108A82F30B884D
:1031500080F30988184700BFAFF30080AFF3008009
:10316000000000D07C0D00201EF0040F0CBFEFF318
:103170000880EFF30980014908470000112D001075
:103180002DE9F84307460D4600F10C0901F03AF825
:103190003B683C692B43A1453B601ED04FF00008C3
:1031A00009E036B1D30148BF48EA050802F044F807
:1031B0003B68A1450FD020460268646822F07F4535
:1031C00012F0806F43F0007105EA0306E9D0B542C2
:1031D000E8D0A145EFD123EA08033B60BDE8F843FE
:1031E00001F0E0BF202310B582B00446019330B156
:1031F000002340F8043B00F09FF80123237720468A
:1032000002B010BD2DE9F04180460D461E4617461E
:1032100000F0F8FFD8F8004004EA050356B933B3CC
:103220003FB324EA0505C8F8005001F0BBFF204673
:10323000BDE8F0819D42F3D0069BD3B1391E18BF83
:1032400001211A46090641F08061294308F1040072
:1032500001F0AAFA01F0A6FF30B302F051F98301A0
:10326000044611D524F07F442046BDE8F081069B3A
:1032700023B901F097FF2046BDE8F081391E18BF41
:1032800001211A460906E0E701F022FCD8F80040C7
:1032900005EA04035EB923B11FB124EA0505C8F8A5
:1032A000005002F0AFF8DDE701F000FCD5E7AB42DB
:1032B000F7D1F1E72DE9F84307460D4600F10C0977
:1032C00000F0A0FF3B683C692B43A1453B601ED04A
:1032D0004FF0000809E036B1D30148BF48EA0508BD
:1032E00001F0AAFF3B68A1450FD020460268646840
:1032F00022F07F4512F0806F43F0007105EA03066B
:10330000E9D0B542E8D0A145EFD123EA08033B60FC
:1033100001F048FF3868BDE8F88300BF8C4600B56F
:10332000864613467146624602485DF804EB02F099
:10333000CDBC00BF813100104FF0FF31002200F101
:103340000803C0E90131C0E903330260704700BFE0
:1033500000230361704700BF10B4D0E900329468C5
:103360000133C1E90124616091605DF8044B08619B
:103370000360704730B40D686B1C10D000F1080377
:103380001C465B681A68AA42FAD902684B6001328F
:1033900099608C606160086130BC026070470469AC
:1033A0006368F2E70346026910B45468406899689C
:1033B0009C428160486008BF5160002110685DF840
:1033C000044B013819611060704700BF70B5164694
:1033D000026C0446856B2AB9066801354EB3104667
:1033E000A56370BD8EB9406802F048FD6368216C2A
:1033F000A2680B449342636028BF236805F101056E
:1034000028BF63600020A56370BDC06802F036FD70
:10341000226CE36851429B1A2268E360934202D215
:10342000A3680B44E360022E08D001350020A56399
:1034300070BD806801F0DCFAA660D1E7012D38BFCD
:103440000125DFE72DE9F043064685B001F040FB9A
:1034500096F845305DB2002D1CDD06F1240708E02A
:10346000A26BE36B03969A423DD36B1EDAB25DB258
:1034700082B1B46C002CF3D1736A5BB1384601F0B1
:1034800031FA0028F1D001F099FA6B1EDAB25DB280
:10349000002AEED1FF2386F8453001F0B3FF01F09A
:1034A00017FB96F844305CB2002C14DD06F11005D1
:1034B00003E0631EDAB25CB26AB133695BB12846DD
:1034C00001F010FA0028F4D001F078FA631EDAB2A5
:1034D0005CB2002AF1D1FF2386F8443005B0BDE884
:1034E000F04301F08FBF94F84580226CA36B4FFA34
:1034F00088F803F101099AB92368002B3FD0B8F18D
:10350000FF3FC4F838902ED1636A002BADD004F190
:10351000240001F0E7F90028A7D001F04FFAB4E742
:10352000606803A902F0AAFC6368226CC4F83890B2
:103530001344A268636093420ED32368B8F1FF3F3F
:103540006360E1D000F06CFE40458ED908F10103C4
:103550005BB284F8453088E7B8F1FF3FF2D1636A87
:10356000002B82D0D3E700F05BFE8045BFF47DAF37
:1035700008F101084FFA88F884F8458075E7A068DB
:10358000019301F035FA019BB8F1FF3FC4F8389080
:10359000A360814608D1636A9BB9B9F1000F3FF47B
:1035A00064AF01F00BFA70E700F03AFE4045F4D941
:1035B00008F101035BB284F84530B9F1000FF0D196
:1035C00053E704F1240001F08DF900287FF45BAF8C
:1035D000E3E700BFF0B5846C83B0A26BE36B0190AE
:1035E0009A4203D30025284603B0F0BD94F8456005
:1035F000226CA76B76B2E2B1606801A902F03EFCD2
:103600006268236C1A44A36862609A4201D32368FB
:10361000636000250137731CA76313D1636A002B15
:10362000E1D004F1240001F05DF9002818BF012564
:10363000D9E72568002DECD1A06801F0D9F9A56083
:103640000546E7E700F0ECFD8642CCD2013676B2C3
:1036500084F84560C7E700BF70B582B09DF8185088
:1036600090B31C46002B3AD082B3A9B354230193E4
:10367000019BA1FB00360123C4E90F01226084F8FD
:103680004630E6B901F024FAD4E90F31A663FF26EB
:1036900001FB03F32268591A626013440A44C4E927
:1036A000023204F1100084F8446084F84560FFF7AA
:1036B00043FE04F12400FFF73FFE01F0A3FE0023C8
:1036C000204684F85050A36402B070BD51B9542311
:1036D00001932246019BCCE7084602B070BD184614
:1036E00002B070BD1046EFE72DE9F843044690465E
:1036F0001D460F46FFF786FB01F03AFEA26BE36B17
:1037000006469A4208D3022D06D00024304601F026
:10371000C5FE2046BDE8F883394694F845702A4630
:1037200020467FB2D4F83890FFF750FE7B1C17D1AB
:10373000A36CFBB1022D02D1B9F1000F09D12046D3
:10374000FFF748FF28B1B8F1000F02D00123C8F8F5
:1037500000300124304601F0A1FE2046BDE8F88388
:1037600000F05EFD8742F4D201377FB284F84570E5
:103770000124EFE7636A002BEBD004F1240001F091
:10378000B1F80028DFD1E4E7F0B5044685B00F4674
:10379000019201F09DF9A56B002D53D1019BA3B3BC
:1037A00002A801F0FFF82E4601F02CFE00F02AFDE1
:1037B00001F08EF994F84430FF2B08BF84F8446080
:1037C00094F84530FF2B08BF84F8456001F01AFEDD
:1037D00001A902A801F07AFDE0B901F079F9A36B23
:1037E0002BBB01F00FFE019904F1240000F0C2FF91
:1037F0002046FFF727FE01F0D5FC00B301F068F981
:10380000A56BFDB9019B002BCED101F0FBFD002083
:1038100005B0F0BD2046FFF715FE01F0C3FC01F036
:1038200057F9A36B002BF0D001F0ECFDE6E701F0B7
:10383000E9FD2046FFF706FE01F0B4FCDEE701F0EB
:1038400035F9DBE7226C5AB1E168A368114499426B
:10385000E16028BF2168384628BFE16002F00EFB16
:103860002369013DA56323B901F0CCFD012005B01A
:10387000F0BD04F1100001F035F80028F4D001F09B
:1038800015F9F1E7002955D0444B5A68904272D09F
:103890001A6810B4002A2CD0DA6890427BD09A685B
:1038A000002A41D05A69904273D01A69002A42D046
:1038B000DA69904265D09A69002A42D05A6A9042E9
:1038C00044D01A6A002A45D0DA6A90425BD09A6ADC
:1038D000002A44D05A6B904257D01A6B002A43D02A
:1038E000DA6B904253D09B6B002B42D05DF8044BB7
:1038F0007047DA6890424ED05A69904249D01A46D1
:10390000DC69A0423DD05C6AA0421FD0DC6AA042C4
:1039100039D05C6BA04238D0DC6BA04237D0C2E912
:1039200000105DF8044B70475A69904231D003F1A2
:103930000802E5E77047DA69904222D003F11002ED
:10394000E1E75A6A904201D0154ADFE7042203EB0F
:10395000C202E4E7DA6A904215D0124AD9E75A6BFC
:10396000904212D0104AD7E7DA6B90420FD00F4A3C
:10397000D5E70F4AD3E7002203EBC202C2E90010E9
:1039800070470322E3E70522E1E70622DFE707228B
:10399000DDE70222DBE70122D9E700BFE80A0020C9
:1039A000000B0020080B0020100B0020180B00203B
:1039B000200B002070B504460E46154601F088F82D
:1039C00094F84430FF2B04BF002384F8443094F86B
:1039D0004530FF2B04BF002384F8453001F012FD71
:1039E000A36B23B12046BDE87040FFF72BBD04F167
:1039F00024002A46314600F027FF2046BDE87040EB
:103A0000FFF720BD064C08B5FFF776F92368022BB7
:103A100000D8FEE7FFF770F92368022BFAD8F8E721
:103A2000980D0020F8B5836B002B02DB836B012B14
:103A300016DD324C036B26685A1E276823689B6B81
:103A4000002B03DB23689B6B012B0ADD666865682E
:103A500063689B6B002B03DB63689B6B012B20DD92
:103A6000F8BD27490D68002DF0D1FF6B336B07F0CF
:103A700001069B1B9A42E9DB4668F607E6D5D4F8B7
:103A800004C067686268926B002A1ADB6268926BF6
:103A9000012A16DC4E68A6B91A46FD6BDCF83030F8
:103AA00007E017494B68002BDAD1336B4FF0FF3634
:103AB000ED6B05F001055B1B934219DD0136CFD09C
:103AC00000254FF050431B689D420DD054F825301F
:103AD0009B6B0233C4D02846FFF7B4FA6FF00102A3
:103AE00054F825309A63F8BD012341F82530F8BD1C
:103AF00043689B07E2D50125E3E700BF7C0D00206A
:103B0000B03302204FF050411B4B0A6853F822009B
:103B100000282CD053F82200013843F822000A680C
:103B200053F822301BBB10B51449154B53F82240F3
:103B30000B78013BDBB20B702BB9124800F8123046
:103B4000114AC2E88F3F4FF050424B781068013B5A
:103B5000DBB24B7033B90B4A0C4902EB4002537095
:103B6000C1E88F3F0020FFF7ABFA0CB910BD7047DA
:103B7000BDE81040FFF7C0B8D81002203410022072
:103B8000B033022030100220E60C0020E70C0020A9
:103B90002DE9F8430D460A9C960032460746A521BA
:103BA000606B9846DDF8249002F0FCF8636B043EED
:103BB0001E4426F00706002D3ED02B7884F84030B6
:103BC000002B36D06B7884F8413093B3AB7884F80F
:103BD000423073B3EB7884F8433053B32B7984F8D5
:103BE000443033B36B7984F8453013B3AB7984F840
:103BF0004630F3B1EB7984F84730D3B12B7A84F8AF
:103C00004830B3B16B7A84F8493093B1AB7A84F819
:103C10004A3073B1EB7A84F84B3053B12B7B84F884
:103C20004C3033B16B7B84F84D3013B1AB7B84F8EF
:103C30004E30002384F84F30089D04F108001F2DFA
:103C400028BF1F252563A565FFF782FBC5F1200569
:103C500004F11C00FFF77CFB43463A463046616B9B
:103C6000E5616461A462FFF769F84FF0FF320A4B27
:103C700020609F42A26309D0084B9F4206D0B9F151
:103C8000000F01D0C9F80040BDE8F883E36B43F0B2
:103C90000103E363F3E700BFAD400010053A0010F5
:103CA0004FF05042504B12682DE9F047DFF8449135
:103CB0004E4CDFF8448153F822604D4D40E0DFF870
:103CC0003CA10020FFF7FCF9FFF7EEF94FF050435D
:103CD0001B68DAE8CF2F0121002A01D1CAE8421F70
:103CE000BFF35F8F002A50D15B0001224344627012
:103CF0005A704FF050431A68D5E8CF3F0121002B8E
:103D000001D1C5E8431FBFF35F8F73B118F81230BC
:103D1000002B4BD1D5E8CF1F01230029FAD1C5E8EC
:103D2000413F0029F6D1BFF35F8F0123237008F8CC
:103D300012304FF050431A6849F82270002F40D0DB
:103D4000B36B02334ED14FF050410A6859F82270DC
:103D50006FB1002349F8223023780A68013BDBB2B7
:103D6000237023B908F81230C5E88F3F0A686378DA
:103D7000013BDBB26370002BA1D108EB4202DFF8FC
:103D80007CA05370CAE88F3F9BE708EB4302527850
:103D90005B0012BBDAE8CF1F01220029FAD1CAE882
:103DA000412F0029F6D1BFF35F8F9EE723780133BF
:103DB000DBB223704FF050431A6849F82270002F8D
:103DC000BED11A682378013BDBB22370002BB7D138
:103DD00008F81270C5E88F7F6FE763780133DBB2B4
:103DE000637086E7BDE8F0877C0D00203410022068
:103DF000E60C0020D810022030100220E70C002032
:103E0000F8B5FFF751F94FF050420646354B1268AE
:103E1000D3E8CF1F0120002901D1C3E8410FBFF330
:103E20005F8F314D00293ED1510001232F4C294491
:103E300063704B702E4F3B68002B45D04FF05043C2
:103E40002C4A1968D2E8CF3F0120002B01D1C2E8EB
:103E5000430FBFF35F8F73B115F81130002B3CD1C6
:103E6000D2E8CF0F01230028FAD1C2E8403F002852
:103E7000F6D1BFF35F8F0123237005F811304FF0A7
:103E800050413B6801333B6023780968013BDBB25A
:103E900023701BB905F81130C2E88F3F3046BDE8EA
:103EA000F840FFF70DB9510005EB4202527872B9A4
:103EB000D3E8CF0F01220028FAD1C3E8402F002811
:103EC000F6D1BFF35F8FB0E7FFF7EAFEB6E7074C26
:103ED00063780133DBB26370ACE723780133DBB284
:103EE0002370CCE7E70C00203010022034100220B1
:103EF000EC200220E60C00202DE9F843614C624DD5
:103F0000624EDFF8A481624F2368002B42D0FFF796
:103F1000CBF82B6893B14FF050431B6856F8232021
:103F2000002A40D04FF0504156F82320013246F885
:103F300023200B6856F82330012B2DD023680BB3B8
:103F4000544BDB68D3F80C90D9F83830013340F08B
:103F50008A8009F10800FFF725FA4F4A1368013BF0
:103F600013602368013B23602B680BB1FFF7CAFD88
:103F700099F87930002B7DD0012BC5D14846FEF74A
:103F80008FFDC1E72B68002BBED0FFF7BBFD236878
:103F9000002BBCD1BDE8F883D8F80030002BCDD180
:103FA000FFF77EFECAE7D7E8CF2F0121002A01D113
:103FB000C7E8421FBFF35F8F002A35D1374A590047
:103FC00001233748114443704B704FF0504C354B30
:103FD000DCF80010D3E8CFEF5FF00109BEF1000F6D
:103FE00001D1C3E84E9FBFF35F8FBEF1000F12D027
:103FF00012F811E0BEF1000F2ED1D3E8CFEF5FF041
:10400000010CBEF1000FF8D1C3E84ECFBEF1000F96
:10401000F3D1BFF35F8F01234FF0504C037002F8D0
:104020001130DCF800307DE71C4A590002EB4303F5
:104030005B785BB9D7E8CF0F01230028FAD1C7E836
:10404000403F0028F6D1BFF35F8FB9E714484378AB
:104050000133DBB24370B8E703780133DBB203709E
:10406000DCF800305EE72B68002B93D0BDE8F84306
:10407000FFF748BDD9F83400FEF712FD4846FEF7B9
:104080000FFD41E7E810022080320220D810022004
:10409000E70C002014330220E4100220301002202C
:1040A00034100220E60C0020EC20022008B5FEF7B8
:1040B00023FE044CFFF720FF2368022BFAD9FEF7FA
:1040C0001BFEF7E7980D00202DE9F84F4FF0504503
:1040D000464A474B474C0F46D4F800A0464ED2F80C
:1040E00000800446D3F80090FEF7DEFF2B6856F8F8
:1040F00023B0FEF7E5FF00238BF87A30FEF7D4FFFC
:104100002B6856F823B0FEF7DBFF0BF10800FFF732
:1041100049F9631C00D18FBB4FF050451AEB0404E2
:104120002CBF01270027FEF7BFFF2B6856F823A0FE
:10413000FEF7C6FFCAF8084097B9FEF7B5FF2B682F
:1041400056F82350FEF7BCFF404605F10801FFF783
:1041500011F92A4B1A68A24288BF1C60BDE8F88F8B
:10416000FEF7A2FF2B6856F82340FEF7A9FF48464A
:1041700004F10801BDE8F84FFFF7FCB8204C676870
:10418000FEF792FF2B6856F82380FEF799FFC8F8D8
:104190000C70FEF789FF2B6856F82380FEF790FF1E
:1041A000BB68C8F81030FEF77FFF2B6856F82380F5
:1041B000FEF786FFBA6808F108035360FEF774FF44
:1041C0002B6856F82380FEF77BFF08F10803BB60DD
:1041D000FEF76AFF2B6856F82350FEF771FF23683D
:1041E000AC6101332360BDE8F88F00BF880D00206B
:1041F000900D0020283302207C0D00205832022030
:1042000000330220024B1B6803B97047FFF7F8BD6B
:1042100080320220014B1868704700BF283302200B
:10422000014B1868704700BFE4100220814B2DE954
:10423000F0471B685BBB804B1D6801351D6075B383
:10424000DFF81882D8F80030AB4240D97B4C7C4D67
:104250002B681B6B03EB830354F82330012B6B6833
:104260001B6B03EB830354F8233040F28F80012B48
:104270004FF050431E6840F2A380002E00F0CB8028
:104280002B689B6B023300F0AE8001249EE000247B
:104290006C4A1368013313602046BDE8F0876A4B0F
:1042A0006A4A186811681960694910600A68013221
:1042B0000A601A681268002A74D14FF0FF33DFF8E1
:1042C0009C81C8F80030D8F80030AB42BED8DFF887
:1042D0007891D9F800301B68002B00F09E800026F2
:1042E000564C5C4F44E09969D3E9032AC2F808A010
:1042F000CAF804204A68184662450A6808BFC1F82F
:1043000004A0013A9E610A60D96A71B1D3E9082A12
:10431000C2F808A0CAF804204A6872450A6808BFB3
:10432000C1F804A0013ADE620A601A6BD7F800E017
:1043300002EB8201724504EB810E88BF3A60DEF821
:104340000420D2F808A0DA60C3F810A0CAF804C0AC
:10435000C2F808C054F82120C3F818E0013244F82C
:104360002120FFF75FFBD9F800301B68002B55D0E8
:10437000D9F80030DB68DB689A6803F1080C9542D5
:1043800003F11C0EAFD2C8F8002060E7012B11D951
:104390004FF05042304B16681B6823B3002E7FF459
:1043A0006FAF38E01B68DFF8B480DB681B68C8F8C3
:1043B000003047E74FF05041274B0E681A6872B142
:1043C00036B32B689B6B023308D000240020FEF725
:1043D00039FE6FF001022B689A6324B91E4B5C68AA
:1043E000002C3FF459AF012E1DD000244FF0504354
:1043F0001B68012B1BD06B689B6B02333FF44CAFE7
:104400000120FEF71FFE6FF001026B689A6343E71D
:10441000114B5B683BB10124E8E7084C4FF0FF33D8
:10442000C8F8003013E701242046BDE8F0870A4AA7
:10443000536031E7EC20022028330220980D002041
:104440007C0D002068320220880D0020900D002095
:104450005C320220F4300220B033022058320220B5
:104460002DE9F84F4FF050430446DFF8A0A21B6837
:10447000DAE8CF2F0121002A01D1CAE8421FBFF399
:104480005F8FDFF88C82002A4CD15A0001239A4EAC
:104490004244737053704FF05043DFF878921A68BB
:1044A000D9E8CF3F0121002B01D1C9E8431FBFF359
:1044B0005F8F7BB118F81230002B40F0B180D9E843
:1044C000CF1F01230029FAD1C9E8413F0029F6D1C5
:1044D000BFF35F8F0123337008F81230874B1B68DE
:1044E000002B31D001214FF05043854A42F824106F
:1044F000D3F800C03378013BDBB233701BB908F846
:104500001C30C9E88F3F4FF0504273781268013B6E
:10451000DBB2737023B908EB42025370CAE88F3FD5
:10452000BDE8F88F5A0008EB43035B78002B7CD181
:10453000DAE8CF1F01230029FAD1CAE8413F002958
:10454000F6D1BFF35F8FA1E76D4A6E4D42F824307C
:104550006D4ADFF8C4B1176855F82430996955F8E9
:1045600024301B6B03EB83030BEB8303994268D06E
:10457000012007EB87030BEB830319680833A04086
:1045800051B91168143B01391160002F54D053F810
:10459000081C013F0029F4D0B446596899422DD037
:1045A000BE4606E055F82460B2422FD049689942D1
:1045B00023D0CA68966B771CF4D157683842F5D07F
:1045C0006346944632461E464FF0504355F8241039
:1045D0008A6355F82410CCF8384045F824C0D3F845
:1045E00000C039B1086B8B6900EB80070BEB870BC0
:1045F0005B4539D055F82C307CE77746143BD7B172
:1046000053F8082C013F002AF8D0C6E7566830421C
:10461000CCD04FF0504394636646D3F800C0E9E72E
:1046200033780133DBB2337058E7334E737801339C
:10463000DBB273702FE766464FF05043D3F800C0EB
:10464000D8E755F824000830FEF7ACFE55F82430C2
:1046500055F82410186B083100EB80000BEB80003C
:10466000FEF77AFE284A83E74B68C96B01F0010127
:10467000411A23FA04F0C70704D555F8240040680E
:1046800023EA00039C0703F0030064D568686C68A4
:10469000006BE46B03F0010304F00104001B814292
:1046A0003CDC002BA6D02B6828681B6BC06B00F08D
:1046B00001001B1A99429DDD2B689B6B002B99DB37
:1046C0002B689B6B012B4EDD013293D00124644596
:1046D00044D055F824309B6B02338BD02046FEF734
:1046E000B1FC6FF001014FF0504355F82420916365
:1046F000D3F800C07EE700BF34100220EC20022077
:10470000B03302207C0D0020F4300220E70C0020A2
:1047100030100220E60C0020980D00206C68A46B7D
:10472000002CBEDB6C68A46B012CBADC104C6468F6
:10473000002CB6D1002BC9D02B6829681B6BC96B24
:1047400001F001015B1A9842C0DD2B689B6B002BC6
:10475000BCDB0122B4E70028A5D14BE70123044AC2
:1047600042F82C3068E7024B1C68002CAFD0ABE756
:10477000B033022070B50C460546FEF795FC4FF0AD
:104780005042084B126853F82260FEF799FC284605
:1047900006F11C01FEF7EEFD2046BDE87040012148
:1047A000FFF792BC7C0D00202DE9F8434FF05046F6
:1047B0000F4604469046234DFEF776FC336847F0DB
:1047C000004755F82390FEF77BFCC9F81C7067681A
:1047D000FEF76AFC336855F82390FEF771FCC9F8C0
:1047E0002070FEF761FC336855F82390FEF768FCF3
:1047F000BB68C9F82430FEF757FC336855F823909E
:10480000FEF75EFCBA6809F11C035360FEF74CFC2E
:10481000336855F82390FEF753FC09F11C03BB6085
:10482000FEF742FC336855F82350FEF749FC01219E
:10483000236840460B44EC622360BDE8F843FFF771
:1048400043BC00BF7C0D00202DE9F0474FF05046DF
:10485000044617468946D0F80480214DFEF724FC13
:10486000336855F823A0FEF72BFCCAF82080FEF72A
:104870001BFC336855F823A0FEF722FCD8F808305B
:10488000CAF82430FEF710FC336855F823A0FEF771
:1048900017FCD8F808200AF11C035360FEF704FC4B
:1048A000336855F823A0FEF70BFC0AF11C03C8F887
:1048B0000830FEF7F9FB336855F82350FEF700FC8B
:1048C0002368002F03F10103EC62394608BF484614
:1048D000236018BF4FF0FF30BDE8F047FFF7F4BB8F
:1048E0007C0D002070B50025C368D868C36AD0E984
:1048F0000842A26054605C6800F11C018C42244CA8
:1049000008BF5A601A682468013AC5621A60002C10
:1049100032D1D0E9031283698A605160596800F18D
:104920000805A94208BF5A601A681A49013A1A6074
:10493000036B0A689342184A88BF0B6003EB83033A
:104940004FEA830C02EB83035C6852F80C10A668F4
:104950000131C46006617560A560836142F80C1086
:10496000FFF760F84FF050420C4B126853F82200EA
:10497000003818BF012070BD094B5C68A268C0E90F
:10498000084251601A68A1600132C3621A60E7E709
:10499000EC200220F4300220980D0020B0330220D9
:1049A0006C320220034A044B12681B68C0E90023E2
:1049B000704700BF5C320220283302204FF0504283
:1049C0000121024B126843F822107047B0330220D5
:1049D00010B5FEF769FB4FF05042044B126853F8D4
:1049E0002240FEF76DFB204610BD00BF7C0D00206D
:1049F00058B1C36D016B826D013B914270B50446A5
:104A0000C36500D01BB1002070BD0020704700F1CD
:104A100008052846FEF7C6FC204AA36D11682363EB
:104A20008B4288BF13601E4AC3F1200003EB83034F
:104A30004FEA830C02EB8303E061586852F80C10D4
:104A40008668E060266175608560A361A36B0131B3
:104A5000002B42F80C1002DBA36B012B01DD0120BF
:104A600070BD4FF05043A26B1B689A4210D0A36BED
:104A70000C4D55F823309B6B0233F0D0A06BFEF742
:104A8000E1FA6FF00102A36B55F823309A63E6E771
:104A90000121A26B044B43F82210E0E7F43002201E
:104AA000980D00207C0D0020B03302204FF05043C1
:104AB000054A1B6852F8232022B10121034A42F81B
:104AC00023107047FEF718B9D8100220B033022027
:104AD00038B5FEF7E9FA3E4B1B6893B14FF05043EF
:104AE0003C4A1B6852F82310A1B14FF0504052F8D5
:104AF0002310013142F82310036852F82330012BB0
:104B000000D038BD344B1B68002BFAD1BDE83840CB
:104B1000FFF7C6B83149D1E8CF0F0124002801D1F1
:104B2000C1E8404FBFF35F8F002831D12C484FEAD6
:104B3000430C01232B4984444B708CF801304FF017
:104B4000504C294BDCF80040D3E8CF5F5FF0010EFA
:104B5000002D01D1C3E845EFBFF35F8F85B110F899
:104B60001450002D27D1D3E8CFCF0125BCF1000F81
:104B7000F9D1C3E84C5FBCF1000FF4D1BFF35F8FF4
:104B800001234FF050450B7000F814302B68ACE750
:104B900013484FEA430C00EB43035B7893B9D1E829
:104BA000CF4F0123002CFAD1C1E8443F002CF6D1AD
:104BB000BFF35F8FBDE70B780133DBB20B70DCF81E
:104BC000003092E707494B780133DBB24B70B6E710
:104BD00080320220D8100220EC200220E70C0020B6
:104BE0003010022034100220E60C00202DE9F041A4
:104BF0000546FFF76DFF2E4A2E4F136801331360F1
:104C00003B6853B32C4E2D4B05F108041A68013252
:104C10002A651A602A4A2B6B11688B4288BF136081
:104C200003EB8303980006EB830359683258D1F8ED
:104C300008C0D7F800E00132E960C5F810C0CCF830
:104C400004408C60AB613250BEF1000F2CD13B6848
:104C500043B3BDE8F041FEF755BF1368164E012B74
:104C6000D1D1344606F5207820461434FEF764FB93
:104C70004445F9D1DFF86480124C4046FEF75CFBF6
:104C80002046FEF759FB1048FEF756FB0F48FEF78B
:104C900053FB0F48FEF750FB0E4BC3F800800E4B42
:104CA0001C60B0E7BDE8F0812846FEF7BBFECEE70A
:104CB000E410022080320220980D0020F020022013
:104CC000F4300220343102206C32022014330220EE
:104CD00000330220880D0020900D0020203102209A
:104CE0002DE9F0477C2682B00C9C01969846DDF8B1
:104CF0002C90019B002C00F09380B9F1000F00F084
:104D00008B809246074632460D462046002101F030
:104D100049F802230AFA03F632464846A52184F8E8
:104D20007930C4F8349001F03DF8606B043E3044B3
:104D300020F00706002D3ED02B7884F84030002B61
:104D400036D06B7884F8413093B3AB7884F8423036
:104D500073B3EB7884F8433053B32B7984F8443041
:104D600033B36B7984F8453013B3AB7984F84630AC
:104D7000F3B1EB7984F84730D3B12B7A84F848301B
:104D8000B3B16B7A84F8493093B1AB7A84F84A3086
:104D900073B1EB7A84F84B3053B12B7B84F84C30F1
:104DA00033B16B7B84F84D3013B1AB7B84F84E305C
:104DB000002384F84F300A9D04F108001F2D28BFFE
:104DC0001F252563A565FEF7C3FAC5F1200504F18B
:104DD0001C00FEF7BDFA43463A463046616B6461FB
:104DE000E561A462FDF7AAFF4FF0FF320E4B206091
:104DF0009F42A2630BD00D4B9F4208D00D9B2046D3
:104E00006360FFF7F3FE204602B0BDE8F087E36B76
:104E100043F00103E363F1E7484602B0BDE8F087E1
:104E2000204602B0BDE8F087AD400010053A001002
:104E30002DE9F043074685B090001646884699460E
:104E4000FDF7A4FD10B305467C20FDF79FFD044649
:104E5000C8B17C22002100F0A5FF65630D9D4B4683
:104E600001950C9D32464146384602940095FEF766
:104E70008FFE4FF0FF3320466360FFF7B7FE01203F
:104E800005B0BDE8F0832846FDF70AFE4FF0FF307D
:104E900005B0BDE8F08300BF2DE9F04F7C274FF04F
:104EA000020B4B4D83B04B4C002128463A460197EC
:104EB000019B00F077FF4FF40062A52120466C6350
:104EC00085F879B000F06EFF30234FF02009DFF84D
:104ED00030A105F1080085F84430C5F840A0FEF780
:104EE00037FA05F11C00FEF733FA04F2FC70696B27
:104EF000394A002320F007006D61C5F81C90AD62AF
:104F0000FDF71CFF4FF0FF364FF00008EB6B2860F9
:104F100043F001032846EB63AE636E60FFF766FE65
:104F20002E4B2F4A2F4CC5F838801D6015602E4D32
:104F30003A46414601972046019B00F033FF4FF46B
:104F40000062A521284684F879B0656300F02AFF45
:104F5000312304F1080084F84430C4F840A0FEF77F
:104F6000F7F904F11C00FEF7F3F905F2FC701F4A93
:104F7000616B434620F00700C4F81C906461A46292
:104F8000FDF7DCFEE36B206043F001032046E363A2
:104F9000A6636660FFF72AFE0123114AA3630F4B45
:104FA00054605C6000F038FE012804D0104B1B6890
:104FB00003B0BDE8F08F0446FEF776F80D490E4ABF
:104FC0000E4B0E601460C3F80080FDF7F3FEEDE7B2
:104FD00058310220EC100220AD4000105031022068
:104FE0007C0D0020D4310220EC180220053A00107C
:104FF000E86100105832022080320220283302205B
:1050000049444C452DE9F047FFF762FD4FF0504011
:10501000574A584913680568013B13604B7800688C
:10502000013BDBB24B7033B9534901EB40014B708C
:105030005249C1E88F3FD2F800C0BCF1000F6ED1D9
:105040004F4B1C68002C62D04E4F3B68002B48D061
:10505000DFF848E14C4EFB68DB68DA6AD3E90810F8
:1050600088604160516803F11C04A142116808BFC7
:1050700050600139C3F82CC011609969D8681A6969
:105080004C688260506003F10800844208BF4A60A7
:105090000C681A6BDEF80080013C424502EB820A84
:1050A0000C603ED906EB8A046168CEF80020D1F886
:1050B000088056F82A20D960C3F81080C8F8040088
:1050C00088609C613B68013246F82A20002BC2D1DF
:1050D0002E4B1A681268002A43D14FF0FF322C4B36
:1050E0001A60DFF8BC80D8F80040002C32D00127CD
:1050F000284EFFF79BF808B146F82570013CF8D11F
:10510000C8F8004056F82540003C18BF0124224B47
:105110001B680BB1FEF7F6FC2046BDE8F0870024C3
:10512000F5E706EB8A04616856F82A20D1F8088072
:10513000D960C3F81080C8F8040088609C613B689F
:10514000013246F82A20002B85D1104B1A681268CC
:105150003AB9C2E70F4E56F82540003C18BF01246B
:10516000D5E71A680A4BD26812681A60B9E700BF1F
:10517000EC2002203410022030100220E70C002026
:10518000E41002206C320220980D0020880D0020CF
:1051900058320220B033022080320220F430022044
:1051A00068320220024B186800B97047FFF72ABF27
:1051B0008032022070B51C4E054633680C465BBB3E
:1051C0001A4A2B6810681C192CBF01220022834246
:1051D00011D98AB933682C600024C3B94FF0504309
:1051E000134A1B6852F82320CAB10121114A42F820
:1051F0002310204670BD0AB9A042EBD22C60201AC1
:105200000021FEF761FF33680124002BE6D0FFF791
:10521000F9FE0028E2D0ECE7FEF7F2FDD0E7FDF75B
:105220006BFD204670BD00BF803202202833022073
:10523000D8100220B0330220F8B5D0E9015200277F
:10524000036941F0004101605968C4688142AA6065
:10525000556008BF5A601A68D4E90361013A0761D2
:105260001A60A36904F108055A68B160AA421A6875
:105270004E6008BF59601249013A1A60236B0A68F0
:105280009342104A88BF0B6003EB8303980002EB44
:10529000830359688E68E160266175608D601158DE
:1052A000A36101311150FFF713FC2046FEF7BAFB52
:1052B000054B1B681BB1BDE8F840FEF723BCF8BDE9
:1052C000F4300220980D0020803202202DE9F84FA2
:1052D00004464FF05047DFF894A00D46204EFFF7EC
:1052E000F7FBDAF80090D4F80480FDF7DDFE3B68A8
:1052F00056F823B0FDF7E4FE9BF87A3023BB2B6809
:105300005A1C18D0174A21681068814206D061687B
:10531000494503D800232B6001240DE0A9EB0801C7
:105320008B42F7D91168A3EB0903DAF80020434454
:105330002B60C4E9001200240B4B1B680BB1FEF775
:10534000E1FB2046BDE8F88FFDF7AEFE3B6856F85E
:105350002340FDF7B5FE002384F87A30DCE700BF78
:105360007C0D00205C320220803202202833022093
:105370001F4B186800B9704770B5FDF795FE4FF0E8
:1053800050421C4C136854F8231029B154F82320C0
:10539000013244F8232070BD1749D1E8CF5F0126C0
:1053A000002D01D1C1E8456FBFF35F8F4DB9134D9B
:1053B000012213490A7005F813204FF050431B686F
:1053C000E4E70E4D15F813605EB9D1E8CF6F012206
:1053D000002EFAD1C1E8462F002EF6D1BFF35F8F21
:1053E000E6E707490B780133DBB20B701368CDE7B2
:1053F00080320220D8100220E60C0020301002205B
:10540000341002201E4B1B68002B34D04FF050414B
:105410001C4B0A6853F8220000282CD053F82200B5
:10542000013843F822000A6853F822301BBB10B53C
:105430001549164B53F822400B78013BDBB20B7039
:105440002BB9134800F81230124AC2E88F3F4FF0D0
:1054500050424B781068013BDBB24B7033B90C4AB9
:105460000D4902EB40025370C1E88F3F0020FDF769
:1054700027FE0CB910BD7047BDE81040FDF73CBCDD
:1054800080320220D810022034100220B0330220D3
:1054900030100220E60C0020E70C0020134B1B68A4
:1054A00003B970474FF05041114B0A6810B453F8DC
:1054B0002240C4B153F82240013C43F822400A681C
:1054C00053F822307BB90B490B78013BDBB20B70F0
:1054D0002BB9094C094904F81230C1E88F3F5DF837
:1054E000044BFDF7EDBD5DF8044B704780320220A0
:1054F000D81002203410022030100220E60C0020C8
:10550000F8B54FF05046FDF7CFFD0D4D336855F817
:105510002340FDF7D5FDE769FDF7C6FD336855F873
:105520002340FDF7CDFD246BFDF7BEFD3368C4F1CC
:10553000200455F82350FDF7C3FD3846EC61F8BD53
:105540007C0D00202DE9F84F554E044635688A46FB
:1055500091461F46002D40F087804FF0504BFFF7DB
:10556000B7FA504DFDF7A0FDDBF8003055F8238069
:10557000FDF7A6FDA04498F87830022B41D133689E
:10558000BBBB3368002B39D1FFF7A2FA6FB1FDF72F
:105590008BFD4FF050431B6855F82380FDF790FDBD
:1055A00008EB8408D8F874303B604FF05048FDF7A2
:1055B0007BFDD8F8003055F82370FDF781FD2744B6
:1055C00097F87830022B52D00027FDF76DFD4FF091
:1055D00050431B6855F82350FDF772FD0023254406
:1055E00085F8783033680BB1FEF78CFA3846BDE8A1
:1055F000F88FFEF787FA3368002BC5D0FFF702FD5E
:10560000C2E7FDF751FDDBF8003055F82380FDF7C8
:1056100057FD08EB84035A6F22EA0A025A67FDF726
:1056200043FDDBF8003055F82380FDF749FD0123E9
:10563000A04488F878300A9B002BA0D033680BB1C7
:10564000FEF760FA01210A98FEF73EFD3368F3B9D0
:105650004FF05043144A1B6852F82320EAB101214D
:10566000124A42F823108FE7FEF7CAFB75E7FDF7F1
:105670001BFDD8F80030012755F82380FDF720FDE9
:1056800008EB84035A6F22EA09025A679DE7FFF785
:10569000B9FC00287FF478AFDAE7FDF72DFB73E75C
:1056A000803202207C0D0020D8100220B03302206E
:1056B0002DE9F84FDFF8F0811E4604460D461746E7
:1056C000DDF82890FDF7F0FCD8F800309BB14FF0E2
:1056D00050436D4A1B6852F8231000296CD04FF0DC
:1056E000504052F82310013142F82310036852F859
:1056F0002330012B59D0B9F1000F04D004EB8503FE
:105700005B6FC9F800300220621992F87810731E9E
:1057100082F87800C9B2032B09D8DFE803F0403AD9
:105720000502022900F08C8004EB85056F670129D2
:1057300026D1D4E90312A3698A605160596804F143
:105740000800814208BF5A601A68013A1A604F4A3D
:10575000236B11688B4288BF13604D4A03EB8303B0
:1057600002EB830569689B008E68E16026617060CA
:105770008860D158A56101312046D150FEF752F919
:105780000124D8F800300BB1FEF7BCF92046BDE883
:10579000F88F04EB85056B6F01336B67C7E704EB8C
:1057A00085056B6F3B436B67C1E73A4B1B68002B6A
:1057B000A1D1FEF775FA9EE73749D1E8CF0F5FF028
:1057C000010C002801D1C1E840CFBFF35F8F002852
:1057D00038D132484FEA430C0123314984444B709D
:1057E0008CF801304FF0504E2E4BDEF800C0D3E85D
:1057F000CFAF5FF0010BBAF1000F01D1C3E84ABF90
:10580000BFF35F8FBAF1000F12D010F81CA0BAF1ED
:10581000000F2CD1D3E8CFAF5FF0010EBAF1000F2B
:10582000F8D1C3E84AEFBAF1000FF3D1BFF35F8FAD
:1058300001230B7000F81C304FF050431B684EE7FB
:1058400000249EE715484FEA430C00EB43035B78C6
:10585000A3B9D1E8CFEF0123BEF1000FF9D1C1E820
:105860004E3FBEF1000FF4D1BFF35F8FB4E70B786A
:105870000133DBB20B70DEF8003030E708494B78BB
:105880000133DBB24B70ADE7D8100220F4300220B8
:10589000980D0020EC200220E70C002030100220A0
:1058A00034100220E60C0020803202204FF4806386
:1058B00030B4034D034C05600C60136030BC70477E
:1058C00034330220F42002202DE9F04FB74FDFF8E7
:1058D000E4B2DFF8E482B64D87B03B681C68002C68
:1058E00040F01D81FEF78EFCFEF794FCDBF80030E3
:1058F0008146834248D8D8F80030CBF800001A68B7
:10590000B2FA82F252092868A4EB0901FEF752F8B4
:10591000FFF748FC002800F024810023CDE9023382
:10592000CDE904330022286802A9FDF72DFF0028E5
:10593000D3D0029B0498002BC0F2E980DDF810A0C0
:10594000DAF814301BB10AF10400FDF72BFDFEF765
:1059500061FCDBF800300190984243D3DDE901237C
:10596000013BCBF80020082BDCD8DFE803F06161B5
:10597000C0A5C76161C0A50022F001028AF82820F5
:105980005046DAF8203098473B681A68002A00F041
:10599000D880DA68D2F80CA014680AF10406304600
:1059A000FDF700FD9AF828205107E5D503E05046A1
:1059B000DAF820209047DAF81820CAF810A0111958
:1059C000A418CAF80410F2D33146D8F80000FDF745
:1059D000D1FCD5E721F0010189F828104846D9F813
:1059E000203098473B681968002900F0B480D968D6
:1059F000D1F80C900C6809F104063046FDF7D2FC92
:105A000099F828104807E5D503E04846D9F8201052
:105A10008847D9F81810C9F8109008196418C9F8FF
:105A20000400F2D33146D8F80000FDF7A3FCD5E717
:105A30009AF828000399DAF81840019A0B1940F0F7
:105A400001068AF828602CBF012600269342CAF876
:105A50000430CAF810A000F28780511A8C423FD857
:105A6000410712D420F001008AF828005046DAF8E5
:105A70002030984756E78C4200F2C680DAF8203092
:105A8000504698473346DAF81840019AE6182CBF7A
:105A900001200020B242A2EB0301CAF80460CAF858
:105AA00010A0E8D29A4201D20028E7D038680AF163
:105AB0000401FDF75FFCD9E70399019A9AF82830B1
:105AC000881843F0010390428AF82830CAF8181069
:105AD000CAF80400CAF810A04BD800293FF422AF3E
