:020000041000EA
:10000000002008205D0100101B0100101D010010E0
:100010001101001011010010110100101101001058
:100020001901001019010010190100101F01001022
:10003000110100101901001021010010230100100E
:100040001101001011010010110100101101001028
:100050001101001011010010110100101101001018
:100060001101001011010010110100101101001008
:1000700011010010110100101101001011010010F8
:1000800011010010110100101101001011010010E8
:1000900011010010110100101101001011010010D8
:1000A00011010010110100101101001011010010C8
:1000B00011010010110100101101001011010010B8
:1000C00011010010110100101101001011010010A8
:1000D0001101001011010010110100101101001098
:1000E0001101001011010010110100101101001088
:1000F0001101001011010010110100101101001078
:100100001101001011010010110100101101001067
:10011000EFF30580103800BE00BE00BE00BE00BE7A
:1001200000BE00BEF2EB88710C7D0010387D00101F
:10013000A001001090A31AE7D3DEFFFF42012110B7
:10014000FF01000088840000793512AB4FF00000F9
:100150001E49086006C881F3088810474FF05040D8
:10016000006810B14FF00000F2E70DA40ECC00299A
:1001700002D000F012F8F9E71549164A002000E015
:1001800001C19142FCD11449884714498847144958
:10019000884700BEFDE701C901C29A42FBD3704700
:1001A000387D00101001002098090020C085001043
:1001B0000000082000000820C08500100010082062
:1001C00000100820000000007047000008ED00E06B
:1001D00098090020F0330220553900101103001057
:1001E0004D390010F8B500BF0348044B834202D0DC
:1001F000034B03B118477047980900209809002065
:1002000000000000064B0749C91A891048BF013198
:10021000491003D0044B0BB101481847704700BF89
:1002200098090020980900200000000010B5064C35
:10023000237843B9FFF7D8FF044B13B10448AFF359
:1002400000800123237010BD580B00200000000027
:10025000E47A001008B5044B1BB104490448AFF31D
:100260000080BDE80840CDE7000000005C0B0020E6
:10027000E47A001080B54FF0FF3800270A4D0B4E8E
:1002800082B00023CDF800801A461946184606F0C1
:100290009BFE00232C681A4664421946306800977A
:1002A0002C6006F047FFECE74810002054100020B7
:1002B0002DE9F04100242746114DDFF8508082B02F
:1002C000013421460F4803F035FD0023D8F8000023
:1002D0001A46194600974FF0FF362C6006F02AFFA9
:1002E0000023009619461A46184606F06DFE296846
:1002F000054803F01FFD4FF47A7006F0ABFCDFE712
:1003000048100020E87A0010F47A001058100020FD
:10031000022400B50E4D83B000F026F8CDE900456B
:100320000C4D00234FF400720B490C4806F0D0FA34
:1003300000234FF400720A49CDE90045094806F050
:10034000C7FA06F0F9FA4FF47A7001F03FFAFAE7CB
:100350005410002058100020047B0010B10200103F
:10036000107B00107502001080B582B000AF03F062
:1003700019FC192000F0B2FC0121192000F076F9D7
:10038000182000F0ABFC0121182000F06FF91720B5
:1003900000F0A4FC0121172000F068F9162000F0FD
:1003A0009DFC0021162000F061F9162000F062F992
:1003B0000F2000F093FC00210F2000F057F90F20D0
:1003C00000F058F9102000F089FC0021102000F006
:1003D0004DF9102000F04EF9112000F07FFC0021B3
:1003E000112000F043F9112000F044F91A2000F028
:1003F00075FC00211A2000F039F91A2000F03AF9B2
:100400001B2000F06BFC00211B2000F02FF91B20AB
:1004100000F030F91C2000F061FC00211C2000F0ED
:1004200025F91C2000F026F91D2000F057FC0021C2
:100430001D2000F01BF91D2000F01CF9022000F027
:100440004DFC0021022000F011F9022000F012F909
:10045000032000F043FC0021032000F007F90320F3
:1004600000F008F90D2000F039FC00210D2000F00B
:10047000FDF80D2000F0FEF80E2000F02FFC00210A
:100480000E2000F0F3F80E2000F0F4F8354936485D
:1004900003F044FE01210B2000F0EEFB01210A20B5
:1004A00000F0EAFB092000F019FC0121092000F00E
:1004B000DDF80421092000F0DFFB092000F08EF8B0
:1004C00078606421786800F093F80021092000F03A
:1004D00099F80121786800F0B5F80C2000F0FEFBD7
:1004E00001210C2000F0C2F80021092000F0BAF828
:1004F0001E4B00221A601D4800F046F81C491D489A
:1005000003F05EFF0321142000F0B6FB0321152049
:1005100000F0B2FB142000F0ADF8152000F0AAF8AE
:1005200000F0C2F8144800F0F1FA0346002B02D0A4
:10053000124B01221A704FF4E131114801F080FA98
:100540000221042000F098FB0221052000F094FB1A
:10055000082000F08FFB03460A4A136000BF0837EB
:10056000BD4680BD40420F00008008405010002072
:10057000A08601007C090020280D0020ED33022018
:1005800000800740A80D002080B582B000AF7860E1
:100590007B6802331B781A467B6801331B781B0289
:1005A0001A437B681B781B0413431A46094B1A60D5
:1005B00003220849084807F067FA01210C2000F0DF
:1005C00051F800210C2000F04DF800BF0837BD465F
:1005D00080BD00BF501000200080084043081F2845
:1005E00092BF03F0070003F003000830704700BF1C
:1005F00000EB8000800000F1804000F528200161C0
:10060000704700BF43081F288ABF03F0030303F0AD
:1006100007030833094A03EB83039B001A44C3070B
:1006200058BF4FF6FF70136844BF054809044B409C
:1006300002F5805203401360704700BF0C800A40EF
:100640000000FFFF00EB8000800000F1804000F51B
:1006500028231B6800F52920594001F001010160A1
:10066000704700BF41EC4000704700BF41EC4400C0
:10067000704700BF0022012100F01CBB80B584B090
:1006800002AF03460A46FB711346BB71FA1DB979E6
:10069000002300930123034803F0B8FE00BF08378E
:1006A000BD4680BD7C09002080B500AF70212120AF
:1006B000FFF7E4FF7021A020FFF7E0FF7021812009
:1006C000FFF7DCFF00F024F800BF80BD80B586B0E6
:1006D00002AF78600B467B807B68DBB25B00DBB2ED
:1006E0003B737B88DBB27B737B881B0A9BB2DBB2DC
:1006F000BB7307F10C02002300930323702103480E
:1007000003F084FE00BF1037BD4680BD7C09002089
:1007100080B500AF00210020FFF7D8FF00210120A5
:10072000FFF7D4FF00210220FFF7D0FF00210320B4
:10073000FFF7CCFF00BF80BD2DE9F0410125044645
:100740000B23002684B0009503AA8DF80C300F46C9
:100750002B4621783D4803F059FE00962B463B4836
:1007600021780DF10B0203F059FE9DF80B309B0729
:1007700021D04FF02A0800952B46217803AA334850
:100780008DF80C8003F042FE00962B4621780DF187
:100790000B022E4803F042FE9DF80B30009623F02A
:1007A00001038DF80D3021780223284803AA8DF823
:1007B0000C8003F02BFE012500264FF00E08217857
:1007C0002B4603AA009521488DF80C8003F01EFEED
:1007D00000962B4621780DF10B021C4803F01EFEFB
:1007E0009DF80B30009603F0FC0343EA97012A279B
:1007F0008DF80D1003AA2178022314488DF80C807F
:1008000003F004FE00952B46217803AA0F488DF8CB
:100810000C7003F0FBFD00962B4621780DF10B02C6
:100820000A4803F0FBFD9DF80B5000960223217847
:1008300045F0010503AA05488DF80C708DF80D50A0
:1008400003F0E4FD04B0BDE8F08100BF7C090020A6
:100850002DE9F041012504460B23002684B00095C4
:1008600003AA8DF80C3088462B4621783B4803F0CC
:10087000CDFD00962B46394821780DF10B0203F08F
:10088000CDFD9DF80B309B0720D02A2700952B46E5
:10089000217803AA31488DF80C7003F0B7FD00965B
:1008A0002B4621780DF10B022C4803F0B7FD9DF883
:1008B0000B30009623F001038DF80D3021780223D0
:1008C000264803AA8DF80C7003F0A0FD01252A2606
:1008D000002721782B4603AA009520488DF80C604C
:1008E00003F094FD00972B4621780DF10B021B4875
:1008F00003F094FD9DF80B20009702F0C70242EA36
:10090000C8018DF80D1003AA2178022313488DF831
:100910000C6003F07BFD00952B46217803AA0F485D
:100920008DF80C6003F072FD00972B4621780DF1D5
:100930000B020A4803F072FD9DF80B50009702234A
:10094000217845F0010503AA04488DF80C608DF864
:100950000D5003F05BFD04B0BDE8F0817C09002080
:100960002DE9F047012504464FF00B0C4FF000092C
:1009700084B000951746884603AA21781E4662482F
:100980002B468DF80CC003F041FDCDF800902B46AE
:1009900021785D480DF10B0203F040FD9DF80B300E
:1009A000990723D04FF02A0A00952B46217803AAF5
:1009B00055488DF80CA003F029FDCDF800902B468A
:1009C00021780DF10B02504803F028FD9DF80B3003
:1009D000CDF8009023F001038DF80D30217802232B
:1009E000494803AA8DF80CA003F010FD18F0800F01
:1009F00079D04FF00C0800253A060DD4002300935F
:100A0000242321788DF80C303F48022303AA8DF867
:100A10000D70454603F0FAFC33060FD4002325225F
:100A2000009345F030058DF80C20022321783648DC
:100A300003AA8DF80D60EDB203F0E8FC45F0400527
:100A40008DF80D5000252126217803AA0095022358
:100A50002D488DF80C6003F0D9FC43F22602009576
:100A60002178ADF80C20022303AA274803F0CEFC1E
:100A70004AF2270200952178ADF80C20022303AA40
:100A8000214803F0C3FC4FF6287201262A2700955F
:100A90002178ADF80C20022303AA1B4803F0B6FC12
:100AA00000963346217803AA17488DF80C7003F09E
:100AB000ADFC0095334621780DF10B02124803F08E
:100AC000ADFC9DF80B200095022342EA0605217833
:100AD00003AA0D488DF80C708DF80D5003F096FCAC
:100AE00004B0BDE8F08700230093232321788DF81C
:100AF0000C300548022303AA8DF80D80032503F06E
:100B000085FC4FF00F0877E77C0900202DE9F041C4
:100B10000178044684B011B91C23194603700126DC
:100B20000D23002503AA8DF80C305148334600965A
:100B300003F06CFC009533464D4821780DF10B0213
:100B400003F06CFC9DF80B702A2F03D0284604B0EC
:100B5000BDE8F0814FF0020820464146A4F801802C
:100B6000FFF7EAFD2046A178FFF772FE0B230096FF
:100B700021788DF80C3003AA33463D4803F046FC3B
:100B8000009533463A4821780DF10B0203F046FCFC
:100B90009DF80B309B071FD000963346217803AA9F
:100BA00033488DF80C7003F031FC00953346217802
:100BB0000DF10B022E4803F031FC9DF80B2000953F
:100BC00022F001028DF80D2043462178284803AA1F
:100BD0008DF80C7003F01AFC01252A2600272178D5
:100BE0002B4603AA009522488DF80C6003F00EFCFA
:100BF00000972B4621780DF10B021D4803F00EFCE7
:100C00009DF80B2000972A4321788DF80D200223B0
:100C100003AA17488DF80C6003F0F8FB80222046E9
:100C200011460823FFF79CFE00952B46217803AA66
:100C30000F488DF80C6003F0E9FB00972B462178F4
:100C40000DF10B020A4803F0E9FB009721789DF8AB
:100C50000B40022303AA2C4305488DF80C608DF845
:100C60000D4003F0D3FB284604B0BDE8F08100BF7F
:100C70007C09002006F00CBF10B44FF480740C4BBC
:100C800053F8202003EB8003C00082F0400200F103
:100C9000804003F5805C02F0C00200F5203003F5CF
:100CA0004053CCF8002041601C605DF8044B704755
:100CB0000480034010B4084CC90041EA820154F892
:100CC000202004EB8003514003F5805301F00C0118
:100CD0005DF8044B196070470480034030B44FF056
:100CE000000343EC440043EC400005254FF48074BE
:100CF0000B4BC20053F8201003EB800081F0400141
:100D000002F1804303F5203301F0C00200F5805169
:100D100000F540500A605D60046030BC704700BF61
:100D2000048003400FB400B583B0049C074802F070
:100D300081FF3CB105A92046019102F0EDFD044878
:100D400002F078FF012002F0FFFD00BF187B0010C9
:100D5000287B0010EFF3108072B6064BD3E8CF1F4C
:100D600001220029FAD1C3E8412F0029F6D1BFF3AF
:100D70005F8F7047130D00200023034AC2E88F3FA6
:100D800080F31088704700BF130D002070B58646B1
:100D9000EFF3108572B6124CD4E8CF6F0120002E0D
:100DA000FAD1C4E8460F002EF6D1BFF35F8F4FF0A3
:100DB000010CC80801F007030CFA03F31EF800C089
:100DC0001CEA030608D14CEA030C0EF800C0C4E884
:100DD0008F6F85F3108870BD1046FFF7A3FF00BF2B
:100DE000130D0020044A1078431CDBB2182B28BFD7
:100DF00010231370704700BF000900200146024A0B
:100E00000248FFF7C3BF00BF2C7B0010480D002035
:100E10004FF0E022936843F000539360704700BFA7
:100E20000021044B03F12002C3E88F1F01339342DA
:100E3000FAD17047080D00204FF0E0234FF08032C8
:100E4000C3F80024C3F80424C3F80824C3F80C240E
:100E5000C3F81024C3F81424C3F81824C3F81C24BE
:100E6000C3F82024C3F82424C3F82824C3F82C246E
:100E7000C3F8302462B67047012300F01F0293408C
:100E8000400941B1800000F1604000F56140C0F8C8
:100E9000803103607047024A203042F820307047AA
:100EA00000E100E00123064A410952F8212000F048
:100EB0001F0003FA00F01040003818BF01207047EF
:100EC00000E100E0F8B50D46EFF3108772B6124E60
:100ED000D6E8CF2F0123002AFAD1C6E8423F002AE4
:100EE000F6D1BFF35F8F0D4B00F110049B680C4AE5
:100EF00053F82430934203D0994201D000F020FFF0
:100F0000064B9B6843F82450BFF35F8F0023C6E86D
:100F10008F3F87F31088F8BD110D002000ED00E031
:100F2000110100102DE9F04F83B0EFF3108A72B673
:100F3000714ED6E8CF2F0123002AFAD1C6E8423FEE
:100F4000002AF6D1BFF35F8F6C4B00F110089B684D
:100F50006B4A53F82850954245D08D420C4650D0EC
:100F6000684FEB1B2F2B3ED801214FEA50194FEA57
:100F7000890909F1604909F5614900F01F0301FA87
:100F800003F0D9F80030C9F8800000EA030BBFF382
:100F90005F8FEFF30581C9B2002934D0884505D0B1
:100FA000CDE9001000F0CCFEDDE9001025F0010EC7
:100FB000DEF808C0644505D189E0D3F808C064456F
:100FC00031D09E469EF9062002EB4203002A07EB31
:100FD0008303F2DA644561D0BBF1000F20D0C9F879
:100FE0008001C9F80000454B9B6843F82850BFF3C7
:100FF0005F8F0023C6E88F3F8AF3108803B0BDE8F7
:10100000F08F1546EFE725F0010EDEF808C06445C5
:10101000D8D19EF906407346002C08DA154646E002
:10102000C9F88000DFE793F90640002C37DB04EBBA
:10103000440C07EB8C0C9CF80710DCF80820D971E5
:101040009A609CF906206100002A9A713DDBBCF889
:1010500004E05FEA4E5E05D50EF5FF1E0EF5FF5E5D
:101060000EF11F0E6FF0070C0A194FEA6E5E920028
:1010700002EB4E0208323A44ACEB030C6244C2F37A
:101080004A026FEAC2426FEAD2429A801E4B214462
:101090001A7807EB81011C708A719DE77346D9B9F4
:1010A000FF228EF806204BF60152AEF80420164CB3
:1010B0004AF6AA2294F800C01946C91B49414A437E
:1010C000120D83F806C0227086E7104ADDE79EF90C
:1010D00006407346002CAADA0D4A0E4CD21A083A82
:1010E000C2F30A316FEA01516FEA115144EA520228
:1010F000DA80998070E700BF110D002000ED00E05C
:101100001101001004090020EC33022001BDFFFF93
:101110003E09002000F8FFFF4FF0FF0C20F0030312
:1011200003F1604303F5644300F003001A68C00054
:101130000CFA00FC22EA0C0281400A431A60704754
:10114000F0B5EFF30585EDB2EFF3108C72B62649DA
:10115000D1E8CF2F0123002AFAD1C1E8423F002A6B
:10116000F6D1BFF35F8F214E40F0010EB4684AF60E
:10117000AA2354F825701E4A0446A41A6441634306
:101180001B0D77455BB21BD092F906409C421CD0E8
:1011900092F912409C4223D092F91E409C4221D0E9
:1011A00092F92A409C4208BF03240FD0114A002420
:1011B000157813708571C1E88F4F8CF31088F0BDDE
:1011C000B2680D4C42F82540F0E7002404EB4404DB
:1011D00002EB8402FF2494714BF601549480E5E7FE
:1011E0000124F3E70224F1E7110D002000ED00E0F7
:1011F00004090020EC33022011010010014B0B44C4
:1012000003607047080D0020F8B5124C124DAC4237
:1012100011D24FF0FF36002723686BB1FFF7E2FDD4
:1012200001462046FFF7EAFF66602772BFF35F8F33
:101230000C34AC42F0D3F8BDFFF7D4FD0146204694
:10124000FFF7DCFF6660BFF35F8F0834AC42E3D387
:10125000F8BD00BF880900209809002000000000A8
:101260002DE9F04F2DED028B85B0EFF30583DBB256
:10127000103B9A0818BF01224FF0010103F0030B45
:1012800018BFAF4DAF4B08BFAF4D0BEB820253F809
:10129000226001FA0BF205F541539FEDA78B0192F5
:1012A0005A602FE0B3881C0440F19380B379002B7F
:1012B00040F0DD80B6F90820002AC0F21E81736973
:1012C00002EB420203EBC203D3E90247B7F1FF3F4F
:1012D00008BFB4F1FF3F0ED005EB8B01AB6A0A6982
:1012E000D21AE31A934205D301232A6A03FA0BF3B5
:1012F000134200D10C61284600F050FBA042B941D6
:10130000C0F2FB80B6F90830019A002B0093EA6323
:10131000C8DBD6F8148003EB4309284608EBC9075D
:10132000D7E9024A00F03AFBA04271EB0A01B9DBAF
:10133000BAF1000FC0F2C380D7E90431834A934267
:1013400000F0ED807A88B6F9080092B242EA0040D7
:10135000984702460B4652EA030100F0B080002B8A
:1013600080F2D180B4EB020E6AEB030A38F939300F
:10137000C7E902EA002B95DB716903EB430201EB3D
:10138000C202D2E90270BE457AEB000C4FEA43027A
:1013900088DBB4462CF8083F06E003EB430001EB82
:1013A000C0005A00D0E90270BE451A447AEB000032
:1013B00001EBC20404DB31F93230A446002BECDA35
:1013C00028F83930009BACF80030B3881C043FF596
:1013D0006DAF3369EFF3108272B6D3E8CF0F0121FE
:1013E0000028FAD1C3E8401F0028F6D1BFF35F8F71
:1013F0004FF6FF74B0880023316900B2B480C1E8B1
:101400008F3F82F310889842FFF650AF0746A946F7
:10141000746906F1080807EB470E04EBCE03D3E925
:101420000250B6F90830C446002B13DBB2460097D1
:1014300004E034F936309446002B09DB03EB430615
:1014400004EBC602D2E90271BD4270EB0101F0DA91
:101450005646009FACF8007034F93E7024F83E30D8
:10146000002FD8DAB3794D46002B3FF423AF002389
:10147000B371B6F9083006F10808581C3DD01A4679
:10148000776903E08046591C3FF416AF03EB430134
:1014900007EBC100B0F802C01C461CF4004F9E468A
:1014A00037F93130EED0944280ED028B05D0A8F8A8
:1014B0000030328927F8312034817246E3E738F86A
:1014C000393033813369EFF3108272B6D3E8CF0F2E
:1014D00001210028FAD1C3E8401F0028F6D1BFF34C
:1014E0005F8F7388316928F83930009B738000233F
:1014F000C1E88F3F82F31088D4E640BF05B0BDEC51
:10150000028BBDE8F08F2846CDE9022300F046FAB1
:10151000029A039B10EB020E43EB010A26E70846F2
:101520000B69029198470028C9D00299D1E900239C
:1015300011E700BFAFF30080FFFFFFFFFFFFFFFFDA
:1015400000800B40880D002000000B40611200104D
:101550000B4808B50368EFF3108172B6D3E8CFCF1C
:101560000122BCF1000FF9D1C3E84C2FBCF1000FF0
:10157000F4D1BFF35F8F03F0E7F90020002108BD2D
:101580004C1000202DE9F84F364C25692DB1BDE8EF
:10159000F84F0A213448FFF731BEDFF8E480032119
:1015A000404600F0E9F90326C4F80C80FFF71AFC66
:1015B0004FF0504C2D4B267003442361DCF8003073
:1015C0000F216370636961801D834FF00405A3F8E8
:1015D00078504FF00505A3F890504FF00605A3F89A
:1015E000A8504FF007050E214FF6FF7208274FF065
:1015F0000A0EA3F8C0504FF001094FF00C0C4FF049
:10160000020B4FF0090A0D204FF00B05A3F86811EB
:101610001749A280A3F808E1A160A3F848B0A3F895
:10162000F0A0A3F82051A3F838C1A3F85001A3F803
:101630003090A3F86060A3F8D8701A800D4B304644
:10164000C8F820700C49DC60FFF73CFC4946304686
:10165000FFF712FC094B0A211F640348BDE8F84F4D
:10166000FFF7CCBD4C0900204C100020080D0020D5
:10167000FFFF1000880D00206112001000200B40B9
:1016800000000B400146F0B50069EFF3108772B619
:10169000D0E8CF5F0124002DFAD1C0E8454F002DDE
:1016A000F6D1BFF35F8FB1F902E04C690EEB4E0C3F
:1016B000BEF1000F4FEACC05086904EBCC0C3CDB13
:1016C000665B4E800026C0E88F6F87F31088BCF8F9
:1016D0000200CCE902230130C0F30E00012838BF1C
:1016E0000120059BACF80200CCF81030069B40EAC4
:1016F0000E40CCF814300B69EFF3108272B6D3E8C9
:10170000CFCF0127BCF1000FF9D1C3E84C7FBCF16A
:10171000000FF4D1BFF35F8F8B886353A1F804E00F
:101720000B69C3E88F6F82F310880122CB680978B8
:1017300003F501538A405A60F0BD0023C0E88F3F93
:1017400087F310884FF0FF30F0BD00BF034640899B
:10175000B0EB214F37DD58690A1402EB420210B595
:1017600000EBC2001C69EFF3108C72B6D4E8CFEF27
:101770000122BEF1000FF9D1C4E84E2FBEF1000FD7
:10178000F4D1BFF35F8F428889B292B28A4207D008
:1017900000221B69C3E88F2F8CF31088002010BD36
:1017A00042F4004242800121002218699971C0E888
:1017B0008F2F8CF310881C78DA68084602F50153E5
:1017C000A140596010BD0020704700BF2DE9F043D3
:1017D00083B0064600F0EAF84FF47A7304464FF0FF
:1017E000FF306FF00042E6FB0341A04272EB0103C1
:1017F0003ABF044615460D46B4F1960645F1FF374B
:10180000B44275EB07033CBF0026374600F0CEF824
:10181000301A67EB0101012871F1000106DA204658
:10182000294603B0BDE8F04300F0F8B800F0BEF878
:10183000864267EB010100290ADB0021154B324685
:10184000009315483B460191FFF71CFF0130E6D09D
:10185000DFF84C80DFF84490D8F824309F4205D858
:10186000D8F82820B242DAD29F42D8D1D9F8003035
:10187000EFF3108172B6D3E8CF0F01220028FAD11E
:10188000C3E8402F0028F6D1BFF35F8F034803F071
:1018900029F8E1E7511500104C0900204C100020F8
:1018A00000000B402DE9F04306460D4683B0EFF3F0
:1018B0000584E4B23CB12D4B5A6AAA421CD20020E6
:1018C00003B0BDE8F0832A4FD7F80C9097F800805A
:1018D000484600F063F808F1040859F828301B1A4C
:1018E000301A65EB0101984271F1000110DB20BF55
:1018F0001E4B5A6AAA42E2D314BF012400249B6AF9
:10190000B34234BF204644F0010003B0BDE8F08389
:1019100000F04CF8864265EB0101002914DB154B01
:101920003846CDE9003432462B46FFF7ABFE011EA8
:101930000ADD0E4B5A6AAA4216D39B6AB34211D3F0
:101940000B48FFF703FFB6E7084B5C6AAC42B6D31F
:10195000641B18BF01249B6AB34234BF204644F085
:101960000100ADE7AA42EBD120BFE9E700000B4040
:101970004C0900205115001010B4054B054C064AC7
:10198000A04214BF1846581C5DF8044BFFF7FEB97F
:101990004C0D002000800B404C7B00100346416A38
:1019A0000A46986A596A8A42FAD17047034B596AC3
:1019B0000A46986A596A9142FAD1704700000B4072
:1019C00030B4154A536A9C46946A536A6345FAD107
:1019D000021959414FF0000528BF01250E4B5B6AE3
:1019E000B5B15A1C08BF1A4608D04FF0FF310A465D
:1019F0000948436A8B42FCD38B4207D1064902E077
:101A0000486A984202D1886A9042F9D330BC704744
:101A10009942EDD8F0E700BF00000B40074A536A37
:101A20009942FCD8994207D1044B02E05A6A91428C
:101A300002D19A6A9042F9D8704700BF00000B406B
:101A4000F8B5054606200E4600F0E4F8002842D01E
:101A5000354A3648954214BF4FF080624FF000621D
:101A6000334B344902601A608C6832EA0404FBD1BB
:101A70002D4B4FF48071EB1AB3FA83F32E4A5B09B6
:101A8000062022F8131000F0C5F8C300B3FBF6F3EC
:101A90000133DA0920D1402601216962AA622F6B45
:101AA000FB0722D42B46002253F82C1F062003F5F7
:101AB000805422602F6300F0ADF840F20131032220
:101AC0008000B0FBF6F0EB6A83F0700303F07E0356
:101AD00023602963AA64F8BD4FF6FE718A421BD9C0
:101AE00022464FF6FF71154ED7E740F2013205F559
:101AF00040531A636B6AAC6A062004EB831400F04F
:101B000089F80F4BA402A3FB0023DB0A0021B4FBDE
:101B1000F3F0FFF755FFC5E7C3F34503114603EBA9
:101B200082161A46B9E700BF008007400020024035
:101B300000300240000002405C100020C0FF3F0067
:101B4000757B2B8F00EB400C4FEA8C0C0CF1804C1A
:101B50000CF5803CF0B51646DCF80420051FB2F504
:101B6000803F38BF4FF48032EDB238BFCCF804204C
:101B7000012D2AD94FF40067254C0CF5405217600F
:101B800054F82020B2B9DCF80020012D82EA461278
:101B900002F0E0020CF5805632602AD94FF4006161
:101BA00044F820304FF480330CF500521160CCF82B
:101BB0000430F0BD6769B7FBF2FE0EF1010E0EEBCB
:101BC0004E0EBEF1030EFCD2DDE70129D2D1032473
:101BD0000CF540521460DCF80820D207FBD5DCF885
:101BE00000200B4C82EA461202F0E0020CF580560F
:101BF00032600122DCF800504D4005F003053560ED
:101C000002FA01F1DCF808200A42FBD0C6E700BF67
:101C1000500D0020014B53F820007047500D00205C
:101C200070B4039D04682D0345EA03451B4B002C4B
:101C3000B3FBF1F3B2FBF3F61FDB194A194B9042E9
:101C400014BF4FF480424FF40042174C1A6003F562
:101C500080531A60A36832EA0303FBD1212200F506
:101C600040530433016086601A600268002AFCDA7F
:101C70000822C5601A6070BC7047036803F03F0318
:101C80008B42DAD18368C3F30B03B342D5D1C36867
:101C900003F4EE23AB42D0D1EDE700BF001BB70049
:101CA000008005400020024000000240012300EBBC
:101CB0004000800000F1804000F584104160036026
:101CC000704700BF0023DB8A002242E800F2520284
:101CD00001D4102118470421184700BF034AD2F845
:101CE0002838002BFBD0BFF35F8F704700000E40F9
:101CF0000021044B044ABFF35F8F43F8041B934257
:101D0000F9D170470C080E402C080E4010B44FF467
:101D10008D704FF42A64064A064B07491460D06060
:101D200019605368002BFCDA5DF8044B704700BF64
:101D30000080044000A0044000B0FA00704700BFDB
:101D400008B50148FEF7EEFF707B001038B5054C72
:101D5000054DAC4204D254F8043B9847AC42FAD348
:101D600038BD00BF987A0010D87A001038B5054CFD
:101D7000054DAC4204D254F8043B9847AC42FAD328
:101D800038BD00BFC47A0010D87A001010B40748DC
:101D9000074C084B084A094904601A608B6832EA0C
:101DA0000303FBD15DF8044B704700BF00200240E5
:101DB0007F3BEFEF00300240F6FFF30300000240EC
:101DC000044BDB6CB3F5004F03D14FF48022024B80
:101DD000DA64704700001150002011504FF0E022EB
:101DE000044BD2F8881D0B43C2F8883D10EE300436
:101DF000704700BF030330006FF06041044B054A99
:101E000019609368DB4333F06043FAD1704700BF39
:101E1000003002400000024010B545F25320FFF7A9
:101E200051FFBDE8104003460420184710B545F2A5
:101E30005320FFF747FFBDE8104003460120184735
:101E4000FEF7EEBF1449154B70B55C1AA610442E70
:101E5000324628BF4422124D9200284605F050FD1C
:101E6000B4F5867F13D80F4AC6F1440012D02B195F
:101E7000410803EBC101C3E9002208338B42FAD1C8
:101E8000C30704D520F00100304445F82020064B5C
:101E90009D6070BD4320F8E70000001010010010A5
:101EA000000000201101001000ED00E0002370B5DB
:101EB0002B4C82B0C4F88430FFF728FF0122294B55
:101EC000DA63636C012BFCD10321264A244B116396
:101ED0009C6B012CFCD10226052521460523224AB4
:101EE00022480096FFF79CFE21462B46204A2148B7
:101EF0000095FFF795FE0022042031461E4BFFF7A8
:101F000021FE2146284600221C4BFFF71BFE002223
:101F1000082011461A4BFFF715FE00220920114632
:101F2000174BFFF70FFE002206201146134BFFF759
:101F300009FE0022114B07201146FFF703FE042083
:101F4000FFF768FE00240F4BA3FB0035AD0CE0B299
:101F500029460134FFF7AAFE062CF8D102B070BD65
:101F60000000014000300140002F6859000005408A
:101F7000008C864700800540001BB70080D1F00828
:101F8000006CDC0283DE1B4386B003B451FC080402
:101F9000CDE9020151FC0904CDE9040151EC0A0428
:101FA000CDE9060103BCF047BDE800504EEC00C48B
:101FB000BDE800504EEC01C4BDE800504EEC02C438
:101FC00000BD000000B5FFF7DFFF02E010FE30F4B7
:101FD000F8D441EC100443EC112400EE010410EE9F
:101FE000010480EE200451EC1004704700B5FFF7A7
:101FF000CBFF02E010FE30F4F8D441EC100443ECC7
:10200000112400EE010410EE210480EE200451ECB6
:102010003004704700B5FFF7B7FF02E010FE30F460
:10202000F8D410B541EC100443EC112451EC040435
:1020300053EC0524A0FB024C5FF0000EE0FB03CE46
:10204000E1FB02CE4CEC20440024E1FB03E444EC31
:1020500030E480EE200451EC5004BDE8104070479D
:1020600000B5FFF791FF02E010FE30F4F8D441EC28
:10207000100443EC112451EC2104A0FB01126FEA7F
:10208000820252FB100052FB12F252FB1000A0EB36
:10209000D07C53EC04245CFB13F153EC1524A1FB1E
:1020A000022001FB030053EC4424A2EB000050FB90
:1020B0001CF24FEA111312EB017043EBE27140EA9C
:1020C000515020EA915020F0070053EC7524A0FBFA
:1020D000023C53EC752400FB03CC01FB02CC53EC17
:1020E0000424ACEB824C40EA5C70A0F1010041ECAE
:1020F000400480EE200451EC7004704700B5FFF7F7
:1021000043FF02E010FE30F4F8D440EC700400EE1F
:10211000010410EE210480EE200451EC30047047DD
:1021200000B5FFF731FF02E010FE30F4F8D440ECC8
:10213000600400EE010410EE210480EE200451EC56
:102140003004704700B5FFF71FFF02E010FE30F4C7
:10215000F8D441EC800400EE010410EE010480EE9E
:10216000400410EE1304704700B5FFF70DFF02E0C6
:1021700010FE30F4F8D441EC800400EE010410EEBF
:10218000010480EE400410EE3304704700B5FFF701
:10219000FBFE02E010FE30F4F8D441EC100443ECF6
:1021A000112400EE010410EE3004C0F300707047FB
:1021B00000B5FFF7E9FE02E010FE30F4F8D443EC7E
:1021C000102441EC110400EE010410EE30F48CBF39
:1021D00001200020704700BF00B5FFF7D5FE02E0E8
:1021E00010FE30F4F8D443EC102441EC110400EE5E
:1021F000010410EE30F42CBF01200020704700BF16
:1022000000B5FFF7C1FE02E010FE30F4F8D441EC57
:10221000100443EC112400EE010410EE30F42CBF46
:1022200001200020704700BF00B5FFF7ADFE02E0BF
:1022300010FE30F4F8D441EC100443EC112400EE0D
:10224000010410EE30F48CBF01200020704700BF65
:10225000704700BF2DE9F04F83B09946DDE90DAB23
:102260000F9B884611469A07074616D1DA453AD29F
:102270000C460D46ABEB0A060E4422464B46414641
:1022800020200134B847B442F7D12946BAF1000FF3
:1022900008D1204603B0BDE8F08F0C46BAF1000F1C
:1022A00010D00E4655460C9B2E449A440191721B49
:1022B0004B46013D41461AF8010D3446B847002D02
:1022C000F5D101990F9B9B07E3D5651AAB45E0D982
:1022D00022464B46414620200135B8475D4504F172
:1022E0000104F5D3D5E70C46BAF1000FD9D1D0E7F8
:1022F0002DE9F04F0F9FDDF8248017F0020F0A9CA4
:102300009DF82CA00E9DDDE90C9644D1F5BBB4429E
:1023100041D207F0010B04F1FF3C4FF0300EC444F2
:1023200004E00134A6420CF801EF01D9202CF8D1C9
:10233000BBF1000F00F08880A5422CD904F1FF3CCE
:102340004FF0300EC44404E00134AC420CF801EF0D
:1023500021D0202CF8D117F0100F0ED017F4806F79
:1023600054D1A64263D0A54261D0B9F1100F50D02C
:10237000B9F1020F56D0202C29D12024CDE90B57DA
:10238000CDE90984BDE8F04FFFF764BF17F0010BFA
:1023900034D1B442BFD317F0100F1ED017F4806FA2
:1023A000E3D1002CDDD1B9F1100F63D0B9F1020FE8
:1023B00077D0302488F800400124BAF1000F11D101
:1023C0007E0748D52B2608F804600134D6E7264658
:1023D00001344FF0300C08F806C0202CCDD0BAF1F3
:1023E000000FEDD02D2608F804600134CDE90B571D
:1023F000CDE90984BDE8F04FFFF72CBFBAF1000F1B
:1024000030D0B44205F1FF3585D395E7B9F1100F0F
:10241000B3D1BE063BD5202CAFD0582608F80460B7
:102420000134A8E7202CA8D02646013407E0661E18
:10243000B9D0B9F1100F36D0B9F1020FC9D14FF0B0
:10244000620C08F806C096E717F0100FC5D017F415
:10245000806F86D089E73E0790D5202608F8046073
:1024600001348BE717F00C0F00D0013DB442FFF4AC
:1024700052AF61E7BC0612D4782488F800403024BB
:1024800088F801400224BAF1000F99D0AAE7202C65
:102490003FF473AF782608F8046001346BE75824E2
:1024A000EBE76224E9E717F0200FA4F1020C04D057
:1024B0004FF0580E08F80CE08BE74FF0780E08F854
:1024C0000CE086E700B9704701F072BB10B1D1E9AA
:1024D00000311847704700BF2DE9F04F97B09DEDD0
:1024E000207BDDE9225B0746884651EC170B249CD4
:1024F00099460C920B4602468DED047B0794FFF73C
:1025000049FE002840F0F481DDE904014FF0FF327C
:102510006FF48013FFF750FE002840F01B81DDE9C7
:1025200004014FF0FF32AC4BFFF782FE002840F071
:10253000EE80DDE90401A4A3D3E90023FFF778FED0
:10254000002840F0D380DDE90401A1A3D3E90023F2
:10255000FFF732FE002840F0C980DDE904010022C7
:102560000023FFF729FE002840F0E88023460D9065
:1025700013F4806F08BF062530212B460EAAA5F163
:10258000200605E0013BB34202F8011B00F09381F5
:10259000092BF7D81E46ED1ADDE90401FFF7D6FD39
:1025A0008E4B044603EBC60393ED007B8DED087B59
:1025B000FFF7A8FD02460B46DDE90401FFF71AFD0F
:1025C000DDE90823FFF72AFD02460B46CDE90A2381
:1025D000FFF7CEFD8246FFF7A7FD02460B46DDE979
:1025E0000A01FFF707FD02460B46CDE90A23002248
:1025F0007B4BFFF71DFE002800F0FE800AF1010A68
:102600005046FFF791FD02460B46DDE90801FFF752
:10261000E7FD10B14FF0000A0134002E00F0FD80FC
:10262000681E0EABDFF8CCC118440FE0ACFB0A21EA
:10263000C90801EB8102AAEB42023032BAF1090F5C
:1026400000F8012F40F21C818A461D46202D05F11D
:10265000010306F1FF36E9D12025691E0EAB614862
:10266000194410E080FB0462C3EBA20303EB830276
:10267000A4EB420404F1300201351C4601F8012F9D
:10268000002B00F0EB80202D4FEAE473EAD1079B8A
:1026900003F00303012B18D1BBF1000F15D00D9BE4
:1026A000002B00F00A810BF1FF3BBBF1200F0CD98E
:1026B0006B1E0EA930220B4405E001355D4503F881
:1026C000012F80F0D180202DF7D1079B0EACCDE9F2
:1026D00002B341464B4638460C9A01950094FFF7E9
:1026E000B9FD8246504617B0BDE8F08F079B9DEDBF
:1026F000047BCDE923B341464B4638460C9A8DED19
:10270000207B229517B0BDE8F04F00F045B9610776
:1027100023464CBF042303234146219338464B46AE
:10272000079A48BF304CCDE922B258BF2F4C0C9AC3
:10273000209417B0BDE8F04FFFF78CBDDDE904230E
:1027400000200021FFF756FC0123CDE904010D9381
:1027500023460DE723469C0740F0AA80BBF1040FF7
:1027600040F2A6800C9B1D461C1F04EB0B0A2A4658
:102770004B46414620200135B847AA45F7D155467A
:102780001B4C261F14F8010D2A464B464146B847FC
:10279000B44205F10105F5D1079B0AF1040A980737
:1027A000A0D50C9CAAEB04039B459BD952464B46F3
:1027B000414620200AF1010AB847AAEB04035B4511
:1027C000F4D38FE7AFF300800000000065CDCD416A
:1027D0000000000065CDCDC1FFFFEF7F907C0010B1
:1027E0000000E03F67666666C47B0010CC7B00108B
:1027F000D87B0010CDCCCCCC0022DDE90A01634BA4
:10280000FFF7DAFC00287FF408AFBAF1000F6AD1B5
:102810000AF1010A002E7FF403AF2046FFF772FC95
:1028200002460B46DDE90401FFF7E4FB02460B46D6
:10283000CDE904230022554BFFF7BEFC00287FF4AE
:102840000CAFDDE904010022504BFFF7F1FC00283A
:102850007FF403AF013424F00104FEE6079B03F08C
:102860000303012B00F08280202D3FF42EAF0D9B3F
:102870007BB32D220DEB050383F83820013524E7C7
:10288000202B3FF4E9AE0EAA15441E44302204E08A
:10289000202B05F8012F3FF4DFAE9E4203F1010328
:1028A000F6D12E220DEB060383F83820751CD4E6F2
:1028B000DDF830A063E720256EE6079B13F00C0FD0
:1028C00050D00BF1FF3BAB453FF6F2AE202D3FF46D
:1028D000FCAE079B5A0701D52B22CBE71B077FF5E0
:1028E000F4AE2022C6E71AF0010F3FF496AE8FE750
:1028F000A60734D1BBF1030F31D90C9B1D46DC1E5A
:1029000004EB0B0A2A464B46414620200135B847C6
:102910005545F7D155461E4CE61E14F8010D2A46C2
:102920004B464146B847A64205F10105F5D1079B44
:102930000AF1030A9D077FF5D5AE0C9CAAEB0403B0
:102940009B457FF6CFAE52464B46414620200AF1CA
:10295000010AB847AAEB04039B45F4D8C2E6DDF8A8
:1029600030A0D7E7AB453FF6A3AEAEE6BBF1000F14
:102970003FF47AAF0D9B002B9FD00BF1FF3B5D45E1
:10298000FFF496AE202D7FF474AF9EE60000E03F8A
:10299000D37B0010000000002DE9F04F9FB02A9E6D
:1029A000DDE92845074693460891099322462B46C0
:1029B000204629460E96DDE92BA6FFF7EBFB002803
:1029C00040F0BE80204629464FF0FF32784BFFF79B
:1029D0002FFC002840F0B480204629464FF0FF32FB
:1029E0006FF48013FFF7E8FB002840F0A980204631
:1029F000294600220023FFF7DFFB002840F0D581A5
:102A0000CDE90A45DDE90A239046994606F40062BD
:102A100016F480630F92139340F0A18058EA0903E3
:102A200040F0CA80002A40F0E38106230E9316F09E
:102A30000202109240F0D4815346042B38BF042385
:102A40000C920422043B12920F9320462946002246
:102A50000023FFF7B1FB002840F0F3819DED0A7BD6
:102A60000F9B5A4603930E9B8DED007B029326F439
:102A7000006304933846099B0899FFF72DFD024631
:102A800016F0200F099B08990CBF6520452002F124
:102A90000108B8470C9A129B16AC5D1E82EAE273DD
:102AA000A3EBE273D10F002622469946DFF804C15A
:102AB00001E0202E10D0CE46ACFB0930C00800EB60
:102AC0008003A9EB43033033BEF1090F814606F1C1
:102AD000010602F8013BECD80523002006930A23E7
:102AE00005950094099D089C4246CDE90330CDE947
:102AF00001612B4621463846FFF7FAFB109A8046C3
:102B0000D2B1A0EB0B06B24516D90BEB06022B4651
:102B1000214620200136B847B245F6D80BF1FF33E5
:102B20005344CBF10102A3EB08034244924538BF62
:102B3000002308F10108984440461FB0BDE8F08F1B
:102B40005A463846CDE92845CDE92BA60E9C099B6F
:102B500008992A941FB0BDE8F04FFFF7BDBC58EAB2
:102B600009032BD1002A3FF462AF00230C930E9B84
:102B70000C9A934200F3B9814FF000082046294691
:102B800000220023FFF718FB002840F013819DED81
:102B90000A7B26F4006646F480668DED287B5A4653
:102BA0003846CDE92A8A099B08992C96D2E700BFBE
:102BB000FFFFEF7FCDCCCCCC06230E93C9F30A5098
:102BC000A0F2FF30FFF79EFAC1A3D3E90023FFF77D
:102BD00025FAC1A3D3E90023FFF7F8F9C9F31309D4
:102BE000CDE90C0149F07F5140460022B24B41F43F
:102BF0004011FFF7FFF9A4A3D3E90023FFF70EFA72
:102C000002460B46DDE90C01FFF7E0F9FFF79EFAFB
:102C10000C90FFF777FA9EA3D3E9002380468946FC
:102C2000FFF7FCF90022A54BFFF7D0F9FFF78EFA6A
:102C3000034649464046129397A3D3E90023FFF782
:102C4000EDF9804612988946FFF75CFA94A3D3E920
:102C50000023FFF7E3F902460B4640464946FFF7DB
:102C6000C9F902460B4680468946FFF7D7F9424626
:102C70004B46CDE9100140464946FFF7A7F900222F
:102C8000CDE91401DDE910018D4BFFF7EDF90022CC
:102C90008C4BFFF79BF902460B46DDE91001FFF76D
:102CA000E3F90022884BFFF791F902460B46DDE974
:102CB0001001FFF7D9F942464B468046894600206D
:102CC0004FF08041FFF796F902460B4640464946D1
:102CD000FFF77CF902460B46DDE91401FFF7C4F962
:102CE00000227A4BFFF772F9129B002203F2FF3C9D
:102CF0004FEA0C53FFF792F980468946DDE90A0155
:102D000042464B46FFF758FA50B10C9B4046013BF8
:102D100049460C9300226B4BFFF7A6F98046894683
:102D20000C9A43466332C62A06F0020210924946C4
:102D30000F9A2CD8002A5ED0042212920B433FF443
:102D400016AFDDE90A0158A3D3E90023FFF75CFAC7
:102D500048B1DDE90A0156A3D3E90023FFF72CFAB5
:102D600000287FF404AF0E9B002B50D0139A002A4A
:102D70007DD0013B0E93129B9A4505D9109B002BE9
:102D800000F0AE800223109300230F9344E022BB97
:102D9000BAF1050F4FD906F00203002B49D10523E4
:102DA0001293AAF105030F933AE005F100430A9448
:102DB0000B9327E626F4006646F4806638462C9688
:102DC000DDE90A67344607F100455A46CDE92A8A0B
:102DD000CDE92845099B0899BCE605221292ADE78A
:102DE00000230222CDE90F3204220C9312922CE62A
:102DF0004FF00508C2E6BAF1040F1FD9109B002B53
:102E000078D104231293AAF104030F9304E0129BD8
:102E10009A4531D80E9B0F930C9B002B3FF415AEB7
:102E2000DDE90A0142464B46FFF71EF9CDE90A01EA
:102E30000BE60223109305231293F1E70423129368
:102E4000EAE7DDE90A45A0460F9B05F10049039337
:102E50000E9B5A46029326F4006304933846CDE94C
:102E60000089099B0899FFF737FB024608E6129B89
:102E70009A4544D80F92CFE7109B8BB30E9B0F93CC
:102E800002231093C8E700BF61436F63A787D23F57
:102E900071A379094F930A401655B5BBB16B024037
:102EA000EF39FAFE422EE63F2D431CEBE2361A3F85
:102EB0000000000080842E410000F83F0000E03F49
:102EC00000002C4000002440000018400000F03FAB
:102ED000FB799F501344D33FB3C8608B288AC63F09
:102EE000129BAAEB03030F9396E7A3EB020808F1EA
:102EF000FF3843E604231293022310938CE7109BC0
:102F0000002BEDD002230F92109385E72DE9F04FAF
:102F10009BB0249C954D0A94954CB1F1000A18BFC2
:102F2000834625601878934C914608BFA3460993C1
:102F3000002800F093824FF000080AE042464B461A
:102F4000514608F10108D847099B1878002800F07D
:102F5000CE80099B252803F101030993EED11C467D
:102F60000023224612F8010BA0F1200110290AD8F3
:102F7000DFE801F04009093C090909090909093894
:102F8000093409093000A0F130010929099440F2FF
:102F90008A802A2800F0F08000252E2800F09680F4
:102FA0000026A0F1680112292DD8DFE811F04901AF
:102FB0002C0043012C0038012C002C002C002C008C
:102FC0002C002C002C0027002C002C002C002C00A6
:102FD0002C002700144643F00103C2E7144643F0D7
:102FE0000203BEE7144643F00403BAE7144643F075
:102FF0001003B6E7144643F00803B2E7099948788E
:1030000043F480730132672809927ED8242840F265
:10301000C180A0F12502422A00F2BC80DFE812F054
:103020005001BA00BA00BA00BA00BA00BA00BA0039
:10303000BA00BA00BA00BA00BA00BA00BA00BA00C0
:10304000BA00BA00BA00BA00BA00BA00BA00BA00B0
:10305000BA00BA00BA00BA00BA00BA00BA00BA00A0
:10306000190137011901BA00BA00BA00BA00BA0052
:10307000BA00BA00BA00BA00BA00BA00BA00BA0080
:10308000BA00BA00BA00BC01BA00BA00BA00BA006D
:10309000BA00BA00BA00BA00BA00BC015801BC01BB
:1030A000190137011901002500E0013205EB850502
:1030B00000EB45051078303DA0F130010929F4D925
:1030C0002E28099202F101027FF46AAF099943F4B4
:1030D000806348781146A0F13006092E40F2218124
:1030E0002A2800F02F8109920026013259E7444630
:1030F000C14501D809F1FF384B46424651460020F0
:10310000D84720461BB0BDE8F08FA0F16902D2B2CB
:103110000F2A3FD8012149F241079140394040F040
:10312000F3800A2A3DD0072A34D10A9D55F8042B92
:10313000002A00F0138143F0210012AB1F460B93CD
:1031400003E0202900F014811A4602F00F04234600
:10315000092C94BF303337330F2A07F8013B01F1B4
:1031600001014FEA1213ECD802E100BF0D2F00104D
:10317000840D0020512200100A99099851F8045B2F
:103180004078002DCDE90921BCBF43F002036D4218
:10319000013202E742464B46514608F10108D84742
:1031A000D2E60A99002E51F8047B18BF32463878CF
:1031B00008BF4FF0FF32002800F07B83BC18A44604
:1031C0003A4604E012F8014F002C00F03F8194458C
:1031D000F8D16446E41B5A0540F12281B44228BF6D
:1031E000344613F0020300F088820223CDE90A512D
:1031F00042461D46464408E04B465146D84717F81C
:10320000010F08F1010810B142464645F4D12B46A2
:103210000B990A9D002B40F041810A9194E609998F
:1032200048786C287FF4ECAE0A46887843F4407303
:103230000332E8E6099943F4007348780132E2E684
:1032400009994878682800F0038143F0800301322F
:10325000D9E6672800F0D980472800F0DC804528AF
:1032600000F0DB80CDE903530A9B0296073323F07D
:1032700007031C464246F4E802674B46514658464F
:10328000CDE900670A94FFF787FB80465CE6462895
:1032900008BF43F02003CDE903530A9B029607338E
:1032A00023F007031C464246F4E802674B465146AA
:1032B0005846CDE900670A94FFF70EF9804643E6C9
:1032C00042464B465146252008F10108D8473BE6C7
:1032D0000A9A990702F1040408F1010640F1C68038
:1032E00010784B4642465146D847012D88BFA84426
:1032F00040F2BD8132464B46514620200136D84728
:103300004645F7D10A941FE66F2800F0818040F20D
:103310004882782800F090810A2723F01003BC46E9
:1033200041E0002606EB860600EB4600A0F13006E1
:1033300011F8010FA0F13002092AF3D90A460991C8
:1033400001322EE6DDE9092151F8046B9078023252
:1033500009920A91013226EAE67622E623F010006D
:1033600013F4806240F021003FF4E7AE12AB0B9300
:103370000B9B0690009308231020059300234246E0
:10338000CDE9023001914B46514658460496FEF76E
:10339000AFFF0A958046D7E5582862D0622840F0F2
:1033A0008F800227BC4613F4806000F0DD8023F09C
:1033B0000D0313F4007240F081810A990F1D13F47C
:1033C000807140F037825C060A9A40F13B811278A6
:1033D000002A40F04E8123F01003002800F04981BC
:1033E000114612AA0B92CDE90553CDE903C601910E
:1033F0000B9B4246009300235146029358464B468E
:10340000FEF776FF0A9780469EE543F4006329E7BE
:103410000827BC46C7E743F4006343F0200321E7D5
:1034200013F0020300F08E8102230A951E460D461A
:1034300042464B465146D84717F8010F08F101089C
:103440000028F5D1294633460A9DE3E6D41BC2E69F
:103450000A46887843F0C0030332D4E50446804628
:1034600046E6102743F02003BC469CE7012D40F2BE
:10347000F880464608F1FF372F4432464B46514606
:1034800020200136D847BE42F7D10A9B3246187831
:1034900051464B46D847A8440A9455E54646A542AE
:1034A0007FF6BBAEA844A8EB04080C4632464B4658
:1034B000514620200136D8474645F7D12146ACE693
:1034C00013F4806200F0BB804FF4806223F0110C93
:1034D0001CF400770A9B4AD11CF4807003F10404A9
:1034E00040F034811CF0400F40F0A3801CF0800FAE
:1034F00000F0D381B3F9001081EAE177A7EBE1771F
:10350000BFB2CB0F002900F056813A4612A90F46F0
:10351000DFF8D8E30B910A930C9501E020280FD037
:103520001546AEFB0213DB0803EB8301A2EB41015E
:103530003031092D1A4600F1010007F8011BEDD8C2
:103540000A9B0C9DCDE9055CCDE9010304960B9B1C
:10355000424600930A235146039358464B46FEF7D2
:10356000C7FE0A948046EFE423F00C0321E70733FB
:1035700023F00703194608465B6850F8081BDF0F65
:103580000A9051EA030062D1002A40F09F8113465D
:10359000114612AACDE90C7500201546CDE90E683A
:1035A000DFF848E30B9201E020282DD05A1842F1B1
:1035B0000002AEFB027828F0030707EB9807D21B46
:1035C0001E469B1A61F100070C464FF0CC3101FBFF
:1035D00003F10EFB0711A3FB0E731944052307F03B
:1035E0000108A8FB03389B180A2E03F130034FEAA9
:1035F000570774F1000405F8013B00F1010047EAA8
:10360000C1734FEA5101CFD2DDE90C75DDE90E68D7
:103610000B9B424600930A23CDE9055CCDE90107E7
:10362000049603934B4651465846FEF761FE80468A
:103630008AE419780F4664E71027BC46B3E623F006
:10364000100C45E71C064CBF12881268C0E60A46FB
:10365000191E01DB13469CE75242134661EB410100
:1036600097E713465146187842464B46D847B0462E
:1036700048E613F0200F14BF4120612012ACA6468B
:103680000B940A93A0F10A040C9502E0202912D0B1
:103690002A46B2FBFCF50CFB1520C3B2092803F146
:1036A00030008ABF1B19C3B2DBB262450EF8013B82
:1036B00001F10101EAD20A9B0C9D94E60A9A0732B5
:1036C00022F00702516852F8084B8E460A9254EADB
:1036D000010276D123F01003002872D00022114697
:1036E00012AA0B92CDE905530B9B4246009300238F
:1036F000CDE903C60191029394E7A54298BF013436
:103700007FF674AD4FF48063CDE90A7505EB0802CE
:103710001F460D46141B42464B465146202008F1D9
:103720000108D847A045F6D13B460A9F294638787C
:103730000B9D6C1C00283FF470AD002B3FF475AE60
:10374000002353E5A542DFD801346EE61968CB0F9C
:10375000002900F0A88081EAE172A2EBE17212A9CF
:103760000846DFF888E10B910A930C9501E0202FC1
:103770000FD01546AEFB0213DB0803EB8301A2EB6F
:1037800041013031092D1A4607F1010700F8011BEC
:10379000EDD80A9B0C9DCDE9055CCDE9017304963B
:1037A000D5E6692823F0100C40F08C8013F4806279
:1037B0003FF48EAE88E6002A3FF4A8AE12AA0B9220
:1037C000C0E613F0200F14BF41226122002012A98D
:1037D0000A3ACDE90E68CDE90C35CDF844B006467D
:1037E0008846754693460B91CDF840C003E0202EE5
:1037F00017D004460D4629463A460023204604F0D9
:1038000033F9D2B2092A02F1300388BF02EB0B036D
:10381000BC42DBB275F1000508F8013B06F1010678
:10382000E5D23146DDE90C35DDE910CBDDF83C8031
:103830000E9E57E70A99096851B923F0100338B171
:1038400012A90B91CDE90553CDE903C60192CFE54D
:1038500013F0200F14BF4120612012ACA6460B9438
:103860000A93A0F10A040C9502E0202A12D02946FE
:10387000B1FBFCF50CFB1510C3B2092803F13000B5
:103880008ABF1B19C3B2DBB261450EF8013B02F1DE
:103890000102EAD20A9B0C9DD4E7196881EAE1771C
:1038A000A7EBE1772DE6002A3FF459AF12AA0B925D
:1038B00071E713F480640DD013F0020412D00446B3
:1038C0004646ECE50A276346BC466CE512AB002091
:1038D0000B939DE613F002037FF4E0AD002D7FF41F
:1038E00013AF9AE4002D7FF40DAF96E4CDCCCCCC91
:1038F00070B594461E4605460C4684B04FF0FF3224
:10390000634602A900960348CDE90254FFF7FEFA88
:1039100004B070BDCD24001010B5094B84B01C68F4
:103920004CB1034600914FF0FF3203A90548A04770
:10393000012004B010BD00F07DF9204604B010BD98
:10394000840D0020C524001000BEFDE708B5FFF778
:10395000FBFF00BF38B5064C064DFEF7F7F9AC4249
:1039600004D254F8043B9847AC42FAD338BD00BFA8
:10397000D87A0010E47A0010036808461146184708
:103980002DE9F0411546427D07468846002A46D07B
:10399000002D1DDD0B780A2B23D0012D4FF0000CDC
:1039A00018D04646012416F8012F21460A2A04F1B0
:1039B000010422D0A542F6D165450BDC08EB0503D6
:1039C00013F8013CA3F10D03B3FA83F35B093B75D4
:1039D000BDE8F0813B68A5EB0C0108EB0C009847B3
:1039E000ECE7037D002BD8D1036802210F489847EC
:1039F000012DE3D04FF0010CD3E716F8013C0D2B5D
:103A0000D8D08C4508EB0C00A1EB0C0101DA3B6827
:103A10009847022105483B689847A446CAE72946CB
:103A200040463B68BDE8F041184700BFE07C00100D
:103A30000B682DE9F041802B0D46064605D05A1C37
:103A40002B442A601E71BDE8F0810F4B1C68A4B1A5
:103A50000E4F01F1040801E0246974B12368002BC2
:103A6000FAD03B680BB1A342F6D1204641462A6802
:103A7000FFF786FF2469002CF0D1002301222B449C
:103A80002A601E71BDE8F0817C0D0020800D0020B1
:103A90002DE9F04782B00D4691461C460646FDF7DB
:103AA00085FF4FF0FF3C6FF000472E4A821841F12E
:103AB0000003944577EB03013CBF62463B462A482E
:103AC00003F0DEFF6B1C804640D00CB3274F284B21
:103AD0001C68B4B1B9F1000F1CD1DFF89C9001E073
:103AE000246974B12368002BFAD0D9F800300BB1E7
:103AF0009C42F5D120462A463146B8472469002C1D
:103B0000F0D1B8F1000F26D1284602B0BDE8F08709
:103B1000184FDCE74FF00A0ADFF85C9002E02469F6
:103B2000002CEED02368002BF9D0D9F800300BB16F
:103B3000A342F4D12A4631462046B8470122204606
:103B40000DF107018DF807A0B847E8E7304603F00C
:103B50003DFE0546B9E7044803F08AFF284602B057
:103B6000BDE8F08740420F00900900208139001025
:103B70007C0D002079390010800D0020084A136860
:103B800023B90AE003F110021B6933B18342F9D172
:103B900029B9186910601961704701B11060704748
:103BA0007C0D002008B500F0A3F9012008BD00BF7E
:103BB000F0B583B006468DF80700FDF7F7FE4FF02D
:103BC000FF356FF00044174A821841F10003954217
:103BD00074EB03013CBF23462A46134803F050FF11
:103BE000124B07461C689CB1114D01E024697CB161
:103BF0002368002BFAD02B680BB19C42F6D12046EB
:103C000001220DF10701FFF7BBFE2469002CEFD163
:103C100017B9304603B0F0BD034803F029FF304622
:103C200003B0F0BD40420F00900900207C0D002041
:103C3000800D002038B5044603F0C8FD0123054679
:103C40001A4620462946FFF723FF084B1C682CB173
:103C500063682BB198472469002CF9D1284638BDF8
:103C60002469002CF4D1284638BD00BF7C0D00200B
:103C70002DE9F041A2B004460D46FDF797FE4FF046
:103C8000FF376FF00046264ADFF8A480821841F122
:103C90000003974276EB03013CBF3A463346214886
:103CA00003F0EEFE00272B462246064601A91E48D9
:103CB0000197FFF71DFE019B0546D8F80040C3B1F0
:103CC000002C2BD0194F01E0246974B12368002B1C
:103CD000FAD03B680BB1A342F6D12046019A02A963
:103CE000FFF74EFE2469002CF0D10023D8F80040E5
:103CF00001932CB1636843B198472469002CF9D132
:103D00002EB9284622B0BDE8F0812469F1E70548C4
:103D100003F0AEFE284622B0BDE8F0810194EFE743
:103D200040420F0090090020313A0010800D002021
:103D30007C0D00200FB400B583B004A951F8040B2A
:103D40000191FFF795FF03B05DF804EB04B07047F5
:103D5000B1F1000C1DDD0F4A0F4B126830B5D31ABC
:103D6000B3FA83F30D240D4D5B09411E35F913E0C1
:103D70008C4411F8010F864506D093699B06FCD44C
:103D800061451060F5D130BD93699D06FCD4146087
:103D9000F3E7704760100020008007405C100020AF
:103DA000224BB1F1000C10B41C682EDD034600203C
:103DB0001F4A591E12689369DB0617D401309369B4
:103DC000DB06FCD41368844501F8013FF3D14CB104
:103DD00050211346916353F8342F02F0380203F553
:103DE00080531A6060465DF8044B70474CB1502117
:103DF0001346916353F8342F02F0380203F58053D1
:103E00001A6078B15DF8044B70475CB1084B5021E3
:103E10001A681346916353F8342F02F0380203F501
:103E200080531A606FF00200DDE700BF400D0020F4
:103E300060100020054B1B6833B10021044A05487F
:103E40001268006891631847704700BF400D00205A
:103E500060100020440D0020024B1A6893691B0774
:103E6000FCD4704760100020F8B51C4F1C4D3A6818
:103E70001C4EAA4214BF212522250446D6F800C0B4
:103E800018B1BCF1000F10D0F8BDBCF1000FFBD091
:103E9000014690632846FCF7EFFF28461249FDF7DC
:103EA00041F8124B34601C60F8BD0B460F4A0E49B6
:103EB000306028461360FDF705F801212846FCF71D
:103EC000DBFF3A6850211346916353F8342F02F018
:103ED000380203F580531A60F8BD00BF601000205F
:103EE00000800740400D0020353E0010440D0020AA
:103EF00010B50E490E4C0F480F4A104B0078216048
:103F00000020022112781B78FCF7B6FE0221012066
:103F1000FCF7B2FE4FF4E1312068FDF791FDBDE8FA
:103F2000104001210648FFF729BE00BF00000740EE
:103F300060100020347D0010307D00102C7D0010BA
:103F40006409002003BD00BF10B50446FDF70EFF55
:103F50002346BDE810401847F0B5054687B0192044
:103F600017460E46FCF79EFF002104461920FCF779
:103F700083FF0021CDE90465039700260027012275
:103F80004FF050438C46CDE900670292A9B11A6DFB
:103F90009507FCD5596540BF1A6DD00703D420BFE3
:103FA0001A6DD207FBD59A6D8A420BD04FF0000CE8
:103FB0000DEB8C021168E9E79A6D1A6DD607FBD4F8
:103FC00040BFE4E70CF1010CBCF1060FF0D1214633
:103FD000192007B0BDE8F040FCF74EBF0C4B0D4A6E
:103FE00093420ED39C4603F2F4710B4A9268CCF8CC
:103FF000F4070A48CCF8F837CCF8FC070848FFF774
:10400000ABBF4FF0FF3340F2F3719C46EDE700BFCA
:10401000000808200000082000ED00E0493F0010E3
:10402000453F0010F8B504463A4E0F46FCF792FEA5
:10403000B17896F9003001F00101DB0F43EA41034A
:104040002342327856D096F90130C2F38011DB0F4B
:1040500041EA4301214273784FD0C3F38015C2F384
:10406000401141EA450121424AD0C3F34015C2F351
:10407000001141EA4501214245D0C3F30015C2F3C6
:10408000C00141EA4501214240D0C3F3C005C2F35B
:10409000800141EA4501214212D0C3F38005C2F3F9
:1040A000400141EA4501214219D003F0020502F026
:1040B00001031D43254015D0B7B11748FCF732FE68
:1040C00002250423E10744BF1A433270A20702D538
:1040D000727813437370FCF74FFE2846F8BD012534
:1040E0000223EFE70123EDE76FF00805FCF744FE3C
:1040F0002846F8BD07258023E4E706254023E1E7AD
:1041000005252023DEE704251023DBE7032508230C
:10411000D8E700BF780D0020087C0010384B2DE94F
:10412000F047984214BF4FF400234FF48023074612
:104130000E46344D344C354A2B602360956833EA83
:104140000505FBD10620FDF765FD39464FF0020A53
:1041500051F804EF4FEAD6594FEA462C01F5405882
:1041600063464A4654460EEA0A0EC8F800A008E024
:1041700013EB0C0304F1020442EB0902B4F5807F57
:1041800003D0984275EB020AF2D24FF48073C4EB6D
:10419000042201E0012B30D0B0FBF2FC66459946C9
:1041A000A2EB040203F1FF33F4D209FB04F91D0270
:1041B0003C6102243B4603263A6801F500516A40FF
:1041C00007F5805C02F47F42CCF80020C1F800E0E3
:1041D0007D68C8F8004053F8242B254082F0070280
:1041E00002F0CF0203F50053CCF80020B0FBF9F049
:1041F0000D601E600C60BDE8F087A146D8E700BFE7
:104200000000084000200240003002400000024050
:1042100070B5002501260468002BE56684466160C0
:1042200028469DF810E0E66616DD5D1E616F1029D8
:10423000FCD000B30021A84204BF8EF0010641EA81
:10424000462141F480712161D4F88010616B4906E8
:1042500005D54FF0FF30636D8CF804E070BDA16FA1
:104260000029F1D021690130834202F8011BF3D00B
:10427000DCF80040DAE79CF804108902DBE700BFB5
:104280002DE9F04100270124944602680546D766CF
:104290005160D4661C1E38469DF818601EDD2979D1
:1042A00086F0010789027F0204F1FF3E70450CBFD2
:1042B000B8464FF000081CF8013B0B4343EA0803E3
:1042C0001361536BD906FCD5D2F8801049B97045FB
:1042D0001CD0013084424FF00001E7D12E71BDE8BF
:1042E000F0814FF00108536D536B9B05FCD5136EA5
:1042F000B8F1000FEDD069B1CB070BD411F0080F66
:1043000008BF4FF0FF302E71BDE8F081002EE0D1E4
:10431000B046E9E74FF0FF30E0E700BFF8B50446EC
:1043200005200F46FDF776FC00EB570CBCFBF7FCB5
:10433000204D0CEB4C02A5FB02651F49AE088F42D5
:1043400000EB4003ACEB95052ED801F1D64101F509
:10435000A10101F62C01A1FB03139B0D01330021E8
:104360004F2A98BF01222468B0FBFCF0E166216867
:1043700004F5805781F0040101F00601396088BF1F
:104380000C49E56184BFA1FB021292092662C4F8C0
:10439000A0202246012152F87C5F6B409BB202F5BF
:1043A00080521360E166F8BD0449A1FB0313DB0DE5
:1043B0000133D4E7CDCCCCCC3F420F00893BE6554E
:1043C0000E4A30B4904214BF202210220C4D0D4BE7
:1043D0000D4C2A601A60A36832EA0303FBD140F255
:1043E0006515032402680371D3661560D363936374
:1043F000C2F8884030BCFFF791BF00BF7C090020A5
:1044000000200240003002400000024010B49DF83D
:10441000044001945DF8044BFFF732BF10B49DF8DF
:10442000044001945DF8044BFFF7F2BEF8B5431E5B
:104430000A3311D810F0070300F1080467D0A3F184
:104440000902A24208D31030C41A01F02BFC3549EE
:1044500022460D681DBB0AE001F024FC31490A68C0
:1044600022B1002502F0EEFB2846F8BD14462E4B83
:104470002E4D58071CBF073323F007031E460020AC
:1044800025F007050D602A49EB1AC1E900602949AA
:10449000C5E900000B60C6E9005327490B60002AFC
:1044A000DFDD254F3E68A642DBD3214B18461B6853
:1044B00003E01A6822B1184613465968A142F8D39E
:1044C000AB42CED01D46A1EB040C55F8082BBCF135
:1044D000100F026007D9214603EB040ECEF804C08A
:1044E0001A51C0F800E00024124A761A106841F010
:1044F00000418642114838BF166002685960013297
:104500001C603E60026002F09DFB2846F8BD01F091
:10451000C9FB044922460D68002DA8D0002CC0DA42
:104520009FE700BFBC0D0020641000205C1002203B
:10453000B8320220883202208031022094320220D8
:1045400090B338B550F8043C0446002B00DB38BD6E
:1045500050F8082C002AFAD123F0004340F8043C1C
:10456000A0F1080501F09EFB1A4854F8041C0268EB
:10457000194B0A4402601A461B689D42FBD85068DA
:1045800002EB000C654510D0681883421DD044F83A
:10459000083CAA4218BF1560104A13680133136023
:1045A000BDE8384002F04EBB7047014450188342CA
:1045B0005160F1D10A4800689842EDD01546D3E920
:1045C00000400144C5E90041E3E705480068834233
:1045D000F5D1DCE780310220B83202209832022087
:1045E000BC0D00200A4B93F90020002A0FDB4FF08E
:1045F00050410123D1F888019340184207D04FF071
:10460000E0224FF08050C1F88C31C2F8040D7047A1
:1046100084090020002300B583B0019300F094FAD0
:10462000019B002BFCD003B05DF804FB10B502F039
:10463000E1FB044601F04AFB28B14FF0E0234FF0C4
:104640008052C3F8042D2046BDE8104002F068BC3B
:1046500010B504224FF0E024002322610520A3615D
:10466000FDF7D8FA0721044BA3FB00239B09013B6C
:104670006361216110BD00BFD34D62104FF0E02394
:104680004FF07F42002130B585B00391C3F81C2D57
:10469000D3F81C3D1B0E8DF807309DF807309DF8B0
:1046A00007301A060CD5039B013303939DF807309E
:1046B0005B00DBB28DF807309DF807301B06F2D4A3
:1046C000039B082B40D0039BC3F107031B0203F499
:1046D000E0634FF050412548254A036012780B688B
:1046E0009A4233D04FF0E02300244FF05045D3F8E6
:1046F000202D204942F47F02C3F8202D0E20C3F85C
:104700001C4D03F03DF81C490B2003F039F81B4BFE
:104710002A68FF211A2043F82240FCF7FDFC1A20EA
:104720001749FCF7CFFB01211A20FCF7A5FB00F08D
:1047300003FA286801F0E4FB029400F005FA029BFA
:10474000002BFCD005B030BD0023C2E7FFF780FF8F
:104750004FF0E022D2F8203D0A4943F07F43C2F8EF
:10476000203D0F2003F00CF8BCE700BF141102201D
:1047700085090020714B0010094C00100C1102201B
:10478000E54500102D46001008B500F0DDF9BDE844
:104790000840FFF773BF00BF4FF0E0234FF0805297
:1047A000C3F8042DBFF34F8FBFF36F8F704700BF67
:1047B000836913F8023C662B00D070474FF0E0236A
:1047C000D3F8882D42F47002C3F8882DD3F8342F23
:1047D00042F04042C3F8342F00F092B92DE9F04F77
:1047E0004FF0113E4FF0807440E909E34FF007337A
:1047F00040F8044C164C40F8343C40E903424FF07A
:1048000005334FF006324FF0123B40E90F324FF0C4
:10481000033A4FF002394FF001384FF010374FF0A4
:1048200009364FF008354FF004346FF0020340E9C9
:1048300005AB40E9078940E90B6740F8305C40F878
:10484000404C40F8443C40F8481DBDE8F08F00BFA4
:104850001546001070B50E20FCF7D0FA0F20FCF7BB
:10486000CDFA01210320FFF7DDFB024601234FF0C3
:104870005041002452B2084E9340084D327008480F
:10488000C1F88C31C1F884312C70FFF7A7FBFFF71A
:10489000F5FE204670BD00BF840900208509002078
:1048A00089470010EFF305830F2B84BF014A9B5CFF
:1048B000704700BFF0E300E0094B1B78FF2B0BD0E3
:1048C000EFF30583DBB22BB14FF05042106800EBE1
:1048D0004300704701F0CCBD4FF05043186870475B
:1048E00085090020144B02681B78FF2B06D100239A
:1048F000C2E88F3F81F3108820BF704710B50023B6
:1049000082B0C2E88F3F81F310884FF0FF3401225C
:1049100001680A480094091A0948A0FB01C000096F
:1049200000EB4000A1EBC001064802FA01F100686B
:1049300000F0B8F902B010BD85090020080D002074
:10494000ABAAAAAA7C31022010B51F4B8E461B7859
:1049500082B0FF2B2ED04FF0010C02681B4BD21AF5
:104960001B4BA3FB02131B0903EB4303A2EBC30284
:104970000CFA02F140BF00240368C3E88F4F8EF3A6
:104980001088EFF30583134ADBB2106823B902B035
:10499000BDE8104000F0DEB901AA019400F00EFA63
:1049A000019B2BB14FF0E0234FF08052C3F8042D50
:1049B00002B010BD40BF00230268C2E88F3F81F300
:1049C000108802B010BD00BF85090020080D00202E
:1049D000ABAAAAAA7C3102202DE9F041364C06464A
:1049E00094F800C00F46BCF1FF0F14461D4682B07C
:1049F00050D0FCF7DBFF40F2E733B4EB000C65EB83
:104A000001011CEB030041F10001B0F57A7F71F167
:104A10000003D6F800801DDA0023C8E88F3F87F333
:104A20001088264B5A6A95420DD94FF0E0234FF07B
:104A30008052C3F8042DBFF34F8FBFF36F8F002058
:104A400002B0BDE8F0819B6AA34230D3012002B0DE
:104A5000BDE8F0814FF47A72002303F00DF80028CE
:104A6000DAD00023C8E88F3F87F310880122009036
:104A700031681348091A1348A0FB0160000900EBD4
:104A80004000A1EBC001104802FA01F1006800F0FB
:104A900009F9C6E700230268C2E88F3F81F3108856
:104AA0002046294602B0BDE8F041FCF7FBBE954226
:104AB000BBD00120CBE700BF8509002000000B40E0
:104AC000080D0020ABAAAAAA7C31022008B5034831
:104AD00000F0D8F8024B186008BD00BFC0320220B9
:104AE0007C31022001234FF05042034991F900101C
:104AF0008B40C2F88031704784090020000000001C
:104B00000BA10CC9126853F82210086806C881F37B
:104B10000B88022181F31488203080F30988BFF3C9
:104B20006F8F4FF0000080F311881047AFF30080C3
:104B3000000000D0AC0D002062B661B6BFF34F8F0D
:104B4000BFF36F8F66DF00BFEFF311804FF01001EE
:104B500081F31188BFF34F8FBFF36F8F704700BF92
:104B600080F31188BFF34F8FBFF36F8F704700BF83
:104B7000EFF309811EF0100F08BF21ED108AEFF34B
:104B80000B82734621E9FC0F55FC084457FC09646D
:104B900059FC0A8401E9F00319A00CC8106853F805
:104BA000203019604FF0100181F31188BFF34F8F4F
:104BB000BFF36F8F01F0A4F94FF0000080F311886C
:104BC0000FA10CC9126853F8221008681838B0E811
:104BD000F00345EC004447EC016449EC0284B0E882
:104BE000FC0F13F0100F08BFB0EC108A82F30B8893
:104BF00080F30988184700BFAFF30080AFF300804F
:104C0000000000D0AC0D00201EF0040F0CBFEFF32D
:104C10000880EFF30980014908470000B147001000
:104C20002DE9F84307460D4600F10C0901F03AF86A
:104C30003B683C692B43A1453B601ED04FF0000808
:104C400009E036B1D30148BF48EA050802F036F85A
:104C50003B68A1450FD020460268646822F07F457A
:104C600012F0806F43F0007105EA0306E9D0B54207
:104C7000E8D0A145EFD123EA08033B60BDE8F84343
:104C800001F0E0BF202310B582B00446019330B19B
:104C9000002340F8043B00F09FF8012323772046CF
:104CA00002B010BD2DE9F04180460D461E46174664
:104CB00000F0F8FFD8F8004004EA050356B933B312
:104CC0003FB324EA0505C8F8005001F0BBFF2046B9
:104CD000BDE8F0819D42F3D0069BD3B1391E18BFC9
:104CE00001211A46090641F08061294308F10400B8
:104CF00001F0AAFA01F0A6FF30B302F043F98301F4
:104D0000044611D524F07F442046BDE8F081069B7F
:104D100023B901F097FF2046BDE8F081391E18BF86
:104D200001211A460906E0E701F022FCD8F800400C
:104D300005EA04035EB923B11FB124EA0505C8F8EA
:104D4000005002F0A1F8DDE701F000FCD5E7AB422E
:104D5000F7D1F1E72DE9F84307460D4600F10C09BC
:104D600000F0A0FF3B683C692B43A1453B601ED08F
:104D70004FF0000809E036B1D30148BF48EA050802
:104D800001F09CFF3B68A1450FD020460268646893
:104D900022F07F4512F0806F43F0007105EA0306B0
:104DA000E9D0B542E8D0A145EFD123EA08033B6042
:104DB00001F048FF3868BDE8F88300BF8C4600B5B5
:104DC000864613467146624602485DF804EB02F0DF
:104DD000BFBC00BF214C00104FF0FF31002200F19A
:104DE0000803C0E90131C0E903330260704700BF26
:104DF00000230361704700BF10B4D0E9003294680B
:104E00000133C1E90124616091605DF8044B0861E0
:104E10000360704730B40D686B1C10D000F10803BC
:104E20001C465B681A68AA42FAD902684B600132D4
:104E300099608C606160086130BC026070470469F1
:104E40006368F2E70346026910B4546840689968E1
:104E50009C428160486008BF5160002110685DF885
:104E6000044B013819611060704700BF70B51646D9
:104E7000026C0446856B2AB9066801354EB31046AC
:104E8000A56370BD8EB9406802F03AFD6368216C7D
:104E9000A2680B449342636028BF236805F10105B3
:104EA00028BF63600020A56370BDC06802F028FDC4
:104EB000226CE36851429B1A2268E360934202D25B
:104EC000A3680B44E360022E08D001350020A563DF
:104ED00070BD806801F0DCFAA660D1E7012D38BF13
:104EE0000125DFE72DE9F043064685B001F040FBE0
:104EF00096F845305DB2002D1CDD06F1240708E070
:104F0000A26BE36B03969A423DD36B1EDAB25DB29D
:104F100082B1B46C002CF3D1736A5BB1384601F0F6
:104F200031FA0028F1D001F099FA6B1EDAB25DB2C5
:104F3000002AEED1FF2386F8453001F0A5FF01F0ED
:104F400017FB96F844305CB2002C14DD06F1100516
:104F500003E0631EDAB25CB26AB133695BB1284622
:104F600001F010FA0028F4D001F078FA631EDAB2EA
:104F70005CB2002AF1D1FF2386F8443005B0BDE8C9
:104F8000F04301F081BF94F84580226CA36B4FFA87
:104F900088F803F101099AB92368002B3FD0B8F1D2
:104FA000FF3FC4F838902ED1636A002BADD004F1D6
:104FB000240001F0E7F90028A7D001F04FFAB4E788
:104FC000606803A902F09CFC6368226CC4F8389006
:104FD0001344A268636093420ED32368B8F1FF3F85
:104FE0006360E1D000F06CFE40458ED908F101030A
:104FF0005BB284F8453088E7B8F1FF3FF2D1636ACD
:10500000002B82D0D3E700F05BFE8045BFF47DAF7C
:1050100008F101084FFA88F884F8458075E7A06820
:10502000019301F035FA019BB8F1FF3FC4F83890C5
:10503000A360814608D1636A9BB9B9F1000F3FF4C0
:1050400064AF01F00BFA70E700F03AFE4045F4D986
:1050500008F101035BB284F84530B9F1000FF0D1DB
:1050600053E704F1240001F08DF900287FF45BAFD1
:10507000E3E700BFF0B5846C83B0A26BE36B0190F3
:105080009A4203D30025284603B0F0BD94F845604A
:10509000226CA76B76B2E2B1606801A902F030FC25
:1050A0006268236C1A44A36862609A4201D3236841
:1050B000636000250137731CA76313D1636A002B5B
:1050C000E1D004F1240001F05DF9002818BF0125AA
:1050D000D9E72568002DECD1A06801F0D9F9A560C9
:1050E0000546E7E700F0ECFD8642CCD2013676B209
:1050F00084F84560C7E700BF70B582B09DF81850CE
:1051000090B31C46002B3AD082B3A9B35423019329
:10511000019BA1FB00360123C4E90F01226084F842
:105120004630E6B901F024FAD4E90F31A663FF2630
:1051300001FB03F32268591A626013440A44C4E96C
:10514000023204F1100084F8446084F84560FFF7EF
:1051500043FE04F12400FFF73FFE01F095FE00231B
:10516000204684F85050A36402B070BD51B9542356
:1051700001932246019BCCE7084602B070BD184659
:1051800002B070BD1046EFE72DE9F84304469046A3
:105190001D460F46FFF786FB01F02CFEA26BE36B6A
:1051A00006469A4208D3022D06D00024304601F06C
:1051B000B7FE2046BDE8F883394694F845702A4684
:1051C00020467FB2D4F83890FFF750FE7B1C17D1F1
:1051D000A36CFBB1022D02D1B9F1000F09D1204619
:1051E000FFF748FF28B1B8F1000F02D00123C8F83B
:1051F00000300124304601F093FE2046BDE8F883DC
:1052000000F05EFD8742F4D201377FB284F845702A
:105210000124EFE7636A002BEBD004F1240001F0D6
:10522000B1F80028DFD1E4E7F0B5044685B00F46B9
:10523000019201F09DF9A56B002D53D1019BA3B301
:1052400002A801F0FFF82E4601F01EFE00F02AFD34
:1052500001F08EF994F84430FF2B08BF84F84460C5
:1052600094F84530FF2B08BF84F8456001F00CFE30
:1052700001A902A801F06CFDE0B901F079F9A36B76
:105280002BBB01F001FE019904F1240000F0C2FFE4
:105290002046FFF727FE01F0D5FC00B301F068F9C6
:1052A000A56BFDB9019B002BCED101F0EDFD0020D7
:1052B00005B0F0BD2046FFF715FE01F0C3FC01F07C
:1052C00057F9A36B002BF0D001F0DEFDE6E701F00B
:1052D000DBFD2046FFF706FE01F0B4FCDEE701F03F
:1052E00035F9DBE7226C5AB1E168A36811449942B1
:1052F000E16028BF2168384628BFE16002F000FB6A
:105300002369013DA56323B901F0BEFD012005B06D
:10531000F0BD04F1100001F035F80028F4D001F0E0
:1053200015F9F1E7002955D0444B5A68904272D0E4
:105330001A6810B4002A2CD0DA6890427BD09A68A0
:10534000002A41D05A69904273D01A69002A42D08B
:10535000DA69904265D09A69002A42D05A6A90422E
:1053600044D01A6A002A45D0DA6A90425BD09A6A21
:10537000002A44D05A6B904257D01A6B002A43D06F
:10538000DA6B904253D09B6B002B42D05DF8044BFC
:105390007047DA6890424ED05A69904249D01A4616
:1053A000DC69A0423DD05C6AA0421FD0DC6AA0420A
:1053B00039D05C6BA04238D0DC6BA04237D0C2E958
:1053C00000105DF8044B70475A69904231D003F1E8
:1053D0000802E5E77047DA69904222D003F1100233
:1053E000E1E75A6A904201D0154ADFE7042203EB55
:1053F000C202E4E7DA6A904215D0124AD9E75A6B42
:10540000904212D0104AD7E7DA6B90420FD00F4A81
:10541000D5E70F4AD3E7002203EBC202C2E900102E
:1054200070470322E3E70522E1E70622DFE70722D0
:10543000DDE70222DBE70122D9E700BF180B0020DD
:10544000300B0020380B0020400B0020480B0020C0
:10545000500B002070B504460E46154601F088F842
:1054600094F84430FF2B04BF002384F8443094F8B0
:105470004530FF2B04BF002384F8453001F004FDC4
:10548000A36B23B12046BDE87040FFF72BBD04F1AC
:1054900024002A46314600F027FF2046BDE8704030
:1054A000FFF720BD064C08B5FFF776F92368022BFD
:1054B00000D8FEE7FFF770F92368022BFAD8F8E767
:1054C000C80D0020F8B5836B002B02DB836B012B2A
:1054D00016DD324C036B26685A1E276823689B6BC7
:1054E000002B03DB23689B6B012B0ADD6668656874
:1054F00063689B6B002B03DB63689B6B012B20DDD8
:10550000F8BD27490D68002DF0D1FF6B336B07F014
:1055100001069B1B9A42E9DB4668F607E6D5D4F8FC
:1055200004C067686268926B002A1ADB6268926B3B
:10553000012A16DC4E68A6B91A46FD6BDCF830303D
:1055400007E017494B68002BDAD1336B4FF0FF3679
:10555000ED6B05F001055B1B934219DD0136CFD0E1
:1055600000254FF050431B689D420DD054F8253064
:105570009B6B0233C4D02846FFF7B4FA6FF00102E8
:1055800054F825309A63F8BD012341F82530F8BD61
:1055900043689B07E2D50125E3E700BFAC0D00207F
:1055A000E43302204FF050411B4B0A6853F82200AD
:1055B00000282CD053F82200013843F822000A6852
:1055C00053F822301BBB10B51449154B53F8224039
:1055D0000B78013BDBB20B702BB9124800F812308C
:1055E000114AC2E88F3F4FF050424B781068013BA0
:1055F000DBB24B7033B90B4A0C4902EB40025370DB
:10560000C1E88F3F0020FFF7ABFA0CB910BD70471F
:10561000BDE81040FFF7C0B80C110220681002204E
:10562000E433022064100220160D0020170D002024
:105630002DE9F8430D460A9C960032460746A521FF
:10564000606B9846DDF8249002F0EEF8636B043E40
:105650001E4426F00706002D3ED02B7884F84030FB
:10566000002B36D06B7884F8413093B3AB7884F854
:10567000423073B3EB7884F8433053B32B7984F81A
:10568000443033B36B7984F8453013B3AB7984F885
:105690004630F3B1EB7984F84730D3B12B7A84F8F4
:1056A0004830B3B16B7A84F8493093B1AB7A84F85F
:1056B0004A3073B1EB7A84F84B3053B12B7B84F8CA
:1056C0004C3033B16B7B84F84D3013B1AB7B84F835
:1056D0004E30002384F84F30089D04F108001F2D40
:1056E00028BF1F252563A565FFF782FBC5F12005AF
:1056F00004F11C00FFF77CFB43463A463046616BE1
:10570000E5616461A462FFF769F84FF0FF320A4B6C
:1057100020609F42A26309D0084B9F4206D0B9F196
:10572000000F01D0C9F80040BDE8F883E36B43F0F7
:105730000103E363F3E700BF4D5B0010A5540010C5
:105740004FF05042504B12682DE9F047DFF844917A
:105750004E4CDFF8448153F822604D4D40E0DFF8B5
:105760003CA10020FFF7FCF9FFF7EEF94FF05043A2
:105770001B68DAE8CF2F0121002A01D1CAE8421FB5
:10578000BFF35F8F002A50D15B0001224344627057
:105790005A704FF050431A68D5E8CF3F0121002BD3
:1057A00001D1C5E8431FBFF35F8F73B118F8123002
:1057B000002B4BD1D5E8CF1F01230029FAD1C5E832
:1057C000413F0029F6D1BFF35F8F0123237008F812
:1057D00012304FF050431A6849F82270002F40D021
:1057E000B36B02334ED14FF050410A6859F8227022
:1057F0006FB1002349F8223023780A68013BDBB2FD
:10580000237023B908F81230C5E88F3F0A6863781F
:10581000013BDBB26370002BA1D108EB4202DFF841
:105820007CA05370CAE88F3F9BE708EB4302527895
:105830005B0012BBDAE8CF1F01220029FAD1CAE8C7
:10584000412F0029F6D1BFF35F8F9EE72378013304
:10585000DBB223704FF050431A6849F82270002FD2
:10586000BED11A682378013BDBB22370002BB7D17D
:1058700008F81270C5E88F7F6FE763780133DBB2F9
:10588000637086E7BDE8F087AC0D00206810022049
:10589000160D00200C11022064100220170D0020AC
:1058A000F8B5FFF751F94FF050420646354B1268F4
:1058B000D3E8CF1F0120002901D1C3E8410FBFF376
:1058C0005F8F314D00293ED1510001232F4C2944D7
:1058D00063704B702E4F3B68002B45D04FF0504308
:1058E0002C4A1968D2E8CF3F0120002B01D1C2E831
:1058F000430FBFF35F8F73B115F81130002B3CD10C
:10590000D2E8CF0F01230028FAD1C2E8403F002897
:10591000F6D1BFF35F8F0123237005F811304FF0EC
:1059200050413B6801333B6023780968013BDBB29F
:1059300023701BB905F81130C2E88F3F3046BDE82F
:10594000F840FFF70DB9510005EB4202527872B9E9
:10595000D3E8CF0F01220028FAD1C3E8402F002856
:10596000F6D1BFF35F8FB0E7FFF7EAFEB6E7074C6B
:1059700063780133DBB26370ACE723780133DBB2C9
:105980002370CCE7170D002064100220681002205D
:1059900020210220160D00202DE9F843614C624DB4
:1059A000624EDFF8A481624F2368002B42D0FFF7DC
:1059B000CBF82B6893B14FF050431B6856F8232067
:1059C000002A40D04FF0504156F82320013246F8CB
:1059D00023200B6856F82330012B2DD023680BB3FE
:1059E000544BDB68D3F80C90D9F83830013340F0D1
:1059F0008A8009F10800FFF725FA4F4A1368013B36
:105A000013602368013B23602B680BB1FFF7CAFDCD
:105A100099F87930002B7DD0012BC5D14846FEF78F
:105A20008FFDC1E72B68002BBED0FFF7BBFD2368BD
:105A3000002BBCD1BDE8F883D8F80030002BCDD1C5
:105A4000FFF77EFECAE7D7E8CF2F0121002A01D158
:105A5000C7E8421FBFF35F8F002A35D1374A59008C
:105A600001233748114443704B704FF0504C354B75
:105A7000DCF80010D3E8CFEF5FF00109BEF1000FB2
:105A800001D1C3E84E9FBFF35F8FBEF1000F12D06C
:105A900012F811E0BEF1000F2ED1D3E8CFEF5FF086
:105AA000010CBEF1000FF8D1C3E84ECFBEF1000FDC
:105AB000F3D1BFF35F8F01234FF0504C037002F816
:105AC0001130DCF800307DE71C4A590002EB43033B
:105AD0005B785BB9D7E8CF0F01230028FAD1C7E87C
